{
	"vulncontracts/vuln3.sol": {
		"VeryNaiveAuction": {
			"abi": [
				{
					"inputs": [
						{
							"internalType": "uint256",
							"name": "_sec",
							"type": "uint256"
						}
					],
					"stateMutability": "nonpayable",
					"type": "constructor"
				},
				{
					"inputs": [],
					"name": "auctionEnd",
					"outputs": [
						{
							"internalType": "uint256",
							"name": "",
							"type": "uint256"
						}
					],
					"stateMutability": "view",
					"type": "function"
				},
				{
					"inputs": [],
					"name": "bid",
					"outputs": [],
					"stateMutability": "payable",
					"type": "function"
				},
				{
					"inputs": [],
					"name": "highestBid",
					"outputs": [
						{
							"internalType": "uint256",
							"name": "",
							"type": "uint256"
						}
					],
					"stateMutability": "view",
					"type": "function"
				},
				{
					"inputs": [],
					"name": "highestBidder",
					"outputs": [
						{
							"internalType": "address",
							"name": "",
							"type": "address"
						}
					],
					"stateMutability": "view",
					"type": "function"
				},
				{
					"inputs": [
						{
							"internalType": "address",
							"name": "",
							"type": "address"
						}
					],
					"name": "pendingReturns",
					"outputs": [
						{
							"internalType": "uint256",
							"name": "",
							"type": "uint256"
						}
					],
					"stateMutability": "view",
					"type": "function"
				},
				{
					"inputs": [],
					"name": "withdraw",
					"outputs": [],
					"stateMutability": "nonpayable",
					"type": "function"
				}
			],
			"devdoc": {
				"kind": "dev",
				"methods": {},
				"version": 1
			},
			"evm": {
				"assembly": "    /* \"vulncontracts/vuln3.sol\":57:800  contract VeryNaiveAuction {... */\n  mstore(0x40, 0xa0)\n    /* \"vulncontracts/vuln3.sol\":248:313  constructor(uint256 _sec){ auctionEnd = block.timestamp + _sec; } */\n  callvalue\n  dup1\n  iszero\n  tag_1\n  jumpi\n  revert(0x00, 0x00)\ntag_1:\n  pop\n  mload(0x40)\n  sub(codesize, bytecodeSize)\n  dup1\n  bytecodeSize\n  dup4\n  codecopy\n  dup2\n  dup2\n  add\n  0x40\n  mstore\n  dup2\n  add\n  swap1\n  tag_2\n  swap2\n  swap1\n  tag_3\n  jump\t// in\ntag_2:\n    /* \"vulncontracts/vuln3.sol\":306:310  _sec */\n  dup1\n    /* \"vulncontracts/vuln3.sol\":288:303  block.timestamp */\n  timestamp\n    /* \"vulncontracts/vuln3.sol\":288:310  block.timestamp + _sec */\n  tag_6\n  swap2\n  swap1\n  tag_7\n  jump\t// in\ntag_6:\n    /* \"vulncontracts/vuln3.sol\":275:310  auctionEnd = block.timestamp + _sec */\n  0x80\n  dup2\n  dup2\n  mstore\n  pop\n  pop\n    /* \"vulncontracts/vuln3.sol\":248:313  constructor(uint256 _sec){ auctionEnd = block.timestamp + _sec; } */\n  pop\n    /* \"vulncontracts/vuln3.sol\":57:800  contract VeryNaiveAuction {... */\n  jump(tag_8)\n    /* \"#utility.yul\":88:205   */\ntag_10:\n    /* \"#utility.yul\":197:198   */\n  0x00\n    /* \"#utility.yul\":194:195   */\n  0x00\n    /* \"#utility.yul\":187:199   */\n  revert\n    /* \"#utility.yul\":334:411   */\ntag_12:\n    /* \"#utility.yul\":371:378   */\n  0x00\n    /* \"#utility.yul\":400:405   */\n  dup2\n    /* \"#utility.yul\":389:405   */\n  swap1\n  pop\n    /* \"#utility.yul\":334:411   */\n  swap2\n  swap1\n  pop\n  jump\t// out\n    /* \"#utility.yul\":417:539   */\ntag_13:\n    /* \"#utility.yul\":490:514   */\n  tag_22\n    /* \"#utility.yul\":508:513   */\n  dup2\n    /* \"#utility.yul\":490:514   */\n  tag_12\n  jump\t// in\ntag_22:\n    /* \"#utility.yul\":483:488   */\n  dup2\n    /* \"#utility.yul\":480:515   */\n  eq\n    /* \"#utility.yul\":470:533   */\n  tag_23\n  jumpi\n    /* \"#utility.yul\":529:530   */\n  0x00\n    /* \"#utility.yul\":526:527   */\n  0x00\n    /* \"#utility.yul\":519:531   */\n  revert\n    /* \"#utility.yul\":470:533   */\ntag_23:\n    /* \"#utility.yul\":417:539   */\n  pop\n  jump\t// out\n    /* \"#utility.yul\":545:688   */\ntag_14:\n    /* \"#utility.yul\":602:607   */\n  0x00\n    /* \"#utility.yul\":633:639   */\n  dup2\n    /* \"#utility.yul\":627:640   */\n  mload\n    /* \"#utility.yul\":618:640   */\n  swap1\n  pop\n    /* \"#utility.yul\":649:682   */\n  tag_25\n    /* \"#utility.yul\":676:681   */\n  dup2\n    /* \"#utility.yul\":649:682   */\n  tag_13\n  jump\t// in\ntag_25:\n    /* \"#utility.yul\":545:688   */\n  swap3\n  swap2\n  pop\n  pop\n  jump\t// out\n    /* \"#utility.yul\":694:1045   */\ntag_3:\n    /* \"#utility.yul\":764:770   */\n  0x00\n    /* \"#utility.yul\":813:815   */\n  0x20\n    /* \"#utility.yul\":801:810   */\n  dup3\n    /* \"#utility.yul\":792:799   */\n  dup5\n    /* \"#utility.yul\":788:811   */\n  sub\n    /* \"#utility.yul\":784:816   */\n  slt\n    /* \"#utility.yul\":781:900   */\n  iszero\n  tag_27\n  jumpi\n    /* \"#utility.yul\":819:898   */\n  tag_28\n  tag_10\n  jump\t// in\ntag_28:\n    /* \"#utility.yul\":781:900   */\ntag_27:\n    /* \"#utility.yul\":939:940   */\n  0x00\n    /* \"#utility.yul\":964:1028   */\n  tag_29\n    /* \"#utility.yul\":1020:1027   */\n  dup5\n    /* \"#utility.yul\":1011:1017   */\n  dup3\n    /* \"#utility.yul\":1000:1009   */\n  dup6\n    /* \"#utility.yul\":996:1018   */\n  add\n    /* \"#utility.yul\":964:1028   */\n  tag_14\n  jump\t// in\ntag_29:\n    /* \"#utility.yul\":954:1028   */\n  swap2\n  pop\n    /* \"#utility.yul\":910:1038   */\n  pop\n    /* \"#utility.yul\":694:1045   */\n  swap3\n  swap2\n  pop\n  pop\n  jump\t// out\n    /* \"#utility.yul\":1051:1231   */\ntag_15:\n    /* \"#utility.yul\":1099:1176   */\n  0x4e487b7100000000000000000000000000000000000000000000000000000000\n    /* \"#utility.yul\":1096:1097   */\n  0x00\n    /* \"#utility.yul\":1089:1177   */\n  mstore\n    /* \"#utility.yul\":1196:1200   */\n  0x11\n    /* \"#utility.yul\":1193:1194   */\n  0x04\n    /* \"#utility.yul\":1186:1201   */\n  mstore\n    /* \"#utility.yul\":1220:1224   */\n  0x24\n    /* \"#utility.yul\":1217:1218   */\n  0x00\n    /* \"#utility.yul\":1210:1225   */\n  revert\n    /* \"#utility.yul\":1237:1428   */\ntag_7:\n    /* \"#utility.yul\":1277:1280   */\n  0x00\n    /* \"#utility.yul\":1296:1316   */\n  tag_32\n    /* \"#utility.yul\":1314:1315   */\n  dup3\n    /* \"#utility.yul\":1296:1316   */\n  tag_12\n  jump\t// in\ntag_32:\n    /* \"#utility.yul\":1291:1316   */\n  swap2\n  pop\n    /* \"#utility.yul\":1330:1350   */\n  tag_33\n    /* \"#utility.yul\":1348:1349   */\n  dup4\n    /* \"#utility.yul\":1330:1350   */\n  tag_12\n  jump\t// in\ntag_33:\n    /* \"#utility.yul\":1325:1350   */\n  swap3\n  pop\n    /* \"#utility.yul\":1373:1374   */\n  dup3\n    /* \"#utility.yul\":1370:1371   */\n  dup3\n    /* \"#utility.yul\":1366:1375   */\n  add\n    /* \"#utility.yul\":1359:1375   */\n  swap1\n  pop\n    /* \"#utility.yul\":1394:1397   */\n  dup1\n    /* \"#utility.yul\":1391:1392   */\n  dup3\n    /* \"#utility.yul\":1388:1398   */\n  gt\n    /* \"#utility.yul\":1385:1421   */\n  iszero\n  tag_34\n  jumpi\n    /* \"#utility.yul\":1401:1419   */\n  tag_35\n  tag_15\n  jump\t// in\ntag_35:\n    /* \"#utility.yul\":1385:1421   */\ntag_34:\n    /* \"#utility.yul\":1237:1428   */\n  swap3\n  swap2\n  pop\n  pop\n  jump\t// out\n    /* \"vulncontracts/vuln3.sol\":57:800  contract VeryNaiveAuction {... */\ntag_8:\n  mload(0x80)\n  codecopy(0x00, dataOffset(sub_0), dataSize(sub_0))\n  0x00\n  assignImmutable(\"0x7880aec93413f117ef14bd4e6d130875ab2c7d7d55a064fac3c2f7bd51516380\")\n  return(0x00, dataSize(sub_0))\nstop\n\nsub_0: assembly {\n        /* \"vulncontracts/vuln3.sol\":57:800  contract VeryNaiveAuction {... */\n      mstore(0x40, 0x80)\n      jumpi(tag_1, lt(calldatasize, 0x04))\n      shr(0xe0, calldataload(0x00))\n      dup1\n      0x1998aeef\n      eq\n      tag_2\n      jumpi\n      dup1\n      0x26b387bb\n      eq\n      tag_3\n      jumpi\n      dup1\n      0x2a24f46c\n      eq\n      tag_4\n      jumpi\n      dup1\n      0x3ccfd60b\n      eq\n      tag_5\n      jumpi\n      dup1\n      0x91f90157\n      eq\n      tag_6\n      jumpi\n      dup1\n      0xd57bde79\n      eq\n      tag_7\n      jumpi\n    tag_1:\n      revert(0x00, 0x00)\n        /* \"vulncontracts/vuln3.sol\":318:607  function bid() external payable {... */\n    tag_2:\n      tag_8\n      tag_9\n      jump\t// in\n    tag_8:\n      stop\n        /* \"vulncontracts/vuln3.sol\":154:201  mapping(address=>uint256) public pendingReturns */\n    tag_3:\n      callvalue\n      dup1\n      iszero\n      tag_10\n      jumpi\n      revert(0x00, 0x00)\n    tag_10:\n      pop\n      tag_11\n      0x04\n      dup1\n      calldatasize\n      sub\n      dup2\n      add\n      swap1\n      tag_12\n      swap2\n      swap1\n      tag_13\n      jump\t// in\n    tag_12:\n      tag_14\n      jump\t// in\n    tag_11:\n      mload(0x40)\n      tag_15\n      swap2\n      swap1\n      tag_16\n      jump\t// in\n    tag_15:\n      mload(0x40)\n      dup1\n      swap2\n      sub\n      swap1\n      return\n        /* \"vulncontracts/vuln3.sol\":207:242  uint256 public immutable auctionEnd */\n    tag_4:\n      callvalue\n      dup1\n      iszero\n      tag_17\n      jumpi\n      revert(0x00, 0x00)\n    tag_17:\n      pop\n      tag_18\n      tag_19\n      jump\t// in\n    tag_18:\n      mload(0x40)\n      tag_20\n      swap2\n      swap1\n      tag_16\n      jump\t// in\n    tag_20:\n      mload(0x40)\n      dup1\n      swap2\n      sub\n      swap1\n      return\n        /* \"vulncontracts/vuln3.sol\":612:798  function withdraw() external {... */\n    tag_5:\n      callvalue\n      dup1\n      iszero\n      tag_21\n      jumpi\n      revert(0x00, 0x00)\n    tag_21:\n      pop\n      tag_22\n      tag_23\n      jump\t// in\n    tag_22:\n      stop\n        /* \"vulncontracts/vuln3.sol\":89:117  address public highestBidder */\n    tag_6:\n      callvalue\n      dup1\n      iszero\n      tag_24\n      jumpi\n      revert(0x00, 0x00)\n    tag_24:\n      pop\n      tag_25\n      tag_26\n      jump\t// in\n    tag_25:\n      mload(0x40)\n      tag_27\n      swap2\n      swap1\n      tag_28\n      jump\t// in\n    tag_27:\n      mload(0x40)\n      dup1\n      swap2\n      sub\n      swap1\n      return\n        /* \"vulncontracts/vuln3.sol\":123:148  uint256 public highestBid */\n    tag_7:\n      callvalue\n      dup1\n      iszero\n      tag_29\n      jumpi\n      revert(0x00, 0x00)\n    tag_29:\n      pop\n      tag_30\n      tag_31\n      jump\t// in\n    tag_30:\n      mload(0x40)\n      tag_32\n      swap2\n      swap1\n      tag_16\n      jump\t// in\n    tag_32:\n      mload(0x40)\n      dup1\n      swap2\n      sub\n      swap1\n      return\n        /* \"vulncontracts/vuln3.sol\":318:607  function bid() external payable {... */\n    tag_9:\n        /* \"vulncontracts/vuln3.sol\":386:396  auctionEnd */\n      immutable(\"0x7880aec93413f117ef14bd4e6d130875ab2c7d7d55a064fac3c2f7bd51516380\")\n        /* \"vulncontracts/vuln3.sol\":368:383  block.timestamp */\n      timestamp\n        /* \"vulncontracts/vuln3.sol\":368:396  block.timestamp < auctionEnd */\n      lt\n        /* \"vulncontracts/vuln3.sol\":360:406  require(block.timestamp < auctionEnd, \"ended\") */\n      tag_34\n      jumpi\n      mload(0x40)\n      0x08c379a000000000000000000000000000000000000000000000000000000000\n      dup2\n      mstore\n      0x04\n      add\n      tag_35\n      swap1\n      tag_36\n      jump\t// in\n    tag_35:\n      mload(0x40)\n      dup1\n      swap2\n      sub\n      swap1\n      revert\n    tag_34:\n        /* \"vulncontracts/vuln3.sol\":436:446  highestBid */\n      sload(0x01)\n        /* \"vulncontracts/vuln3.sol\":424:433  msg.value */\n      callvalue\n        /* \"vulncontracts/vuln3.sol\":424:446  msg.value > highestBid */\n      gt\n        /* \"vulncontracts/vuln3.sol\":416:458  require(msg.value > highestBid, \"too low\") */\n      tag_37\n      jumpi\n      mload(0x40)\n      0x08c379a000000000000000000000000000000000000000000000000000000000\n      dup2\n      mstore\n      0x04\n      add\n      tag_38\n      swap1\n      tag_39\n      jump\t// in\n    tag_38:\n      mload(0x40)\n      dup1\n      swap2\n      sub\n      swap1\n      revert\n    tag_37:\n        /* \"vulncontracts/vuln3.sol\":483:484  0 */\n      0x00\n        /* \"vulncontracts/vuln3.sol\":471:481  highestBid */\n      sload(0x01)\n        /* \"vulncontracts/vuln3.sol\":471:484  highestBid!=0 */\n      eq\n        /* \"vulncontracts/vuln3.sol\":468:529  if(highestBid!=0) pendingReturns[highestBidder] += highestBid */\n      tag_40\n      jumpi\n        /* \"vulncontracts/vuln3.sol\":519:529  highestBid */\n      sload(0x01)\n        /* \"vulncontracts/vuln3.sol\":486:500  pendingReturns */\n      0x02\n        /* \"vulncontracts/vuln3.sol\":486:515  pendingReturns[highestBidder] */\n      0x00\n        /* \"vulncontracts/vuln3.sol\":501:514  highestBidder */\n      0x00\n      0x00\n      swap1\n      sload\n      swap1\n      0x0100\n      exp\n      swap1\n      div\n      0xffffffffffffffffffffffffffffffffffffffff\n      and\n        /* \"vulncontracts/vuln3.sol\":486:515  pendingReturns[highestBidder] */\n      0xffffffffffffffffffffffffffffffffffffffff\n      and\n      0xffffffffffffffffffffffffffffffffffffffff\n      and\n      dup2\n      mstore\n      0x20\n      add\n      swap1\n      dup2\n      mstore\n      0x20\n      add\n      0x00\n      keccak256\n      0x00\n        /* \"vulncontracts/vuln3.sol\":486:529  pendingReturns[highestBidder] += highestBid */\n      dup3\n      dup3\n      sload\n      tag_41\n      swap2\n      swap1\n      tag_42\n      jump\t// in\n    tag_41:\n      swap3\n      pop\n      pop\n      dup2\n      swap1\n      sstore\n      pop\n        /* \"vulncontracts/vuln3.sol\":468:529  if(highestBid!=0) pendingReturns[highestBidder] += highestBid */\n    tag_40:\n        /* \"vulncontracts/vuln3.sol\":555:565  msg.sender */\n      caller\n        /* \"vulncontracts/vuln3.sol\":539:552  highestBidder */\n      0x00\n      0x00\n        /* \"vulncontracts/vuln3.sol\":539:565  highestBidder = msg.sender */\n      0x0100\n      exp\n      dup2\n      sload\n      dup2\n      0xffffffffffffffffffffffffffffffffffffffff\n      mul\n      not\n      and\n      swap1\n      dup4\n      0xffffffffffffffffffffffffffffffffffffffff\n      and\n      mul\n      or\n      swap1\n      sstore\n      pop\n        /* \"vulncontracts/vuln3.sol\":591:600  msg.value */\n      callvalue\n        /* \"vulncontracts/vuln3.sol\":575:585  highestBid */\n      0x01\n        /* \"vulncontracts/vuln3.sol\":575:600  highestBid    = msg.value */\n      dup2\n      swap1\n      sstore\n      pop\n        /* \"vulncontracts/vuln3.sol\":318:607  function bid() external payable {... */\n      jump\t// out\n        /* \"vulncontracts/vuln3.sol\":154:201  mapping(address=>uint256) public pendingReturns */\n    tag_14:\n      mstore(0x20, 0x02)\n      dup1\n      0x00\n      mstore\n      keccak256(0x00, 0x40)\n      0x00\n      swap2\n      pop\n      swap1\n      pop\n      sload\n      dup2\n      jump\t// out\n        /* \"vulncontracts/vuln3.sol\":207:242  uint256 public immutable auctionEnd */\n    tag_19:\n      immutable(\"0x7880aec93413f117ef14bd4e6d130875ab2c7d7d55a064fac3c2f7bd51516380\")\n      dup2\n      jump\t// out\n        /* \"vulncontracts/vuln3.sol\":612:798  function withdraw() external {... */\n    tag_23:\n        /* \"vulncontracts/vuln3.sol\":651:657  uint a */\n      0x00\n        /* \"vulncontracts/vuln3.sol\":660:674  pendingReturns */\n      0x02\n        /* \"vulncontracts/vuln3.sol\":660:686  pendingReturns[msg.sender] */\n      0x00\n        /* \"vulncontracts/vuln3.sol\":675:685  msg.sender */\n      caller\n        /* \"vulncontracts/vuln3.sol\":660:686  pendingReturns[msg.sender] */\n      0xffffffffffffffffffffffffffffffffffffffff\n      and\n      0xffffffffffffffffffffffffffffffffffffffff\n      and\n      dup2\n      mstore\n      0x20\n      add\n      swap1\n      dup2\n      mstore\n      0x20\n      add\n      0x00\n      keccak256\n      sload\n        /* \"vulncontracts/vuln3.sol\":651:686  uint a = pendingReturns[msg.sender] */\n      swap1\n      pop\n        /* \"vulncontracts/vuln3.sol\":706:707  0 */\n      0x00\n        /* \"vulncontracts/vuln3.sol\":704:705  a */\n      dup2\n        /* \"vulncontracts/vuln3.sol\":704:707  a>0 */\n      gt\n        /* \"vulncontracts/vuln3.sol\":696:712  require(a>0,\"0\") */\n      tag_44\n      jumpi\n      mload(0x40)\n      0x08c379a000000000000000000000000000000000000000000000000000000000\n      dup2\n      mstore\n      0x04\n      add\n      tag_45\n      swap1\n      tag_46\n      jump\t// in\n    tag_45:\n      mload(0x40)\n      dup1\n      swap2\n      sub\n      swap1\n      revert\n    tag_44:\n        /* \"vulncontracts/vuln3.sol\":749:750  0 */\n      0x00\n        /* \"vulncontracts/vuln3.sol\":722:736  pendingReturns */\n      0x02\n        /* \"vulncontracts/vuln3.sol\":722:748  pendingReturns[msg.sender] */\n      0x00\n        /* \"vulncontracts/vuln3.sol\":737:747  msg.sender */\n      caller\n        /* \"vulncontracts/vuln3.sol\":722:748  pendingReturns[msg.sender] */\n      0xffffffffffffffffffffffffffffffffffffffff\n      and\n      0xffffffffffffffffffffffffffffffffffffffff\n      and\n      dup2\n      mstore\n      0x20\n      add\n      swap1\n      dup2\n      mstore\n      0x20\n      add\n      0x00\n      keccak256\n        /* \"vulncontracts/vuln3.sol\":722:750  pendingReturns[msg.sender]=0 */\n      dup2\n      swap1\n      sstore\n      pop\n        /* \"vulncontracts/vuln3.sol\":768:778  msg.sender */\n      caller\n        /* \"vulncontracts/vuln3.sol\":760:788  payable(msg.sender).transfer */\n      0xffffffffffffffffffffffffffffffffffffffff\n      and\n        /* \"vulncontracts/vuln3.sol\":760:791  payable(msg.sender).transfer(a) */\n      0x08fc\n        /* \"vulncontracts/vuln3.sol\":789:790  a */\n      dup3\n        /* \"vulncontracts/vuln3.sol\":760:791  payable(msg.sender).transfer(a) */\n      swap1\n      dup2\n      iszero\n      mul\n      swap1\n      mload(0x40)\n      0x00\n      mload(0x40)\n      dup1\n      dup4\n      sub\n      dup2\n      dup6\n      dup9\n      dup9\n      call\n      swap4\n      pop\n      pop\n      pop\n      pop\n      iszero\n      dup1\n      iszero\n      tag_48\n      jumpi\n      returndatacopy(0x00, 0x00, returndatasize)\n      revert(0x00, returndatasize)\n    tag_48:\n      pop\n        /* \"vulncontracts/vuln3.sol\":641:798  {... */\n      pop\n        /* \"vulncontracts/vuln3.sol\":612:798  function withdraw() external {... */\n      jump\t// out\n        /* \"vulncontracts/vuln3.sol\":89:117  address public highestBidder */\n    tag_26:\n      0x00\n      0x00\n      swap1\n      sload\n      swap1\n      0x0100\n      exp\n      swap1\n      div\n      0xffffffffffffffffffffffffffffffffffffffff\n      and\n      dup2\n      jump\t// out\n        /* \"vulncontracts/vuln3.sol\":123:148  uint256 public highestBid */\n    tag_31:\n      sload(0x01)\n      dup2\n      jump\t// out\n        /* \"#utility.yul\":88:205   */\n    tag_50:\n        /* \"#utility.yul\":197:198   */\n      0x00\n        /* \"#utility.yul\":194:195   */\n      0x00\n        /* \"#utility.yul\":187:199   */\n      revert\n        /* \"#utility.yul\":334:460   */\n    tag_52:\n        /* \"#utility.yul\":371:378   */\n      0x00\n        /* \"#utility.yul\":411:453   */\n      0xffffffffffffffffffffffffffffffffffffffff\n        /* \"#utility.yul\":404:409   */\n      dup3\n        /* \"#utility.yul\":400:454   */\n      and\n        /* \"#utility.yul\":389:454   */\n      swap1\n      pop\n        /* \"#utility.yul\":334:460   */\n      swap2\n      swap1\n      pop\n      jump\t// out\n        /* \"#utility.yul\":466:562   */\n    tag_53:\n        /* \"#utility.yul\":503:510   */\n      0x00\n        /* \"#utility.yul\":532:556   */\n      tag_73\n        /* \"#utility.yul\":550:555   */\n      dup3\n        /* \"#utility.yul\":532:556   */\n      tag_52\n      jump\t// in\n    tag_73:\n        /* \"#utility.yul\":521:556   */\n      swap1\n      pop\n        /* \"#utility.yul\":466:562   */\n      swap2\n      swap1\n      pop\n      jump\t// out\n        /* \"#utility.yul\":568:690   */\n    tag_54:\n        /* \"#utility.yul\":641:665   */\n      tag_75\n        /* \"#utility.yul\":659:664   */\n      dup2\n        /* \"#utility.yul\":641:665   */\n      tag_53\n      jump\t// in\n    tag_75:\n        /* \"#utility.yul\":634:639   */\n      dup2\n        /* \"#utility.yul\":631:666   */\n      eq\n        /* \"#utility.yul\":621:684   */\n      tag_76\n      jumpi\n        /* \"#utility.yul\":680:681   */\n      0x00\n        /* \"#utility.yul\":677:678   */\n      0x00\n        /* \"#utility.yul\":670:682   */\n      revert\n        /* \"#utility.yul\":621:684   */\n    tag_76:\n        /* \"#utility.yul\":568:690   */\n      pop\n      jump\t// out\n        /* \"#utility.yul\":696:835   */\n    tag_55:\n        /* \"#utility.yul\":742:747   */\n      0x00\n        /* \"#utility.yul\":780:786   */\n      dup2\n        /* \"#utility.yul\":767:787   */\n      calldataload\n        /* \"#utility.yul\":758:787   */\n      swap1\n      pop\n        /* \"#utility.yul\":796:829   */\n      tag_78\n        /* \"#utility.yul\":823:828   */\n      dup2\n        /* \"#utility.yul\":796:829   */\n      tag_54\n      jump\t// in\n    tag_78:\n        /* \"#utility.yul\":696:835   */\n      swap3\n      swap2\n      pop\n      pop\n      jump\t// out\n        /* \"#utility.yul\":841:1170   */\n    tag_13:\n        /* \"#utility.yul\":900:906   */\n      0x00\n        /* \"#utility.yul\":949:951   */\n      0x20\n        /* \"#utility.yul\":937:946   */\n      dup3\n        /* \"#utility.yul\":928:935   */\n      dup5\n        /* \"#utility.yul\":924:947   */\n      sub\n        /* \"#utility.yul\":920:952   */\n      slt\n        /* \"#utility.yul\":917:1036   */\n      iszero\n      tag_80\n      jumpi\n        /* \"#utility.yul\":955:1034   */\n      tag_81\n      tag_50\n      jump\t// in\n    tag_81:\n        /* \"#utility.yul\":917:1036   */\n    tag_80:\n        /* \"#utility.yul\":1075:1076   */\n      0x00\n        /* \"#utility.yul\":1100:1153   */\n      tag_82\n        /* \"#utility.yul\":1145:1152   */\n      dup5\n        /* \"#utility.yul\":1136:1142   */\n      dup3\n        /* \"#utility.yul\":1125:1134   */\n      dup6\n        /* \"#utility.yul\":1121:1143   */\n      add\n        /* \"#utility.yul\":1100:1153   */\n      tag_55\n      jump\t// in\n    tag_82:\n        /* \"#utility.yul\":1090:1153   */\n      swap2\n      pop\n        /* \"#utility.yul\":1046:1163   */\n      pop\n        /* \"#utility.yul\":841:1170   */\n      swap3\n      swap2\n      pop\n      pop\n      jump\t// out\n        /* \"#utility.yul\":1176:1253   */\n    tag_56:\n        /* \"#utility.yul\":1213:1220   */\n      0x00\n        /* \"#utility.yul\":1242:1247   */\n      dup2\n        /* \"#utility.yul\":1231:1247   */\n      swap1\n      pop\n        /* \"#utility.yul\":1176:1253   */\n      swap2\n      swap1\n      pop\n      jump\t// out\n        /* \"#utility.yul\":1259:1377   */\n    tag_57:\n        /* \"#utility.yul\":1346:1370   */\n      tag_85\n        /* \"#utility.yul\":1364:1369   */\n      dup2\n        /* \"#utility.yul\":1346:1370   */\n      tag_56\n      jump\t// in\n    tag_85:\n        /* \"#utility.yul\":1341:1344   */\n      dup3\n        /* \"#utility.yul\":1334:1371   */\n      mstore\n        /* \"#utility.yul\":1259:1377   */\n      pop\n      pop\n      jump\t// out\n        /* \"#utility.yul\":1383:1605   */\n    tag_16:\n        /* \"#utility.yul\":1476:1480   */\n      0x00\n        /* \"#utility.yul\":1514:1516   */\n      0x20\n        /* \"#utility.yul\":1503:1512   */\n      dup3\n        /* \"#utility.yul\":1499:1517   */\n      add\n        /* \"#utility.yul\":1491:1517   */\n      swap1\n      pop\n        /* \"#utility.yul\":1527:1598   */\n      tag_87\n        /* \"#utility.yul\":1595:1596   */\n      0x00\n        /* \"#utility.yul\":1584:1593   */\n      dup4\n        /* \"#utility.yul\":1580:1597   */\n      add\n        /* \"#utility.yul\":1571:1577   */\n      dup5\n        /* \"#utility.yul\":1527:1598   */\n      tag_57\n      jump\t// in\n    tag_87:\n        /* \"#utility.yul\":1383:1605   */\n      swap3\n      swap2\n      pop\n      pop\n      jump\t// out\n        /* \"#utility.yul\":1611:1729   */\n    tag_58:\n        /* \"#utility.yul\":1698:1722   */\n      tag_89\n        /* \"#utility.yul\":1716:1721   */\n      dup2\n        /* \"#utility.yul\":1698:1722   */\n      tag_53\n      jump\t// in\n    tag_89:\n        /* \"#utility.yul\":1693:1696   */\n      dup3\n        /* \"#utility.yul\":1686:1723   */\n      mstore\n        /* \"#utility.yul\":1611:1729   */\n      pop\n      pop\n      jump\t// out\n        /* \"#utility.yul\":1735:1957   */\n    tag_28:\n        /* \"#utility.yul\":1828:1832   */\n      0x00\n        /* \"#utility.yul\":1866:1868   */\n      0x20\n        /* \"#utility.yul\":1855:1864   */\n      dup3\n        /* \"#utility.yul\":1851:1869   */\n      add\n        /* \"#utility.yul\":1843:1869   */\n      swap1\n      pop\n        /* \"#utility.yul\":1879:1950   */\n      tag_91\n        /* \"#utility.yul\":1947:1948   */\n      0x00\n        /* \"#utility.yul\":1936:1945   */\n      dup4\n        /* \"#utility.yul\":1932:1949   */\n      add\n        /* \"#utility.yul\":1923:1929   */\n      dup5\n        /* \"#utility.yul\":1879:1950   */\n      tag_58\n      jump\t// in\n    tag_91:\n        /* \"#utility.yul\":1735:1957   */\n      swap3\n      swap2\n      pop\n      pop\n      jump\t// out\n        /* \"#utility.yul\":1963:2132   */\n    tag_59:\n        /* \"#utility.yul\":2047:2058   */\n      0x00\n        /* \"#utility.yul\":2081:2087   */\n      dup3\n        /* \"#utility.yul\":2076:2079   */\n      dup3\n        /* \"#utility.yul\":2069:2088   */\n      mstore\n        /* \"#utility.yul\":2121:2125   */\n      0x20\n        /* \"#utility.yul\":2116:2119   */\n      dup3\n        /* \"#utility.yul\":2112:2126   */\n      add\n        /* \"#utility.yul\":2097:2126   */\n      swap1\n      pop\n        /* \"#utility.yul\":1963:2132   */\n      swap3\n      swap2\n      pop\n      pop\n      jump\t// out\n        /* \"#utility.yul\":2138:2293   */\n    tag_60:\n        /* \"#utility.yul\":2278:2285   */\n      0x656e646564000000000000000000000000000000000000000000000000000000\n        /* \"#utility.yul\":2274:2275   */\n      0x00\n        /* \"#utility.yul\":2266:2272   */\n      dup3\n        /* \"#utility.yul\":2262:2276   */\n      add\n        /* \"#utility.yul\":2255:2286   */\n      mstore\n        /* \"#utility.yul\":2138:2293   */\n      pop\n      jump\t// out\n        /* \"#utility.yul\":2299:2664   */\n    tag_61:\n        /* \"#utility.yul\":2441:2444   */\n      0x00\n        /* \"#utility.yul\":2462:2528   */\n      tag_95\n        /* \"#utility.yul\":2526:2527   */\n      0x05\n        /* \"#utility.yul\":2521:2524   */\n      dup4\n        /* \"#utility.yul\":2462:2528   */\n      tag_59\n      jump\t// in\n    tag_95:\n        /* \"#utility.yul\":2455:2528   */\n      swap2\n      pop\n        /* \"#utility.yul\":2537:2630   */\n      tag_96\n        /* \"#utility.yul\":2626:2629   */\n      dup3\n        /* \"#utility.yul\":2537:2630   */\n      tag_60\n      jump\t// in\n    tag_96:\n        /* \"#utility.yul\":2655:2657   */\n      0x20\n        /* \"#utility.yul\":2650:2653   */\n      dup3\n        /* \"#utility.yul\":2646:2658   */\n      add\n        /* \"#utility.yul\":2639:2658   */\n      swap1\n      pop\n        /* \"#utility.yul\":2299:2664   */\n      swap2\n      swap1\n      pop\n      jump\t// out\n        /* \"#utility.yul\":2670:3089   */\n    tag_36:\n        /* \"#utility.yul\":2836:2840   */\n      0x00\n        /* \"#utility.yul\":2874:2876   */\n      0x20\n        /* \"#utility.yul\":2863:2872   */\n      dup3\n        /* \"#utility.yul\":2859:2877   */\n      add\n        /* \"#utility.yul\":2851:2877   */\n      swap1\n      pop\n        /* \"#utility.yul\":2923:2932   */\n      dup2\n        /* \"#utility.yul\":2917:2921   */\n      dup2\n        /* \"#utility.yul\":2913:2933   */\n      sub\n        /* \"#utility.yul\":2909:2910   */\n      0x00\n        /* \"#utility.yul\":2898:2907   */\n      dup4\n        /* \"#utility.yul\":2894:2911   */\n      add\n        /* \"#utility.yul\":2887:2934   */\n      mstore\n        /* \"#utility.yul\":2951:3082   */\n      tag_98\n        /* \"#utility.yul\":3077:3081   */\n      dup2\n        /* \"#utility.yul\":2951:3082   */\n      tag_61\n      jump\t// in\n    tag_98:\n        /* \"#utility.yul\":2943:3082   */\n      swap1\n      pop\n        /* \"#utility.yul\":2670:3089   */\n      swap2\n      swap1\n      pop\n      jump\t// out\n        /* \"#utility.yul\":3095:3252   */\n    tag_62:\n        /* \"#utility.yul\":3235:3244   */\n      0x746f6f206c6f7700000000000000000000000000000000000000000000000000\n        /* \"#utility.yul\":3231:3232   */\n      0x00\n        /* \"#utility.yul\":3223:3229   */\n      dup3\n        /* \"#utility.yul\":3219:3233   */\n      add\n        /* \"#utility.yul\":3212:3245   */\n      mstore\n        /* \"#utility.yul\":3095:3252   */\n      pop\n      jump\t// out\n        /* \"#utility.yul\":3258:3623   */\n    tag_63:\n        /* \"#utility.yul\":3400:3403   */\n      0x00\n        /* \"#utility.yul\":3421:3487   */\n      tag_101\n        /* \"#utility.yul\":3485:3486   */\n      0x07\n        /* \"#utility.yul\":3480:3483   */\n      dup4\n        /* \"#utility.yul\":3421:3487   */\n      tag_59\n      jump\t// in\n    tag_101:\n        /* \"#utility.yul\":3414:3487   */\n      swap2\n      pop\n        /* \"#utility.yul\":3496:3589   */\n      tag_102\n        /* \"#utility.yul\":3585:3588   */\n      dup3\n        /* \"#utility.yul\":3496:3589   */\n      tag_62\n      jump\t// in\n    tag_102:\n        /* \"#utility.yul\":3614:3616   */\n      0x20\n        /* \"#utility.yul\":3609:3612   */\n      dup3\n        /* \"#utility.yul\":3605:3617   */\n      add\n        /* \"#utility.yul\":3598:3617   */\n      swap1\n      pop\n        /* \"#utility.yul\":3258:3623   */\n      swap2\n      swap1\n      pop\n      jump\t// out\n        /* \"#utility.yul\":3629:4048   */\n    tag_39:\n        /* \"#utility.yul\":3795:3799   */\n      0x00\n        /* \"#utility.yul\":3833:3835   */\n      0x20\n        /* \"#utility.yul\":3822:3831   */\n      dup3\n        /* \"#utility.yul\":3818:3836   */\n      add\n        /* \"#utility.yul\":3810:3836   */\n      swap1\n      pop\n        /* \"#utility.yul\":3882:3891   */\n      dup2\n        /* \"#utility.yul\":3876:3880   */\n      dup2\n        /* \"#utility.yul\":3872:3892   */\n      sub\n        /* \"#utility.yul\":3868:3869   */\n      0x00\n        /* \"#utility.yul\":3857:3866   */\n      dup4\n        /* \"#utility.yul\":3853:3870   */\n      add\n        /* \"#utility.yul\":3846:3893   */\n      mstore\n        /* \"#utility.yul\":3910:4041   */\n      tag_104\n        /* \"#utility.yul\":4036:4040   */\n      dup2\n        /* \"#utility.yul\":3910:4041   */\n      tag_63\n      jump\t// in\n    tag_104:\n        /* \"#utility.yul\":3902:4041   */\n      swap1\n      pop\n        /* \"#utility.yul\":3629:4048   */\n      swap2\n      swap1\n      pop\n      jump\t// out\n        /* \"#utility.yul\":4054:4234   */\n    tag_64:\n        /* \"#utility.yul\":4102:4179   */\n      0x4e487b7100000000000000000000000000000000000000000000000000000000\n        /* \"#utility.yul\":4099:4100   */\n      0x00\n        /* \"#utility.yul\":4092:4180   */\n      mstore\n        /* \"#utility.yul\":4199:4203   */\n      0x11\n        /* \"#utility.yul\":4196:4197   */\n      0x04\n        /* \"#utility.yul\":4189:4204   */\n      mstore\n        /* \"#utility.yul\":4223:4227   */\n      0x24\n        /* \"#utility.yul\":4220:4221   */\n      0x00\n        /* \"#utility.yul\":4213:4228   */\n      revert\n        /* \"#utility.yul\":4240:4431   */\n    tag_42:\n        /* \"#utility.yul\":4280:4283   */\n      0x00\n        /* \"#utility.yul\":4299:4319   */\n      tag_107\n        /* \"#utility.yul\":4317:4318   */\n      dup3\n        /* \"#utility.yul\":4299:4319   */\n      tag_56\n      jump\t// in\n    tag_107:\n        /* \"#utility.yul\":4294:4319   */\n      swap2\n      pop\n        /* \"#utility.yul\":4333:4353   */\n      tag_108\n        /* \"#utility.yul\":4351:4352   */\n      dup4\n        /* \"#utility.yul\":4333:4353   */\n      tag_56\n      jump\t// in\n    tag_108:\n        /* \"#utility.yul\":4328:4353   */\n      swap3\n      pop\n        /* \"#utility.yul\":4376:4377   */\n      dup3\n        /* \"#utility.yul\":4373:4374   */\n      dup3\n        /* \"#utility.yul\":4369:4378   */\n      add\n        /* \"#utility.yul\":4362:4378   */\n      swap1\n      pop\n        /* \"#utility.yul\":4397:4400   */\n      dup1\n        /* \"#utility.yul\":4394:4395   */\n      dup3\n        /* \"#utility.yul\":4391:4401   */\n      gt\n        /* \"#utility.yul\":4388:4424   */\n      iszero\n      tag_109\n      jumpi\n        /* \"#utility.yul\":4404:4422   */\n      tag_110\n      tag_64\n      jump\t// in\n    tag_110:\n        /* \"#utility.yul\":4388:4424   */\n    tag_109:\n        /* \"#utility.yul\":4240:4431   */\n      swap3\n      swap2\n      pop\n      pop\n      jump\t// out\n        /* \"#utility.yul\":4437:4588   */\n    tag_65:\n        /* \"#utility.yul\":4577:4580   */\n      0x3000000000000000000000000000000000000000000000000000000000000000\n        /* \"#utility.yul\":4573:4574   */\n      0x00\n        /* \"#utility.yul\":4565:4571   */\n      dup3\n        /* \"#utility.yul\":4561:4575   */\n      add\n        /* \"#utility.yul\":4554:4581   */\n      mstore\n        /* \"#utility.yul\":4437:4588   */\n      pop\n      jump\t// out\n        /* \"#utility.yul\":4594:4959   */\n    tag_66:\n        /* \"#utility.yul\":4736:4739   */\n      0x00\n        /* \"#utility.yul\":4757:4823   */\n      tag_113\n        /* \"#utility.yul\":4821:4822   */\n      0x01\n        /* \"#utility.yul\":4816:4819   */\n      dup4\n        /* \"#utility.yul\":4757:4823   */\n      tag_59\n      jump\t// in\n    tag_113:\n        /* \"#utility.yul\":4750:4823   */\n      swap2\n      pop\n        /* \"#utility.yul\":4832:4925   */\n      tag_114\n        /* \"#utility.yul\":4921:4924   */\n      dup3\n        /* \"#utility.yul\":4832:4925   */\n      tag_65\n      jump\t// in\n    tag_114:\n        /* \"#utility.yul\":4950:4952   */\n      0x20\n        /* \"#utility.yul\":4945:4948   */\n      dup3\n        /* \"#utility.yul\":4941:4953   */\n      add\n        /* \"#utility.yul\":4934:4953   */\n      swap1\n      pop\n        /* \"#utility.yul\":4594:4959   */\n      swap2\n      swap1\n      pop\n      jump\t// out\n        /* \"#utility.yul\":4965:5384   */\n    tag_46:\n        /* \"#utility.yul\":5131:5135   */\n      0x00\n        /* \"#utility.yul\":5169:5171   */\n      0x20\n        /* \"#utility.yul\":5158:5167   */\n      dup3\n        /* \"#utility.yul\":5154:5172   */\n      add\n        /* \"#utility.yul\":5146:5172   */\n      swap1\n      pop\n        /* \"#utility.yul\":5218:5227   */\n      dup2\n        /* \"#utility.yul\":5212:5216   */\n      dup2\n        /* \"#utility.yul\":5208:5228   */\n      sub\n        /* \"#utility.yul\":5204:5205   */\n      0x00\n        /* \"#utility.yul\":5193:5202   */\n      dup4\n        /* \"#utility.yul\":5189:5206   */\n      add\n        /* \"#utility.yul\":5182:5229   */\n      mstore\n        /* \"#utility.yul\":5246:5377   */\n      tag_116\n        /* \"#utility.yul\":5372:5376   */\n      dup2\n        /* \"#utility.yul\":5246:5377   */\n      tag_66\n      jump\t// in\n    tag_116:\n        /* \"#utility.yul\":5238:5377   */\n      swap1\n      pop\n        /* \"#utility.yul\":4965:5384   */\n      swap2\n      swap1\n      pop\n      jump\t// out\n\n    auxdata: 0xa26469706673582212203b0461f56c1934bc06ee5aed2a42549c1e90d480fca836cd129c9a42ee69a59764736f6c634300081e0033\n}\n",
				"bytecode": {
					"linkReferences": {},
					"object": "60a060405234801561000f575f5ffd5b506040516107f93803806107f983398181016040528101906100319190610081565b804261003d91906100d9565b608081815250505061010c565b5f5ffd5b5f819050919050565b6100608161004e565b811461006a575f5ffd5b50565b5f8151905061007b81610057565b92915050565b5f602082840312156100965761009561004a565b5b5f6100a38482850161006d565b91505092915050565b7f4e487b71000000000000000000000000000000000000000000000000000000005f52601160045260245ffd5b5f6100e38261004e565b91506100ee8361004e565b9250828201905080821115610106576101056100ac565b5b92915050565b6080516106ce61012b5f395f818161013401526102b601526106ce5ff3fe608060405260043610610054575f3560e01c80631998aeef1461005857806326b387bb146100625780632a24f46c1461009e5780633ccfd60b146100c857806391f90157146100de578063d57bde7914610108575b5f5ffd5b610060610132565b005b34801561006d575f5ffd5b506100886004803603810190610083919061046c565b61029f565b60405161009591906104af565b60405180910390f35b3480156100a9575f5ffd5b506100b26102b4565b6040516100bf91906104af565b60405180910390f35b3480156100d3575f5ffd5b506100dc6102d8565b005b3480156100e9575f5ffd5b506100f26103e4565b6040516100ff91906104d7565b60405180910390f35b348015610113575f5ffd5b5061011c610408565b60405161012991906104af565b60405180910390f35b7f00000000000000000000000000000000000000000000000000000000000000004210610194576040517f08c379a000000000000000000000000000000000000000000000000000000000815260040161018b9061054a565b60405180910390fd5b60015434116101d8576040517f08c379a00000000000000000000000000000000000000000000000000000000081526004016101cf906105b2565b60405180910390fd5b5f600154146102575760015460025f5f5f9054906101000a900473ffffffffffffffffffffffffffffffffffffffff1673ffffffffffffffffffffffffffffffffffffffff1673ffffffffffffffffffffffffffffffffffffffff1681526020019081526020015f205f82825461024f91906105fd565b925050819055505b335f5f6101000a81548173ffffffffffffffffffffffffffffffffffffffff021916908373ffffffffffffffffffffffffffffffffffffffff16021790555034600181905550565b6002602052805f5260405f205f915090505481565b7f000000000000000000000000000000000000000000000000000000000000000081565b5f60025f3373ffffffffffffffffffffffffffffffffffffffff1673ffffffffffffffffffffffffffffffffffffffff1681526020019081526020015f205490505f811161035b576040517f08c379a00000000000000000000000000000000000000000000000000000000081526004016103529061067a565b60405180910390fd5b5f60025f3373ffffffffffffffffffffffffffffffffffffffff1673ffffffffffffffffffffffffffffffffffffffff1681526020019081526020015f20819055503373ffffffffffffffffffffffffffffffffffffffff166108fc8290811502906040515f60405180830381858888f193505050501580156103e0573d5f5f3e3d5ffd5b5050565b5f5f9054906101000a900473ffffffffffffffffffffffffffffffffffffffff1681565b60015481565b5f5ffd5b5f73ffffffffffffffffffffffffffffffffffffffff82169050919050565b5f61043b82610412565b9050919050565b61044b81610431565b8114610455575f5ffd5b50565b5f8135905061046681610442565b92915050565b5f602082840312156104815761048061040e565b5b5f61048e84828501610458565b91505092915050565b5f819050919050565b6104a981610497565b82525050565b5f6020820190506104c25f8301846104a0565b92915050565b6104d181610431565b82525050565b5f6020820190506104ea5f8301846104c8565b92915050565b5f82825260208201905092915050565b7f656e6465640000000000000000000000000000000000000000000000000000005f82015250565b5f6105346005836104f0565b915061053f82610500565b602082019050919050565b5f6020820190508181035f83015261056181610528565b9050919050565b7f746f6f206c6f77000000000000000000000000000000000000000000000000005f82015250565b5f61059c6007836104f0565b91506105a782610568565b602082019050919050565b5f6020820190508181035f8301526105c981610590565b9050919050565b7f4e487b71000000000000000000000000000000000000000000000000000000005f52601160045260245ffd5b5f61060782610497565b915061061283610497565b925082820190508082111561062a576106296105d0565b5b92915050565b7f30000000000000000000000000000000000000000000000000000000000000005f82015250565b5f6106646001836104f0565b915061066f82610630565b602082019050919050565b5f6020820190508181035f83015261069181610658565b905091905056fea26469706673582212203b0461f56c1934bc06ee5aed2a42549c1e90d480fca836cd129c9a42ee69a59764736f6c634300081e0033",
					"opcodes": "PUSH1 0xA0 PUSH1 0x40 MSTORE CALLVALUE DUP1 ISZERO PUSH2 0xF JUMPI PUSH0 PUSH0 REVERT JUMPDEST POP PUSH1 0x40 MLOAD PUSH2 0x7F9 CODESIZE SUB DUP1 PUSH2 0x7F9 DUP4 CODECOPY DUP2 DUP2 ADD PUSH1 0x40 MSTORE DUP2 ADD SWAP1 PUSH2 0x31 SWAP2 SWAP1 PUSH2 0x81 JUMP JUMPDEST DUP1 TIMESTAMP PUSH2 0x3D SWAP2 SWAP1 PUSH2 0xD9 JUMP JUMPDEST PUSH1 0x80 DUP2 DUP2 MSTORE POP POP POP PUSH2 0x10C JUMP JUMPDEST PUSH0 PUSH0 REVERT JUMPDEST PUSH0 DUP2 SWAP1 POP SWAP2 SWAP1 POP JUMP JUMPDEST PUSH2 0x60 DUP2 PUSH2 0x4E JUMP JUMPDEST DUP2 EQ PUSH2 0x6A JUMPI PUSH0 PUSH0 REVERT JUMPDEST POP JUMP JUMPDEST PUSH0 DUP2 MLOAD SWAP1 POP PUSH2 0x7B DUP2 PUSH2 0x57 JUMP JUMPDEST SWAP3 SWAP2 POP POP JUMP JUMPDEST PUSH0 PUSH1 0x20 DUP3 DUP5 SUB SLT ISZERO PUSH2 0x96 JUMPI PUSH2 0x95 PUSH2 0x4A JUMP JUMPDEST JUMPDEST PUSH0 PUSH2 0xA3 DUP5 DUP3 DUP6 ADD PUSH2 0x6D JUMP JUMPDEST SWAP2 POP POP SWAP3 SWAP2 POP POP JUMP JUMPDEST PUSH32 0x4E487B7100000000000000000000000000000000000000000000000000000000 PUSH0 MSTORE PUSH1 0x11 PUSH1 0x4 MSTORE PUSH1 0x24 PUSH0 REVERT JUMPDEST PUSH0 PUSH2 0xE3 DUP3 PUSH2 0x4E JUMP JUMPDEST SWAP2 POP PUSH2 0xEE DUP4 PUSH2 0x4E JUMP JUMPDEST SWAP3 POP DUP3 DUP3 ADD SWAP1 POP DUP1 DUP3 GT ISZERO PUSH2 0x106 JUMPI PUSH2 0x105 PUSH2 0xAC JUMP JUMPDEST JUMPDEST SWAP3 SWAP2 POP POP JUMP JUMPDEST PUSH1 0x80 MLOAD PUSH2 0x6CE PUSH2 0x12B PUSH0 CODECOPY PUSH0 DUP2 DUP2 PUSH2 0x134 ADD MSTORE PUSH2 0x2B6 ADD MSTORE PUSH2 0x6CE PUSH0 RETURN INVALID PUSH1 0x80 PUSH1 0x40 MSTORE PUSH1 0x4 CALLDATASIZE LT PUSH2 0x54 JUMPI PUSH0 CALLDATALOAD PUSH1 0xE0 SHR DUP1 PUSH4 0x1998AEEF EQ PUSH2 0x58 JUMPI DUP1 PUSH4 0x26B387BB EQ PUSH2 0x62 JUMPI DUP1 PUSH4 0x2A24F46C EQ PUSH2 0x9E JUMPI DUP1 PUSH4 0x3CCFD60B EQ PUSH2 0xC8 JUMPI DUP1 PUSH4 0x91F90157 EQ PUSH2 0xDE JUMPI DUP1 PUSH4 0xD57BDE79 EQ PUSH2 0x108 JUMPI JUMPDEST PUSH0 PUSH0 REVERT JUMPDEST PUSH2 0x60 PUSH2 0x132 JUMP JUMPDEST STOP JUMPDEST CALLVALUE DUP1 ISZERO PUSH2 0x6D JUMPI PUSH0 PUSH0 REVERT JUMPDEST POP PUSH2 0x88 PUSH1 0x4 DUP1 CALLDATASIZE SUB DUP2 ADD SWAP1 PUSH2 0x83 SWAP2 SWAP1 PUSH2 0x46C JUMP JUMPDEST PUSH2 0x29F JUMP JUMPDEST PUSH1 0x40 MLOAD PUSH2 0x95 SWAP2 SWAP1 PUSH2 0x4AF JUMP JUMPDEST PUSH1 0x40 MLOAD DUP1 SWAP2 SUB SWAP1 RETURN JUMPDEST CALLVALUE DUP1 ISZERO PUSH2 0xA9 JUMPI PUSH0 PUSH0 REVERT JUMPDEST POP PUSH2 0xB2 PUSH2 0x2B4 JUMP JUMPDEST PUSH1 0x40 MLOAD PUSH2 0xBF SWAP2 SWAP1 PUSH2 0x4AF JUMP JUMPDEST PUSH1 0x40 MLOAD DUP1 SWAP2 SUB SWAP1 RETURN JUMPDEST CALLVALUE DUP1 ISZERO PUSH2 0xD3 JUMPI PUSH0 PUSH0 REVERT JUMPDEST POP PUSH2 0xDC PUSH2 0x2D8 JUMP JUMPDEST STOP JUMPDEST CALLVALUE DUP1 ISZERO PUSH2 0xE9 JUMPI PUSH0 PUSH0 REVERT JUMPDEST POP PUSH2 0xF2 PUSH2 0x3E4 JUMP JUMPDEST PUSH1 0x40 MLOAD PUSH2 0xFF SWAP2 SWAP1 PUSH2 0x4D7 JUMP JUMPDEST PUSH1 0x40 MLOAD DUP1 SWAP2 SUB SWAP1 RETURN JUMPDEST CALLVALUE DUP1 ISZERO PUSH2 0x113 JUMPI PUSH0 PUSH0 REVERT JUMPDEST POP PUSH2 0x11C PUSH2 0x408 JUMP JUMPDEST PUSH1 0x40 MLOAD PUSH2 0x129 SWAP2 SWAP1 PUSH2 0x4AF JUMP JUMPDEST PUSH1 0x40 MLOAD DUP1 SWAP2 SUB SWAP1 RETURN JUMPDEST PUSH32 0x0 TIMESTAMP LT PUSH2 0x194 JUMPI PUSH1 0x40 MLOAD PUSH32 0x8C379A000000000000000000000000000000000000000000000000000000000 DUP2 MSTORE PUSH1 0x4 ADD PUSH2 0x18B SWAP1 PUSH2 0x54A JUMP JUMPDEST PUSH1 0x40 MLOAD DUP1 SWAP2 SUB SWAP1 REVERT JUMPDEST PUSH1 0x1 SLOAD CALLVALUE GT PUSH2 0x1D8 JUMPI PUSH1 0x40 MLOAD PUSH32 0x8C379A000000000000000000000000000000000000000000000000000000000 DUP2 MSTORE PUSH1 0x4 ADD PUSH2 0x1CF SWAP1 PUSH2 0x5B2 JUMP JUMPDEST PUSH1 0x40 MLOAD DUP1 SWAP2 SUB SWAP1 REVERT JUMPDEST PUSH0 PUSH1 0x1 SLOAD EQ PUSH2 0x257 JUMPI PUSH1 0x1 SLOAD PUSH1 0x2 PUSH0 PUSH0 PUSH0 SWAP1 SLOAD SWAP1 PUSH2 0x100 EXP SWAP1 DIV PUSH20 0xFFFFFFFFFFFFFFFFFFFFFFFFFFFFFFFFFFFFFFFF AND PUSH20 0xFFFFFFFFFFFFFFFFFFFFFFFFFFFFFFFFFFFFFFFF AND PUSH20 0xFFFFFFFFFFFFFFFFFFFFFFFFFFFFFFFFFFFFFFFF AND DUP2 MSTORE PUSH1 0x20 ADD SWAP1 DUP2 MSTORE PUSH1 0x20 ADD PUSH0 KECCAK256 PUSH0 DUP3 DUP3 SLOAD PUSH2 0x24F SWAP2 SWAP1 PUSH2 0x5FD JUMP JUMPDEST SWAP3 POP POP DUP2 SWAP1 SSTORE POP JUMPDEST CALLER PUSH0 PUSH0 PUSH2 0x100 EXP DUP2 SLOAD DUP2 PUSH20 0xFFFFFFFFFFFFFFFFFFFFFFFFFFFFFFFFFFFFFFFF MUL NOT AND SWAP1 DUP4 PUSH20 0xFFFFFFFFFFFFFFFFFFFFFFFFFFFFFFFFFFFFFFFF AND MUL OR SWAP1 SSTORE POP CALLVALUE PUSH1 0x1 DUP2 SWAP1 SSTORE POP JUMP JUMPDEST PUSH1 0x2 PUSH1 0x20 MSTORE DUP1 PUSH0 MSTORE PUSH1 0x40 PUSH0 KECCAK256 PUSH0 SWAP2 POP SWAP1 POP SLOAD DUP2 JUMP JUMPDEST PUSH32 0x0 DUP2 JUMP JUMPDEST PUSH0 PUSH1 0x2 PUSH0 CALLER PUSH20 0xFFFFFFFFFFFFFFFFFFFFFFFFFFFFFFFFFFFFFFFF AND PUSH20 0xFFFFFFFFFFFFFFFFFFFFFFFFFFFFFFFFFFFFFFFF AND DUP2 MSTORE PUSH1 0x20 ADD SWAP1 DUP2 MSTORE PUSH1 0x20 ADD PUSH0 KECCAK256 SLOAD SWAP1 POP PUSH0 DUP2 GT PUSH2 0x35B JUMPI PUSH1 0x40 MLOAD PUSH32 0x8C379A000000000000000000000000000000000000000000000000000000000 DUP2 MSTORE PUSH1 0x4 ADD PUSH2 0x352 SWAP1 PUSH2 0x67A JUMP JUMPDEST PUSH1 0x40 MLOAD DUP1 SWAP2 SUB SWAP1 REVERT JUMPDEST PUSH0 PUSH1 0x2 PUSH0 CALLER PUSH20 0xFFFFFFFFFFFFFFFFFFFFFFFFFFFFFFFFFFFFFFFF AND PUSH20 0xFFFFFFFFFFFFFFFFFFFFFFFFFFFFFFFFFFFFFFFF AND DUP2 MSTORE PUSH1 0x20 ADD SWAP1 DUP2 MSTORE PUSH1 0x20 ADD PUSH0 KECCAK256 DUP2 SWAP1 SSTORE POP CALLER PUSH20 0xFFFFFFFFFFFFFFFFFFFFFFFFFFFFFFFFFFFFFFFF AND PUSH2 0x8FC DUP3 SWAP1 DUP2 ISZERO MUL SWAP1 PUSH1 0x40 MLOAD PUSH0 PUSH1 0x40 MLOAD DUP1 DUP4 SUB DUP2 DUP6 DUP9 DUP9 CALL SWAP4 POP POP POP POP ISZERO DUP1 ISZERO PUSH2 0x3E0 JUMPI RETURNDATASIZE PUSH0 PUSH0 RETURNDATACOPY RETURNDATASIZE PUSH0 REVERT JUMPDEST POP POP JUMP JUMPDEST PUSH0 PUSH0 SWAP1 SLOAD SWAP1 PUSH2 0x100 EXP SWAP1 DIV PUSH20 0xFFFFFFFFFFFFFFFFFFFFFFFFFFFFFFFFFFFFFFFF AND DUP2 JUMP JUMPDEST PUSH1 0x1 SLOAD DUP2 JUMP JUMPDEST PUSH0 PUSH0 REVERT JUMPDEST PUSH0 PUSH20 0xFFFFFFFFFFFFFFFFFFFFFFFFFFFFFFFFFFFFFFFF DUP3 AND SWAP1 POP SWAP2 SWAP1 POP JUMP JUMPDEST PUSH0 PUSH2 0x43B DUP3 PUSH2 0x412 JUMP JUMPDEST SWAP1 POP SWAP2 SWAP1 POP JUMP JUMPDEST PUSH2 0x44B DUP2 PUSH2 0x431 JUMP JUMPDEST DUP2 EQ PUSH2 0x455 JUMPI PUSH0 PUSH0 REVERT JUMPDEST POP JUMP JUMPDEST PUSH0 DUP2 CALLDATALOAD SWAP1 POP PUSH2 0x466 DUP2 PUSH2 0x442 JUMP JUMPDEST SWAP3 SWAP2 POP POP JUMP JUMPDEST PUSH0 PUSH1 0x20 DUP3 DUP5 SUB SLT ISZERO PUSH2 0x481 JUMPI PUSH2 0x480 PUSH2 0x40E JUMP JUMPDEST JUMPDEST PUSH0 PUSH2 0x48E DUP5 DUP3 DUP6 ADD PUSH2 0x458 JUMP JUMPDEST SWAP2 POP POP SWAP3 SWAP2 POP POP JUMP JUMPDEST PUSH0 DUP2 SWAP1 POP SWAP2 SWAP1 POP JUMP JUMPDEST PUSH2 0x4A9 DUP2 PUSH2 0x497 JUMP JUMPDEST DUP3 MSTORE POP POP JUMP JUMPDEST PUSH0 PUSH1 0x20 DUP3 ADD SWAP1 POP PUSH2 0x4C2 PUSH0 DUP4 ADD DUP5 PUSH2 0x4A0 JUMP JUMPDEST SWAP3 SWAP2 POP POP JUMP JUMPDEST PUSH2 0x4D1 DUP2 PUSH2 0x431 JUMP JUMPDEST DUP3 MSTORE POP POP JUMP JUMPDEST PUSH0 PUSH1 0x20 DUP3 ADD SWAP1 POP PUSH2 0x4EA PUSH0 DUP4 ADD DUP5 PUSH2 0x4C8 JUMP JUMPDEST SWAP3 SWAP2 POP POP JUMP JUMPDEST PUSH0 DUP3 DUP3 MSTORE PUSH1 0x20 DUP3 ADD SWAP1 POP SWAP3 SWAP2 POP POP JUMP JUMPDEST PUSH32 0x656E646564000000000000000000000000000000000000000000000000000000 PUSH0 DUP3 ADD MSTORE POP JUMP JUMPDEST PUSH0 PUSH2 0x534 PUSH1 0x5 DUP4 PUSH2 0x4F0 JUMP JUMPDEST SWAP2 POP PUSH2 0x53F DUP3 PUSH2 0x500 JUMP JUMPDEST PUSH1 0x20 DUP3 ADD SWAP1 POP SWAP2 SWAP1 POP JUMP JUMPDEST PUSH0 PUSH1 0x20 DUP3 ADD SWAP1 POP DUP2 DUP2 SUB PUSH0 DUP4 ADD MSTORE PUSH2 0x561 DUP2 PUSH2 0x528 JUMP JUMPDEST SWAP1 POP SWAP2 SWAP1 POP JUMP JUMPDEST PUSH32 0x746F6F206C6F7700000000000000000000000000000000000000000000000000 PUSH0 DUP3 ADD MSTORE POP JUMP JUMPDEST PUSH0 PUSH2 0x59C PUSH1 0x7 DUP4 PUSH2 0x4F0 JUMP JUMPDEST SWAP2 POP PUSH2 0x5A7 DUP3 PUSH2 0x568 JUMP JUMPDEST PUSH1 0x20 DUP3 ADD SWAP1 POP SWAP2 SWAP1 POP JUMP JUMPDEST PUSH0 PUSH1 0x20 DUP3 ADD SWAP1 POP DUP2 DUP2 SUB PUSH0 DUP4 ADD MSTORE PUSH2 0x5C9 DUP2 PUSH2 0x590 JUMP JUMPDEST SWAP1 POP SWAP2 SWAP1 POP JUMP JUMPDEST PUSH32 0x4E487B7100000000000000000000000000000000000000000000000000000000 PUSH0 MSTORE PUSH1 0x11 PUSH1 0x4 MSTORE PUSH1 0x24 PUSH0 REVERT JUMPDEST PUSH0 PUSH2 0x607 DUP3 PUSH2 0x497 JUMP JUMPDEST SWAP2 POP PUSH2 0x612 DUP4 PUSH2 0x497 JUMP JUMPDEST SWAP3 POP DUP3 DUP3 ADD SWAP1 POP DUP1 DUP3 GT ISZERO PUSH2 0x62A JUMPI PUSH2 0x629 PUSH2 0x5D0 JUMP JUMPDEST JUMPDEST SWAP3 SWAP2 POP POP JUMP JUMPDEST PUSH32 0x3000000000000000000000000000000000000000000000000000000000000000 PUSH0 DUP3 ADD MSTORE POP JUMP JUMPDEST PUSH0 PUSH2 0x664 PUSH1 0x1 DUP4 PUSH2 0x4F0 JUMP JUMPDEST SWAP2 POP PUSH2 0x66F DUP3 PUSH2 0x630 JUMP JUMPDEST PUSH1 0x20 DUP3 ADD SWAP1 POP SWAP2 SWAP1 POP JUMP JUMPDEST PUSH0 PUSH1 0x20 DUP3 ADD SWAP1 POP DUP2 DUP2 SUB PUSH0 DUP4 ADD MSTORE PUSH2 0x691 DUP2 PUSH2 0x658 JUMP JUMPDEST SWAP1 POP SWAP2 SWAP1 POP JUMP INVALID LOG2 PUSH5 0x6970667358 0x22 SLT KECCAK256 EXTCODESIZE DIV PUSH2 0xF56C NOT CALLVALUE 0xBC MOD RETURNCONTRACT 0x5A 0xED 0x2A TIMESTAMP SLOAD SWAP13 0x1E SWAP1 0xD4 DUP1 0xFC 0xA8 CALLDATASIZE 0xCD SLT SWAP13 SWAP11 TIMESTAMP RETURNCONTRACT 0x69 0xA5 SWAP8 PUSH5 0x736F6C6343 STOP ADDMOD 0x1E STOP CALLER "
				},
				"gasEstimates": {
					"creation": {
						"codeDepositCost": "348400",
						"executionCost": "infinite",
						"totalCost": "infinite"
					},
					"external": {
						"auctionEnd()": "infinite",
						"bid()": "infinite",
						"highestBid()": "2513",
						"highestBidder()": "2573",
						"pendingReturns(address)": "2802",
						"withdraw()": "infinite"
					}
				},
				"methodIdentifiers": {
					"auctionEnd()": "2a24f46c",
					"bid()": "1998aeef",
					"highestBid()": "d57bde79",
					"highestBidder()": "91f90157",
					"pendingReturns(address)": "26b387bb",
					"withdraw()": "3ccfd60b"
				}
			},
			"storageLayout": {
				"storage": [
					{
						"astId": 3,
						"contract": "vulncontracts/vuln3.sol:VeryNaiveAuction",
						"label": "highestBidder",
						"offset": 0,
						"slot": "0",
						"type": "t_address"
					},
					{
						"astId": 5,
						"contract": "vulncontracts/vuln3.sol:VeryNaiveAuction",
						"label": "highestBid",
						"offset": 0,
						"slot": "1",
						"type": "t_uint256"
					},
					{
						"astId": 9,
						"contract": "vulncontracts/vuln3.sol:VeryNaiveAuction",
						"label": "pendingReturns",
						"offset": 0,
						"slot": "2",
						"type": "t_mapping(t_address,t_uint256)"
					}
				],
				"types": {
					"t_address": {
						"encoding": "inplace",
						"label": "address",
						"numberOfBytes": "20"
					},
					"t_mapping(t_address,t_uint256)": {
						"encoding": "mapping",
						"key": "t_address",
						"label": "mapping(address => uint256)",
						"numberOfBytes": "32",
						"value": "t_uint256"
					},
					"t_uint256": {
						"encoding": "inplace",
						"label": "uint256",
						"numberOfBytes": "32"
					}
				}
			},
			"userdoc": {
				"kind": "user",
				"methods": {},
				"version": 1
			}
		}
	}
}