{
	"vulncontracts/vuln1.sol": {
		"VulnerableBank": {
			"abi": [
				{
					"inputs": [
						{
							"internalType": "address",
							"name": "",
							"type": "address"
						}
					],
					"name": "balances",
					"outputs": [
						{
							"internalType": "uint256",
							"name": "",
							"type": "uint256"
						}
					],
					"stateMutability": "view",
					"type": "function"
				},
				{
					"inputs": [],
					"name": "deposit",
					"outputs": [],
					"stateMutability": "payable",
					"type": "function"
				},
				{
					"inputs": [],
					"name": "getBalance",
					"outputs": [
						{
							"internalType": "uint256",
							"name": "",
							"type": "uint256"
						}
					],
					"stateMutability": "view",
					"type": "function"
				},
				{
					"inputs": [],
					"name": "withdraw",
					"outputs": [],
					"stateMutability": "nonpayable",
					"type": "function"
				}
			],
			"devdoc": {
				"kind": "dev",
				"methods": {},
				"version": 1
			},
			"evm": {
				"assembly": "    /* \"vulncontracts/vuln1.sol\":57:693  contract VulnerableBank {... */\n  mstore(0x40, 0x80)\n  callvalue\n  dup1\n  iszero\n  tag_1\n  jumpi\n  0x00\n  dup1\n  revert\ntag_1:\n  pop\n  dataSize(sub_0)\n  dup1\n  dataOffset(sub_0)\n  0x00\n  codecopy\n  0x00\n  return\nstop\n\nsub_0: assembly {\n        /* \"vulncontracts/vuln1.sol\":57:693  contract VulnerableBank {... */\n      mstore(0x40, 0x80)\n      jumpi(tag_1, lt(calldatasize, 0x04))\n      shr(0xe0, calldataload(0x00))\n      dup1\n      0x12065fe0\n      eq\n      tag_2\n      jumpi\n      dup1\n      0x27e235e3\n      eq\n      tag_3\n      jumpi\n      dup1\n      0x3ccfd60b\n      eq\n      tag_4\n      jumpi\n      dup1\n      0xd0e30db0\n      eq\n      tag_5\n      jumpi\n    tag_1:\n      0x00\n      dup1\n      revert\n        /* \"vulncontracts/vuln1.sol\":594:691  function getBalance() public view returns (uint256) {... */\n    tag_2:\n      callvalue\n      dup1\n      iszero\n      tag_6\n      jumpi\n      0x00\n      dup1\n      revert\n    tag_6:\n      pop\n      tag_7\n      tag_8\n      jump\t// in\n    tag_7:\n      mload(0x40)\n      tag_9\n      swap2\n      swap1\n      tag_10\n      jump\t// in\n    tag_9:\n      mload(0x40)\n      dup1\n      swap2\n      sub\n      swap1\n      return\n        /* \"vulncontracts/vuln1.sol\":87:130  mapping(address => uint256) public balances */\n    tag_3:\n      callvalue\n      dup1\n      iszero\n      tag_11\n      jumpi\n      0x00\n      dup1\n      revert\n    tag_11:\n      pop\n      tag_12\n      0x04\n      dup1\n      calldatasize\n      sub\n      dup2\n      add\n      swap1\n      tag_13\n      swap2\n      swap1\n      tag_14\n      jump\t// in\n    tag_13:\n      tag_15\n      jump\t// in\n    tag_12:\n      mload(0x40)\n      tag_16\n      swap2\n      swap1\n      tag_10\n      jump\t// in\n    tag_16:\n      mload(0x40)\n      dup1\n      swap2\n      sub\n      swap1\n      return\n        /* \"vulncontracts/vuln1.sol\":227:588  function withdraw() public {... */\n    tag_4:\n      callvalue\n      dup1\n      iszero\n      tag_17\n      jumpi\n      0x00\n      dup1\n      revert\n    tag_17:\n      pop\n      tag_18\n      tag_19\n      jump\t// in\n    tag_18:\n      stop\n        /* \"vulncontracts/vuln1.sol\":137:221  function deposit() public payable {... */\n    tag_5:\n      tag_20\n      tag_21\n      jump\t// in\n    tag_20:\n      stop\n        /* \"vulncontracts/vuln1.sol\":594:691  function getBalance() public view returns (uint256) {... */\n    tag_8:\n        /* \"vulncontracts/vuln1.sol\":637:644  uint256 */\n      0x00\n        /* \"vulncontracts/vuln1.sol\":663:684  address(this).balance */\n      selfbalance\n        /* \"vulncontracts/vuln1.sol\":656:684  return address(this).balance */\n      swap1\n      pop\n        /* \"vulncontracts/vuln1.sol\":594:691  function getBalance() public view returns (uint256) {... */\n      swap1\n      jump\t// out\n        /* \"vulncontracts/vuln1.sol\":87:130  mapping(address => uint256) public balances */\n    tag_15:\n      mstore(0x20, 0x00)\n      dup1\n      0x00\n      mstore\n      keccak256(0x00, 0x40)\n      0x00\n      swap2\n      pop\n      swap1\n      pop\n      sload\n      dup2\n      jump\t// out\n        /* \"vulncontracts/vuln1.sol\":227:588  function withdraw() public {... */\n    tag_19:\n        /* \"vulncontracts/vuln1.sol\":264:275  uint256 bal */\n      0x00\n        /* \"vulncontracts/vuln1.sol\":278:286  balances */\n      dup1\n        /* \"vulncontracts/vuln1.sol\":278:298  balances[msg.sender] */\n      0x00\n        /* \"vulncontracts/vuln1.sol\":287:297  msg.sender */\n      caller\n        /* \"vulncontracts/vuln1.sol\":278:298  balances[msg.sender] */\n      0xffffffffffffffffffffffffffffffffffffffff\n      and\n      0xffffffffffffffffffffffffffffffffffffffff\n      and\n      dup2\n      mstore\n      0x20\n      add\n      swap1\n      dup2\n      mstore\n      0x20\n      add\n      0x00\n      keccak256\n      sload\n        /* \"vulncontracts/vuln1.sol\":264:298  uint256 bal = balances[msg.sender] */\n      swap1\n      pop\n        /* \"vulncontracts/vuln1.sol\":322:323  0 */\n      0x00\n        /* \"vulncontracts/vuln1.sol\":316:319  bal */\n      dup2\n        /* \"vulncontracts/vuln1.sol\":316:323  bal > 0 */\n      gt\n        /* \"vulncontracts/vuln1.sol\":308:347  require(bal > 0, \"Nothing to withdraw\") */\n      tag_24\n      jumpi\n      mload(0x40)\n      0x08c379a000000000000000000000000000000000000000000000000000000000\n      dup2\n      mstore\n      0x04\n      add\n      tag_25\n      swap1\n      tag_26\n      jump\t// in\n    tag_25:\n      mload(0x40)\n      dup1\n      swap2\n      sub\n      swap1\n      revert\n    tag_24:\n        /* \"vulncontracts/vuln1.sol\":453:462  bool sent */\n      0x00\n        /* \"vulncontracts/vuln1.sol\":468:478  msg.sender */\n      caller\n        /* \"vulncontracts/vuln1.sol\":468:483  msg.sender.call */\n      0xffffffffffffffffffffffffffffffffffffffff\n      and\n        /* \"vulncontracts/vuln1.sol\":491:494  bal */\n      dup3\n        /* \"vulncontracts/vuln1.sol\":468:499  msg.sender.call{value: bal}(\"\") */\n      mload(0x40)\n      tag_27\n      swap1\n      tag_28\n      jump\t// in\n    tag_27:\n      0x00\n      mload(0x40)\n      dup1\n      dup4\n      sub\n      dup2\n      dup6\n      dup8\n      gas\n      call\n      swap3\n      pop\n      pop\n      pop\n      returndatasize\n      dup1\n      0x00\n      dup2\n      eq\n      tag_31\n      jumpi\n      mload(0x40)\n      swap2\n      pop\n      and(add(returndatasize, 0x3f), not(0x1f))\n      dup3\n      add\n      0x40\n      mstore\n      returndatasize\n      dup3\n      mstore\n      returndatasize\n      0x00\n      0x20\n      dup5\n      add\n      returndatacopy\n      jump(tag_30)\n    tag_31:\n      0x60\n      swap2\n      pop\n    tag_30:\n      pop\n        /* \"vulncontracts/vuln1.sol\":452:499  (bool sent, ) = msg.sender.call{value: bal}(\"\") */\n      pop\n      swap1\n      pop\n        /* \"vulncontracts/vuln1.sol\":517:521  sent */\n      dup1\n        /* \"vulncontracts/vuln1.sol\":509:546  require(sent, \"Failed to send Ether\") */\n      tag_32\n      jumpi\n      mload(0x40)\n      0x08c379a000000000000000000000000000000000000000000000000000000000\n      dup2\n      mstore\n      0x04\n      add\n      tag_33\n      swap1\n      tag_34\n      jump\t// in\n    tag_33:\n      mload(0x40)\n      dup1\n      swap2\n      sub\n      swap1\n      revert\n    tag_32:\n        /* \"vulncontracts/vuln1.sol\":580:581  0 */\n      0x00\n        /* \"vulncontracts/vuln1.sol\":557:565  balances */\n      dup1\n        /* \"vulncontracts/vuln1.sol\":557:577  balances[msg.sender] */\n      0x00\n        /* \"vulncontracts/vuln1.sol\":566:576  msg.sender */\n      caller\n        /* \"vulncontracts/vuln1.sol\":557:577  balances[msg.sender] */\n      0xffffffffffffffffffffffffffffffffffffffff\n      and\n      0xffffffffffffffffffffffffffffffffffffffff\n      and\n      dup2\n      mstore\n      0x20\n      add\n      swap1\n      dup2\n      mstore\n      0x20\n      add\n      0x00\n      keccak256\n        /* \"vulncontracts/vuln1.sol\":557:581  balances[msg.sender] = 0 */\n      dup2\n      swap1\n      sstore\n      pop\n        /* \"vulncontracts/vuln1.sol\":227:588  function withdraw() public {... */\n      pop\n      pop\n      jump\t// out\n        /* \"vulncontracts/vuln1.sol\":137:221  function deposit() public payable {... */\n    tag_21:\n        /* \"vulncontracts/vuln1.sol\":205:214  msg.value */\n      callvalue\n        /* \"vulncontracts/vuln1.sol\":181:189  balances */\n      0x00\n        /* \"vulncontracts/vuln1.sol\":181:201  balances[msg.sender] */\n      dup1\n        /* \"vulncontracts/vuln1.sol\":190:200  msg.sender */\n      caller\n        /* \"vulncontracts/vuln1.sol\":181:201  balances[msg.sender] */\n      0xffffffffffffffffffffffffffffffffffffffff\n      and\n      0xffffffffffffffffffffffffffffffffffffffff\n      and\n      dup2\n      mstore\n      0x20\n      add\n      swap1\n      dup2\n      mstore\n      0x20\n      add\n      0x00\n      keccak256\n      0x00\n        /* \"vulncontracts/vuln1.sol\":181:214  balances[msg.sender] += msg.value */\n      dup3\n      dup3\n      sload\n      tag_36\n      swap2\n      swap1\n      tag_37\n      jump\t// in\n    tag_36:\n      swap3\n      pop\n      pop\n      dup2\n      swap1\n      sstore\n      pop\n        /* \"vulncontracts/vuln1.sol\":137:221  function deposit() public payable {... */\n      jump\t// out\n        /* \"#utility.yul\":7:146   */\n    tag_39:\n      0x00\n        /* \"#utility.yul\":91:97   */\n      dup2\n        /* \"#utility.yul\":78:98   */\n      calldataload\n        /* \"#utility.yul\":69:98   */\n      swap1\n      pop\n        /* \"#utility.yul\":107:140   */\n      tag_41\n        /* \"#utility.yul\":134:139   */\n      dup2\n        /* \"#utility.yul\":107:140   */\n      tag_42\n      jump\t// in\n    tag_41:\n        /* \"#utility.yul\":59:146   */\n      swap3\n      swap2\n      pop\n      pop\n      jump\t// out\n        /* \"#utility.yul\":152:414   */\n    tag_14:\n      0x00\n        /* \"#utility.yul\":260:262   */\n      0x20\n        /* \"#utility.yul\":248:257   */\n      dup3\n        /* \"#utility.yul\":239:246   */\n      dup5\n        /* \"#utility.yul\":235:258   */\n      sub\n        /* \"#utility.yul\":231:263   */\n      slt\n        /* \"#utility.yul\":228:230   */\n      iszero\n      tag_44\n      jumpi\n        /* \"#utility.yul\":276:277   */\n      0x00\n        /* \"#utility.yul\":273:274   */\n      dup1\n        /* \"#utility.yul\":266:278   */\n      revert\n        /* \"#utility.yul\":228:230   */\n    tag_44:\n        /* \"#utility.yul\":319:320   */\n      0x00\n        /* \"#utility.yul\":344:397   */\n      tag_45\n        /* \"#utility.yul\":389:396   */\n      dup5\n        /* \"#utility.yul\":380:386   */\n      dup3\n        /* \"#utility.yul\":369:378   */\n      dup6\n        /* \"#utility.yul\":365:387   */\n      add\n        /* \"#utility.yul\":344:397   */\n      tag_39\n      jump\t// in\n    tag_45:\n        /* \"#utility.yul\":334:397   */\n      swap2\n      pop\n        /* \"#utility.yul\":290:407   */\n      pop\n        /* \"#utility.yul\":218:414   */\n      swap3\n      swap2\n      pop\n      pop\n      jump\t// out\n        /* \"#utility.yul\":420:737   */\n    tag_46:\n      0x00\n        /* \"#utility.yul\":583:650   */\n      tag_48\n        /* \"#utility.yul\":647:649   */\n      0x13\n        /* \"#utility.yul\":642:645   */\n      dup4\n        /* \"#utility.yul\":583:650   */\n      tag_49\n      jump\t// in\n    tag_48:\n        /* \"#utility.yul\":576:650   */\n      swap2\n      pop\n        /* \"#utility.yul\":680:701   */\n      0x4e6f7468696e6720746f20776974686472617700000000000000000000000000\n        /* \"#utility.yul\":676:677   */\n      0x00\n        /* \"#utility.yul\":671:674   */\n      dup4\n        /* \"#utility.yul\":667:678   */\n      add\n        /* \"#utility.yul\":660:702   */\n      mstore\n        /* \"#utility.yul\":728:730   */\n      0x20\n        /* \"#utility.yul\":723:726   */\n      dup3\n        /* \"#utility.yul\":719:731   */\n      add\n        /* \"#utility.yul\":712:731   */\n      swap1\n      pop\n        /* \"#utility.yul\":566:737   */\n      swap2\n      swap1\n      pop\n      jump\t// out\n        /* \"#utility.yul\":743:1061   */\n    tag_50:\n      0x00\n        /* \"#utility.yul\":906:973   */\n      tag_52\n        /* \"#utility.yul\":970:972   */\n      0x14\n        /* \"#utility.yul\":965:968   */\n      dup4\n        /* \"#utility.yul\":906:973   */\n      tag_49\n      jump\t// in\n    tag_52:\n        /* \"#utility.yul\":899:973   */\n      swap2\n      pop\n        /* \"#utility.yul\":1003:1025   */\n      0x4661696c656420746f2073656e64204574686572000000000000000000000000\n        /* \"#utility.yul\":999:1000   */\n      0x00\n        /* \"#utility.yul\":994:997   */\n      dup4\n        /* \"#utility.yul\":990:1001   */\n      add\n        /* \"#utility.yul\":983:1026   */\n      mstore\n        /* \"#utility.yul\":1052:1054   */\n      0x20\n        /* \"#utility.yul\":1047:1050   */\n      dup3\n        /* \"#utility.yul\":1043:1055   */\n      add\n        /* \"#utility.yul\":1036:1055   */\n      swap1\n      pop\n        /* \"#utility.yul\":889:1061   */\n      swap2\n      swap1\n      pop\n      jump\t// out\n        /* \"#utility.yul\":1067:1364   */\n    tag_53:\n      0x00\n        /* \"#utility.yul\":1247:1330   */\n      tag_55\n        /* \"#utility.yul\":1328:1329   */\n      0x00\n        /* \"#utility.yul\":1323:1326   */\n      dup4\n        /* \"#utility.yul\":1247:1330   */\n      tag_56\n      jump\t// in\n    tag_55:\n        /* \"#utility.yul\":1240:1330   */\n      swap2\n      pop\n        /* \"#utility.yul\":1356:1357   */\n      0x00\n        /* \"#utility.yul\":1351:1354   */\n      dup3\n        /* \"#utility.yul\":1347:1358   */\n      add\n        /* \"#utility.yul\":1340:1358   */\n      swap1\n      pop\n        /* \"#utility.yul\":1230:1364   */\n      swap2\n      swap1\n      pop\n      jump\t// out\n        /* \"#utility.yul\":1370:1488   */\n    tag_57:\n        /* \"#utility.yul\":1457:1481   */\n      tag_59\n        /* \"#utility.yul\":1475:1480   */\n      dup2\n        /* \"#utility.yul\":1457:1481   */\n      tag_60\n      jump\t// in\n    tag_59:\n        /* \"#utility.yul\":1452:1455   */\n      dup3\n        /* \"#utility.yul\":1445:1482   */\n      mstore\n        /* \"#utility.yul\":1435:1488   */\n      pop\n      pop\n      jump\t// out\n        /* \"#utility.yul\":1494:1873   */\n    tag_28:\n      0x00\n        /* \"#utility.yul\":1700:1847   */\n      tag_62\n        /* \"#utility.yul\":1843:1846   */\n      dup3\n        /* \"#utility.yul\":1700:1847   */\n      tag_53\n      jump\t// in\n    tag_62:\n        /* \"#utility.yul\":1693:1847   */\n      swap2\n      pop\n        /* \"#utility.yul\":1864:1867   */\n      dup2\n        /* \"#utility.yul\":1857:1867   */\n      swap1\n      pop\n        /* \"#utility.yul\":1682:1873   */\n      swap2\n      swap1\n      pop\n      jump\t// out\n        /* \"#utility.yul\":1879:2298   */\n    tag_26:\n      0x00\n        /* \"#utility.yul\":2083:2085   */\n      0x20\n        /* \"#utility.yul\":2072:2081   */\n      dup3\n        /* \"#utility.yul\":2068:2086   */\n      add\n        /* \"#utility.yul\":2060:2086   */\n      swap1\n      pop\n        /* \"#utility.yul\":2132:2141   */\n      dup2\n        /* \"#utility.yul\":2126:2130   */\n      dup2\n        /* \"#utility.yul\":2122:2142   */\n      sub\n        /* \"#utility.yul\":2118:2119   */\n      0x00\n        /* \"#utility.yul\":2107:2116   */\n      dup4\n        /* \"#utility.yul\":2103:2120   */\n      add\n        /* \"#utility.yul\":2096:2143   */\n      mstore\n        /* \"#utility.yul\":2160:2291   */\n      tag_64\n        /* \"#utility.yul\":2286:2290   */\n      dup2\n        /* \"#utility.yul\":2160:2291   */\n      tag_46\n      jump\t// in\n    tag_64:\n        /* \"#utility.yul\":2152:2291   */\n      swap1\n      pop\n        /* \"#utility.yul\":2050:2298   */\n      swap2\n      swap1\n      pop\n      jump\t// out\n        /* \"#utility.yul\":2304:2723   */\n    tag_34:\n      0x00\n        /* \"#utility.yul\":2508:2510   */\n      0x20\n        /* \"#utility.yul\":2497:2506   */\n      dup3\n        /* \"#utility.yul\":2493:2511   */\n      add\n        /* \"#utility.yul\":2485:2511   */\n      swap1\n      pop\n        /* \"#utility.yul\":2557:2566   */\n      dup2\n        /* \"#utility.yul\":2551:2555   */\n      dup2\n        /* \"#utility.yul\":2547:2567   */\n      sub\n        /* \"#utility.yul\":2543:2544   */\n      0x00\n        /* \"#utility.yul\":2532:2541   */\n      dup4\n        /* \"#utility.yul\":2528:2545   */\n      add\n        /* \"#utility.yul\":2521:2568   */\n      mstore\n        /* \"#utility.yul\":2585:2716   */\n      tag_66\n        /* \"#utility.yul\":2711:2715   */\n      dup2\n        /* \"#utility.yul\":2585:2716   */\n      tag_50\n      jump\t// in\n    tag_66:\n        /* \"#utility.yul\":2577:2716   */\n      swap1\n      pop\n        /* \"#utility.yul\":2475:2723   */\n      swap2\n      swap1\n      pop\n      jump\t// out\n        /* \"#utility.yul\":2729:2951   */\n    tag_10:\n      0x00\n        /* \"#utility.yul\":2860:2862   */\n      0x20\n        /* \"#utility.yul\":2849:2858   */\n      dup3\n        /* \"#utility.yul\":2845:2863   */\n      add\n        /* \"#utility.yul\":2837:2863   */\n      swap1\n      pop\n        /* \"#utility.yul\":2873:2944   */\n      tag_68\n        /* \"#utility.yul\":2941:2942   */\n      0x00\n        /* \"#utility.yul\":2930:2939   */\n      dup4\n        /* \"#utility.yul\":2926:2943   */\n      add\n        /* \"#utility.yul\":2917:2923   */\n      dup5\n        /* \"#utility.yul\":2873:2944   */\n      tag_57\n      jump\t// in\n    tag_68:\n        /* \"#utility.yul\":2827:2951   */\n      swap3\n      swap2\n      pop\n      pop\n      jump\t// out\n        /* \"#utility.yul\":2957:3104   */\n    tag_56:\n      0x00\n        /* \"#utility.yul\":3095:3098   */\n      dup2\n        /* \"#utility.yul\":3080:3098   */\n      swap1\n      pop\n        /* \"#utility.yul\":3070:3104   */\n      swap3\n      swap2\n      pop\n      pop\n      jump\t// out\n        /* \"#utility.yul\":3110:3279   */\n    tag_49:\n      0x00\n        /* \"#utility.yul\":3228:3234   */\n      dup3\n        /* \"#utility.yul\":3223:3226   */\n      dup3\n        /* \"#utility.yul\":3216:3235   */\n      mstore\n        /* \"#utility.yul\":3268:3272   */\n      0x20\n        /* \"#utility.yul\":3263:3266   */\n      dup3\n        /* \"#utility.yul\":3259:3273   */\n      add\n        /* \"#utility.yul\":3244:3273   */\n      swap1\n      pop\n        /* \"#utility.yul\":3206:3279   */\n      swap3\n      swap2\n      pop\n      pop\n      jump\t// out\n        /* \"#utility.yul\":3285:3590   */\n    tag_37:\n      0x00\n        /* \"#utility.yul\":3344:3364   */\n      tag_72\n        /* \"#utility.yul\":3362:3363   */\n      dup3\n        /* \"#utility.yul\":3344:3364   */\n      tag_60\n      jump\t// in\n    tag_72:\n        /* \"#utility.yul\":3339:3364   */\n      swap2\n      pop\n        /* \"#utility.yul\":3378:3398   */\n      tag_73\n        /* \"#utility.yul\":3396:3397   */\n      dup4\n        /* \"#utility.yul\":3378:3398   */\n      tag_60\n      jump\t// in\n    tag_73:\n        /* \"#utility.yul\":3373:3398   */\n      swap3\n      pop\n        /* \"#utility.yul\":3532:3533   */\n      dup3\n        /* \"#utility.yul\":3464:3530   */\n      0xffffffffffffffffffffffffffffffffffffffffffffffffffffffffffffffff\n        /* \"#utility.yul\":3460:3534   */\n      sub\n        /* \"#utility.yul\":3457:3458   */\n      dup3\n        /* \"#utility.yul\":3454:3535   */\n      gt\n        /* \"#utility.yul\":3451:3453   */\n      iszero\n      tag_74\n      jumpi\n        /* \"#utility.yul\":3538:3556   */\n      tag_75\n      tag_76\n      jump\t// in\n    tag_75:\n        /* \"#utility.yul\":3451:3453   */\n    tag_74:\n        /* \"#utility.yul\":3582:3583   */\n      dup3\n        /* \"#utility.yul\":3579:3580   */\n      dup3\n        /* \"#utility.yul\":3575:3584   */\n      add\n        /* \"#utility.yul\":3568:3584   */\n      swap1\n      pop\n        /* \"#utility.yul\":3329:3590   */\n      swap3\n      swap2\n      pop\n      pop\n      jump\t// out\n        /* \"#utility.yul\":3596:3692   */\n    tag_77:\n      0x00\n        /* \"#utility.yul\":3662:3686   */\n      tag_79\n        /* \"#utility.yul\":3680:3685   */\n      dup3\n        /* \"#utility.yul\":3662:3686   */\n      tag_80\n      jump\t// in\n    tag_79:\n        /* \"#utility.yul\":3651:3686   */\n      swap1\n      pop\n        /* \"#utility.yul\":3641:3692   */\n      swap2\n      swap1\n      pop\n      jump\t// out\n        /* \"#utility.yul\":3698:3824   */\n    tag_80:\n      0x00\n        /* \"#utility.yul\":3775:3817   */\n      0xffffffffffffffffffffffffffffffffffffffff\n        /* \"#utility.yul\":3768:3773   */\n      dup3\n        /* \"#utility.yul\":3764:3818   */\n      and\n        /* \"#utility.yul\":3753:3818   */\n      swap1\n      pop\n        /* \"#utility.yul\":3743:3824   */\n      swap2\n      swap1\n      pop\n      jump\t// out\n        /* \"#utility.yul\":3830:3907   */\n    tag_60:\n      0x00\n        /* \"#utility.yul\":3896:3901   */\n      dup2\n        /* \"#utility.yul\":3885:3901   */\n      swap1\n      pop\n        /* \"#utility.yul\":3875:3907   */\n      swap2\n      swap1\n      pop\n      jump\t// out\n        /* \"#utility.yul\":3913:4093   */\n    tag_76:\n        /* \"#utility.yul\":3961:4038   */\n      0x4e487b7100000000000000000000000000000000000000000000000000000000\n        /* \"#utility.yul\":3958:3959   */\n      0x00\n        /* \"#utility.yul\":3951:4039   */\n      mstore\n        /* \"#utility.yul\":4058:4062   */\n      0x11\n        /* \"#utility.yul\":4055:4056   */\n      0x04\n        /* \"#utility.yul\":4048:4063   */\n      mstore\n        /* \"#utility.yul\":4082:4086   */\n      0x24\n        /* \"#utility.yul\":4079:4080   */\n      0x00\n        /* \"#utility.yul\":4072:4087   */\n      revert\n        /* \"#utility.yul\":4099:4221   */\n    tag_42:\n        /* \"#utility.yul\":4172:4196   */\n      tag_85\n        /* \"#utility.yul\":4190:4195   */\n      dup2\n        /* \"#utility.yul\":4172:4196   */\n      tag_77\n      jump\t// in\n    tag_85:\n        /* \"#utility.yul\":4165:4170   */\n      dup2\n        /* \"#utility.yul\":4162:4197   */\n      eq\n        /* \"#utility.yul\":4152:4154   */\n      tag_86\n      jumpi\n        /* \"#utility.yul\":4211:4212   */\n      0x00\n        /* \"#utility.yul\":4208:4209   */\n      dup1\n        /* \"#utility.yul\":4201:4213   */\n      revert\n        /* \"#utility.yul\":4152:4154   */\n    tag_86:\n        /* \"#utility.yul\":4142:4221   */\n      pop\n      jump\t// out\n\n    auxdata: 0xa264697066735822122028f5841d7ed00956ce2255d28ecf501c923eefef33c2b538d6ee67976a9a588864736f6c63430008000033\n}\n",
				"bytecode": {
					"linkReferences": {},
					"object": "608060405234801561001057600080fd5b5061053f806100206000396000f3fe60806040526004361061003f5760003560e01c806312065fe01461004457806327e235e31461006f5780633ccfd60b146100ac578063d0e30db0146100c3575b600080fd5b34801561005057600080fd5b506100596100cd565b60405161006691906103fa565b60405180910390f35b34801561007b57600080fd5b50610096600480360381019061009191906102d3565b6100d5565b6040516100a391906103fa565b60405180910390f35b3480156100b857600080fd5b506100c16100ed565b005b6100cb610267565b005b600047905090565b60006020528060005260406000206000915090505481565b60008060003373ffffffffffffffffffffffffffffffffffffffff1673ffffffffffffffffffffffffffffffffffffffff16815260200190815260200160002054905060008111610173576040517f08c379a000000000000000000000000000000000000000000000000000000000815260040161016a906103ba565b60405180910390fd5b60003373ffffffffffffffffffffffffffffffffffffffff1682604051610199906103a5565b60006040518083038185875af1925050503d80600081146101d6576040519150601f19603f3d011682016040523d82523d6000602084013e6101db565b606091505b505090508061021f576040517f08c379a0000000000000000000000000000000000000000000000000000000008152600401610216906103da565b60405180910390fd5b60008060003373ffffffffffffffffffffffffffffffffffffffff1673ffffffffffffffffffffffffffffffffffffffff168152602001908152602001600020819055505050565b346000803373ffffffffffffffffffffffffffffffffffffffff1673ffffffffffffffffffffffffffffffffffffffff16815260200190815260200160002060008282546102b59190610431565b92505081905550565b6000813590506102cd816104f2565b92915050565b6000602082840312156102e557600080fd5b60006102f3848285016102be565b91505092915050565b6000610309601383610420565b91507f4e6f7468696e6720746f207769746864726177000000000000000000000000006000830152602082019050919050565b6000610349601483610420565b91507f4661696c656420746f2073656e642045746865720000000000000000000000006000830152602082019050919050565b6000610389600083610415565b9150600082019050919050565b61039f816104b9565b82525050565b60006103b08261037c565b9150819050919050565b600060208201905081810360008301526103d3816102fc565b9050919050565b600060208201905081810360008301526103f38161033c565b9050919050565b600060208201905061040f6000830184610396565b92915050565b600081905092915050565b600082825260208201905092915050565b600061043c826104b9565b9150610447836104b9565b9250827fffffffffffffffffffffffffffffffffffffffffffffffffffffffffffffffff0382111561047c5761047b6104c3565b5b828201905092915050565b600061049282610499565b9050919050565b600073ffffffffffffffffffffffffffffffffffffffff82169050919050565b6000819050919050565b7f4e487b7100000000000000000000000000000000000000000000000000000000600052601160045260246000fd5b6104fb81610487565b811461050657600080fd5b5056fea264697066735822122028f5841d7ed00956ce2255d28ecf501c923eefef33c2b538d6ee67976a9a588864736f6c63430008000033",
					"opcodes": "PUSH1 0x80 PUSH1 0x40 MSTORE CALLVALUE DUP1 ISZERO PUSH2 0x10 JUMPI PUSH1 0x0 DUP1 REVERT JUMPDEST POP PUSH2 0x53F DUP1 PUSH2 0x20 PUSH1 0x0 CODECOPY PUSH1 0x0 RETURN INVALID PUSH1 0x80 PUSH1 0x40 MSTORE PUSH1 0x4 CALLDATASIZE LT PUSH2 0x3F JUMPI PUSH1 0x0 CALLDATALOAD PUSH1 0xE0 SHR DUP1 PUSH4 0x12065FE0 EQ PUSH2 0x44 JUMPI DUP1 PUSH4 0x27E235E3 EQ PUSH2 0x6F JUMPI DUP1 PUSH4 0x3CCFD60B EQ PUSH2 0xAC JUMPI DUP1 PUSH4 0xD0E30DB0 EQ PUSH2 0xC3 JUMPI JUMPDEST PUSH1 0x0 DUP1 REVERT JUMPDEST CALLVALUE DUP1 ISZERO PUSH2 0x50 JUMPI PUSH1 0x0 DUP1 REVERT JUMPDEST POP PUSH2 0x59 PUSH2 0xCD JUMP JUMPDEST PUSH1 0x40 MLOAD PUSH2 0x66 SWAP2 SWAP1 PUSH2 0x3FA JUMP JUMPDEST PUSH1 0x40 MLOAD DUP1 SWAP2 SUB SWAP1 RETURN JUMPDEST CALLVALUE DUP1 ISZERO PUSH2 0x7B JUMPI PUSH1 0x0 DUP1 REVERT JUMPDEST POP PUSH2 0x96 PUSH1 0x4 DUP1 CALLDATASIZE SUB DUP2 ADD SWAP1 PUSH2 0x91 SWAP2 SWAP1 PUSH2 0x2D3 JUMP JUMPDEST PUSH2 0xD5 JUMP JUMPDEST PUSH1 0x40 MLOAD PUSH2 0xA3 SWAP2 SWAP1 PUSH2 0x3FA JUMP JUMPDEST PUSH1 0x40 MLOAD DUP1 SWAP2 SUB SWAP1 RETURN JUMPDEST CALLVALUE DUP1 ISZERO PUSH2 0xB8 JUMPI PUSH1 0x0 DUP1 REVERT JUMPDEST POP PUSH2 0xC1 PUSH2 0xED JUMP JUMPDEST STOP JUMPDEST PUSH2 0xCB PUSH2 0x267 JUMP JUMPDEST STOP JUMPDEST PUSH1 0x0 SELFBALANCE SWAP1 POP SWAP1 JUMP JUMPDEST PUSH1 0x0 PUSH1 0x20 MSTORE DUP1 PUSH1 0x0 MSTORE PUSH1 0x40 PUSH1 0x0 KECCAK256 PUSH1 0x0 SWAP2 POP SWAP1 POP SLOAD DUP2 JUMP JUMPDEST PUSH1 0x0 DUP1 PUSH1 0x0 CALLER PUSH20 0xFFFFFFFFFFFFFFFFFFFFFFFFFFFFFFFFFFFFFFFF AND PUSH20 0xFFFFFFFFFFFFFFFFFFFFFFFFFFFFFFFFFFFFFFFF AND DUP2 MSTORE PUSH1 0x20 ADD SWAP1 DUP2 MSTORE PUSH1 0x20 ADD PUSH1 0x0 KECCAK256 SLOAD SWAP1 POP PUSH1 0x0 DUP2 GT PUSH2 0x173 JUMPI PUSH1 0x40 MLOAD PUSH32 0x8C379A000000000000000000000000000000000000000000000000000000000 DUP2 MSTORE PUSH1 0x4 ADD PUSH2 0x16A SWAP1 PUSH2 0x3BA JUMP JUMPDEST PUSH1 0x40 MLOAD DUP1 SWAP2 SUB SWAP1 REVERT JUMPDEST PUSH1 0x0 CALLER PUSH20 0xFFFFFFFFFFFFFFFFFFFFFFFFFFFFFFFFFFFFFFFF AND DUP3 PUSH1 0x40 MLOAD PUSH2 0x199 SWAP1 PUSH2 0x3A5 JUMP JUMPDEST PUSH1 0x0 PUSH1 0x40 MLOAD DUP1 DUP4 SUB DUP2 DUP6 DUP8 GAS CALL SWAP3 POP POP POP RETURNDATASIZE DUP1 PUSH1 0x0 DUP2 EQ PUSH2 0x1D6 JUMPI PUSH1 0x40 MLOAD SWAP2 POP PUSH1 0x1F NOT PUSH1 0x3F RETURNDATASIZE ADD AND DUP3 ADD PUSH1 0x40 MSTORE RETURNDATASIZE DUP3 MSTORE RETURNDATASIZE PUSH1 0x0 PUSH1 0x20 DUP5 ADD RETURNDATACOPY PUSH2 0x1DB JUMP JUMPDEST PUSH1 0x60 SWAP2 POP JUMPDEST POP POP SWAP1 POP DUP1 PUSH2 0x21F JUMPI PUSH1 0x40 MLOAD PUSH32 0x8C379A000000000000000000000000000000000000000000000000000000000 DUP2 MSTORE PUSH1 0x4 ADD PUSH2 0x216 SWAP1 PUSH2 0x3DA JUMP JUMPDEST PUSH1 0x40 MLOAD DUP1 SWAP2 SUB SWAP1 REVERT JUMPDEST PUSH1 0x0 DUP1 PUSH1 0x0 CALLER PUSH20 0xFFFFFFFFFFFFFFFFFFFFFFFFFFFFFFFFFFFFFFFF AND PUSH20 0xFFFFFFFFFFFFFFFFFFFFFFFFFFFFFFFFFFFFFFFF AND DUP2 MSTORE PUSH1 0x20 ADD SWAP1 DUP2 MSTORE PUSH1 0x20 ADD PUSH1 0x0 KECCAK256 DUP2 SWAP1 SSTORE POP POP POP JUMP JUMPDEST CALLVALUE PUSH1 0x0 DUP1 CALLER PUSH20 0xFFFFFFFFFFFFFFFFFFFFFFFFFFFFFFFFFFFFFFFF AND PUSH20 0xFFFFFFFFFFFFFFFFFFFFFFFFFFFFFFFFFFFFFFFF AND DUP2 MSTORE PUSH1 0x20 ADD SWAP1 DUP2 MSTORE PUSH1 0x20 ADD PUSH1 0x0 KECCAK256 PUSH1 0x0 DUP3 DUP3 SLOAD PUSH2 0x2B5 SWAP2 SWAP1 PUSH2 0x431 JUMP JUMPDEST SWAP3 POP POP DUP2 SWAP1 SSTORE POP JUMP JUMPDEST PUSH1 0x0 DUP2 CALLDATALOAD SWAP1 POP PUSH2 0x2CD DUP2 PUSH2 0x4F2 JUMP JUMPDEST SWAP3 SWAP2 POP POP JUMP JUMPDEST PUSH1 0x0 PUSH1 0x20 DUP3 DUP5 SUB SLT ISZERO PUSH2 0x2E5 JUMPI PUSH1 0x0 DUP1 REVERT JUMPDEST PUSH1 0x0 PUSH2 0x2F3 DUP5 DUP3 DUP6 ADD PUSH2 0x2BE JUMP JUMPDEST SWAP2 POP POP SWAP3 SWAP2 POP POP JUMP JUMPDEST PUSH1 0x0 PUSH2 0x309 PUSH1 0x13 DUP4 PUSH2 0x420 JUMP JUMPDEST SWAP2 POP PUSH32 0x4E6F7468696E6720746F20776974686472617700000000000000000000000000 PUSH1 0x0 DUP4 ADD MSTORE PUSH1 0x20 DUP3 ADD SWAP1 POP SWAP2 SWAP1 POP JUMP JUMPDEST PUSH1 0x0 PUSH2 0x349 PUSH1 0x14 DUP4 PUSH2 0x420 JUMP JUMPDEST SWAP2 POP PUSH32 0x4661696C656420746F2073656E64204574686572000000000000000000000000 PUSH1 0x0 DUP4 ADD MSTORE PUSH1 0x20 DUP3 ADD SWAP1 POP SWAP2 SWAP1 POP JUMP JUMPDEST PUSH1 0x0 PUSH2 0x389 PUSH1 0x0 DUP4 PUSH2 0x415 JUMP JUMPDEST SWAP2 POP PUSH1 0x0 DUP3 ADD SWAP1 POP SWAP2 SWAP1 POP JUMP JUMPDEST PUSH2 0x39F DUP2 PUSH2 0x4B9 JUMP JUMPDEST DUP3 MSTORE POP POP JUMP JUMPDEST PUSH1 0x0 PUSH2 0x3B0 DUP3 PUSH2 0x37C JUMP JUMPDEST SWAP2 POP DUP2 SWAP1 POP SWAP2 SWAP1 POP JUMP JUMPDEST PUSH1 0x0 PUSH1 0x20 DUP3 ADD SWAP1 POP DUP2 DUP2 SUB PUSH1 0x0 DUP4 ADD MSTORE PUSH2 0x3D3 DUP2 PUSH2 0x2FC JUMP JUMPDEST SWAP1 POP SWAP2 SWAP1 POP JUMP JUMPDEST PUSH1 0x0 PUSH1 0x20 DUP3 ADD SWAP1 POP DUP2 DUP2 SUB PUSH1 0x0 DUP4 ADD MSTORE PUSH2 0x3F3 DUP2 PUSH2 0x33C JUMP JUMPDEST SWAP1 POP SWAP2 SWAP1 POP JUMP JUMPDEST PUSH1 0x0 PUSH1 0x20 DUP3 ADD SWAP1 POP PUSH2 0x40F PUSH1 0x0 DUP4 ADD DUP5 PUSH2 0x396 JUMP JUMPDEST SWAP3 SWAP2 POP POP JUMP JUMPDEST PUSH1 0x0 DUP2 SWAP1 POP SWAP3 SWAP2 POP POP JUMP JUMPDEST PUSH1 0x0 DUP3 DUP3 MSTORE PUSH1 0x20 DUP3 ADD SWAP1 POP SWAP3 SWAP2 POP POP JUMP JUMPDEST PUSH1 0x0 PUSH2 0x43C DUP3 PUSH2 0x4B9 JUMP JUMPDEST SWAP2 POP PUSH2 0x447 DUP4 PUSH2 0x4B9 JUMP JUMPDEST SWAP3 POP DUP3 PUSH32 0xFFFFFFFFFFFFFFFFFFFFFFFFFFFFFFFFFFFFFFFFFFFFFFFFFFFFFFFFFFFFFFFF SUB DUP3 GT ISZERO PUSH2 0x47C JUMPI PUSH2 0x47B PUSH2 0x4C3 JUMP JUMPDEST JUMPDEST DUP3 DUP3 ADD SWAP1 POP SWAP3 SWAP2 POP POP JUMP JUMPDEST PUSH1 0x0 PUSH2 0x492 DUP3 PUSH2 0x499 JUMP JUMPDEST SWAP1 POP SWAP2 SWAP1 POP JUMP JUMPDEST PUSH1 0x0 PUSH20 0xFFFFFFFFFFFFFFFFFFFFFFFFFFFFFFFFFFFFFFFF DUP3 AND SWAP1 POP SWAP2 SWAP1 POP JUMP JUMPDEST PUSH1 0x0 DUP2 SWAP1 POP SWAP2 SWAP1 POP JUMP JUMPDEST PUSH32 0x4E487B7100000000000000000000000000000000000000000000000000000000 PUSH1 0x0 MSTORE PUSH1 0x11 PUSH1 0x4 MSTORE PUSH1 0x24 PUSH1 0x0 REVERT JUMPDEST PUSH2 0x4FB DUP2 PUSH2 0x487 JUMP JUMPDEST DUP2 EQ PUSH2 0x506 JUMPI PUSH1 0x0 DUP1 REVERT JUMPDEST POP JUMP INVALID LOG2 PUSH5 0x6970667358 0x22 SLT KECCAK256 0x28 CREATE2 DUP5 SAR PUSH31 0xD00956CE2255D28ECF501C923EEFEF33C2B538D6EE67976A9A588864736F6C PUSH4 0x43000800 STOP CALLER "
				},
				"gasEstimates": {
					"creation": {
						"codeDepositCost": "268600",
						"executionCost": "306",
						"totalCost": "268906"
					},
					"external": {
						"balances(address)": "1514",
						"deposit()": "infinite",
						"getBalance()": "317",
						"withdraw()": "infinite"
					}
				},
				"methodIdentifiers": {
					"balances(address)": "27e235e3",
					"deposit()": "d0e30db0",
					"getBalance()": "12065fe0",
					"withdraw()": "3ccfd60b"
				}
			},
			"storageLayout": {
				"storage": [
					{
						"astId": 5,
						"contract": "vulncontracts/vuln1.sol:VulnerableBank",
						"label": "balances",
						"offset": 0,
						"slot": "0",
						"type": "t_mapping(t_address,t_uint256)"
					}
				],
				"types": {
					"t_address": {
						"encoding": "inplace",
						"label": "address",
						"numberOfBytes": "20"
					},
					"t_mapping(t_address,t_uint256)": {
						"encoding": "mapping",
						"key": "t_address",
						"label": "mapping(address => uint256)",
						"numberOfBytes": "32",
						"value": "t_uint256"
					},
					"t_uint256": {
						"encoding": "inplace",
						"label": "uint256",
						"numberOfBytes": "32"
					}
				}
			},
			"userdoc": {
				"kind": "user",
				"methods": {},
				"version": 1
			}
		}
	}
}