{
	"data": {
		"bytecode": {
			"linkReferences": {},
			"object": "608060405234801561000f575f80fd5b50604051611c0a380380611c0a83398181016040528101906100319190610168565b8260015f6101000a81548173ffffffffffffffffffffffffffffffffffffffff021916908373ffffffffffffffffffffffffffffffffffffffff160217905550335f806101000a81548173ffffffffffffffffffffffffffffffffffffffff021916908373ffffffffffffffffffffffffffffffffffffffff16021790555081600281905550806003819055505050506101b8565b5f80fd5b5f73ffffffffffffffffffffffffffffffffffffffff82169050919050565b5f6100f3826100ca565b9050919050565b5f610104826100e9565b9050919050565b610114816100fa565b811461011e575f80fd5b50565b5f8151905061012f8161010b565b92915050565b5f819050919050565b61014781610135565b8114610151575f80fd5b50565b5f815190506101628161013e565b92915050565b5f805f6060848603121561017f5761017e6100c6565b5b5f61018c86828701610121565b935050602061019d86828701610154565b92505060406101ae86828701610154565b9150509250925092565b611a45806101c55f395ff3fe6080604052600436106100f6575f3560e01c8063ccca123b11610089578063ea46193e11610058578063ea46193e1461036b578063eec7faa114610395578063f1f959a6146103bf578063fc0c546a146103e957610163565b8063ccca123b146102c1578063dd49756e146102eb578063df351aaf14610307578063e9439b131461032f57610163565b80633bed33ce116100c55780633bed33ce146102095780634e6630b014610231578063523fba7f1461025b5780638da5cb5b1461029757610163565b80630749469f146101675780631a197a261461018f578063315a095d146101cb578063359cf2b7146101f357610163565b36610163573460065f82825461010c91906112b1565b925050819055503373ffffffffffffffffffffffffffffffffffffffff167f939e51ac2fd009b158d6344f7e68a83d8d18d9b0cc88cf514aac6aaa9cad2a183460405161015991906112f3565b60405180910390a2005b5f80fd5b348015610172575f80fd5b5061018d6004803603810190610188919061133a565b610413565b005b34801561019a575f80fd5b506101b560048036038101906101b091906113bf565b6104e1565b6040516101c291906112f3565b60405180910390f35b3480156101d6575f80fd5b506101f160048036038101906101ec919061133a565b610584565b005b3480156101fe575f80fd5b50610207610895565b005b348015610214575f80fd5b5061022f600480360381019061022a919061133a565b610bb1565b005b34801561023c575f80fd5b50610245610d6e565b60405161025291906112f3565b60405180910390f35b348015610266575f80fd5b50610281600480360381019061027c91906113bf565b610d74565b60405161028e91906112f3565b60405180910390f35b3480156102a2575f80fd5b506102ab610d89565b6040516102b891906113f9565b60405180910390f35b3480156102cc575f80fd5b506102d5610dac565b6040516102e291906112f3565b60405180910390f35b6103056004803603810190610300919061133a565b610db2565b005b348015610312575f80fd5b5061032d6004803603810190610328919061133a565b6110ff565b005b34801561033a575f80fd5b50610355600480360381019061035091906113bf565b6111cd565b60405161036291906112f3565b60405180910390f35b348015610376575f80fd5b5061037f6111e2565b60405161038c91906112f3565b60405180910390f35b3480156103a0575f80fd5b506103a96111eb565b6040516103b691906112f3565b60405180910390f35b3480156103ca575f80fd5b506103d36111f1565b6040516103e091906112f3565b60405180910390f35b3480156103f4575f80fd5b506103fd611256565b60405161040a919061146d565b60405180910390f35b5f8054906101000a900473ffffffffffffffffffffffffffffffffffffffff1673ffffffffffffffffffffffffffffffffffffffff163373ffffffffffffffffffffffffffffffffffffffff16146104a0576040517f08c379a000000000000000000000000000000000000000000000000000000000815260040161049790611506565b60405180910390fd5b806002819055507fb9fe32e4d5621b49c8e6f7b8158af4d0ee904fa6b74843c5db6f4f9d963cc35a816040516104d691906112f3565b60405180910390a150565b5f60015f9054906101000a900473ffffffffffffffffffffffffffffffffffffffff1673ffffffffffffffffffffffffffffffffffffffff1663dd62ed3e83306040518363ffffffff1660e01b815260040161053e929190611524565b602060405180830381865afa158015610559573d5f803e3d5ffd5b505050506040513d601f19601f8201168201806040525081019061057d919061155f565b9050919050565b5f8054906101000a900473ffffffffffffffffffffffffffffffffffffffff1673ffffffffffffffffffffffffffffffffffffffff163373ffffffffffffffffffffffffffffffffffffffff1614610611576040517f08c379a000000000000000000000000000000000000000000000000000000000815260040161060890611506565b60405180910390fd5b8060055f60015f9054906101000a900473ffffffffffffffffffffffffffffffffffffffff1673ffffffffffffffffffffffffffffffffffffffff1673ffffffffffffffffffffffffffffffffffffffff1681526020019081526020015f205410156106b2576040517f08c379a00000000000000000000000000000000000000000000000000000000081526004016106a9906115d4565b60405180910390fd5b5f60015f9054906101000a900473ffffffffffffffffffffffffffffffffffffffff1673ffffffffffffffffffffffffffffffffffffffff1663a9059cbb5f8054906101000a900473ffffffffffffffffffffffffffffffffffffffff16846040518363ffffffff1660e01b815260040161072e9291906115f2565b6020604051808303815f875af115801561074a573d5f803e3d5ffd5b505050506040513d601f19601f8201168201806040525081019061076e919061164e565b9050806107b0576040517f08c379a00000000000000000000000000000000000000000000000000000000081526004016107a7906116c3565b60405180910390fd5b8160055f60015f9054906101000a900473ffffffffffffffffffffffffffffffffffffffff1673ffffffffffffffffffffffffffffffffffffffff1673ffffffffffffffffffffffffffffffffffffffff1681526020019081526020015f205f82825461081d91906116e1565b925050819055505f8054906101000a900473ffffffffffffffffffffffffffffffffffffffff1673ffffffffffffffffffffffffffffffffffffffff167f6352c5382c4a4578e712449ca65e83cdb392d045dfcf1cad9615189db2da244b8360405161088991906112f3565b60405180910390a25050565b60045f3373ffffffffffffffffffffffffffffffffffffffff1673ffffffffffffffffffffffffffffffffffffffff1681526020019081526020015f2054421015610915576040517f08c379a000000000000000000000000000000000000000000000000000000000815260040161090c90611784565b60405180910390fd5b60025460055f60015f9054906101000a900473ffffffffffffffffffffffffffffffffffffffff1673ffffffffffffffffffffffffffffffffffffffff1673ffffffffffffffffffffffffffffffffffffffff1681526020019081526020015f205410156109b8576040517f08c379a00000000000000000000000000000000000000000000000000000000081526004016109af90611812565b60405180910390fd5b5f60015f9054906101000a900473ffffffffffffffffffffffffffffffffffffffff1673ffffffffffffffffffffffffffffffffffffffff1663a9059cbb336002546040518363ffffffff1660e01b8152600401610a179291906115f2565b6020604051808303815f875af1158015610a33573d5f803e3d5ffd5b505050506040513d601f19601f82011682018060405250810190610a57919061164e565b905080610a99576040517f08c379a0000000000000000000000000000000000000000000000000000000008152600401610a90906116c3565b60405180910390fd5b60025460055f60015f9054906101000a900473ffffffffffffffffffffffffffffffffffffffff1673ffffffffffffffffffffffffffffffffffffffff1673ffffffffffffffffffffffffffffffffffffffff1681526020019081526020015f205f828254610b0891906116e1565b9250508190555060035442610b1d91906112b1565b60045f3373ffffffffffffffffffffffffffffffffffffffff1673ffffffffffffffffffffffffffffffffffffffff1681526020019081526020015f20819055503373ffffffffffffffffffffffffffffffffffffffff167fc3fb6c98272d7a0d5dc26727b61c00ece2e5bf3dbdc0284659e28d441c1ce06c600254604051610ba691906112f3565b60405180910390a250565b5f8054906101000a900473ffffffffffffffffffffffffffffffffffffffff1673ffffffffffffffffffffffffffffffffffffffff163373ffffffffffffffffffffffffffffffffffffffff1614610c3e576040517f08c379a0000000000000000000000000000000000000000000000000000000008152600401610c3590611506565b60405180910390fd5b806006541015610c83576040517f08c379a0000000000000000000000000000000000000000000000000000000008152600401610c7a9061187a565b60405180910390fd5b5f8054906101000a900473ffffffffffffffffffffffffffffffffffffffff1673ffffffffffffffffffffffffffffffffffffffff166108fc8290811502906040515f60405180830381858888f19350505050158015610ce5573d5f803e3d5ffd5b508060065f828254610cf791906116e1565b925050819055505f8054906101000a900473ffffffffffffffffffffffffffffffffffffffff1673ffffffffffffffffffffffffffffffffffffffff167f06097061aeda806b5e9cb4133d9899f332ff0913956567fc0f7ea15e3d19947c82604051610d6391906112f3565b60405180910390a250565b60065481565b6005602052805f5260405f205f915090505481565b5f8054906101000a900473ffffffffffffffffffffffffffffffffffffffff1681565b60035481565b5f811180610dbf57505f34115b610dfe576040517f08c379a0000000000000000000000000000000000000000000000000000000008152600401610df590611908565b60405180910390fd5b5f81111561108d575f60015f9054906101000a900473ffffffffffffffffffffffffffffffffffffffff1673ffffffffffffffffffffffffffffffffffffffff1663dd62ed3e33306040518363ffffffff1660e01b8152600401610e63929190611524565b602060405180830381865afa158015610e7e573d5f803e3d5ffd5b505050506040513d601f19601f82011682018060405250810190610ea2919061155f565b905081811015610ee7576040517f08c379a0000000000000000000000000000000000000000000000000000000008152600401610ede906119bc565b60405180910390fd5b5f60015f9054906101000a900473ffffffffffffffffffffffffffffffffffffffff1673ffffffffffffffffffffffffffffffffffffffff166323b872dd3330866040518463ffffffff1660e01b8152600401610f46939291906119da565b6020604051808303815f875af1158015610f62573d5f803e3d5ffd5b505050506040513d601f19601f82011682018060405250810190610f86919061164e565b905080610fc8576040517f08c379a0000000000000000000000000000000000000000000000000000000008152600401610fbf906116c3565b60405180910390fd5b8260055f60015f9054906101000a900473ffffffffffffffffffffffffffffffffffffffff1673ffffffffffffffffffffffffffffffffffffffff1673ffffffffffffffffffffffffffffffffffffffff1681526020019081526020015f205f82825461103591906112b1565b925050819055503373ffffffffffffffffffffffffffffffffffffffff167f59062170a285eb80e8c6b8ced60428442a51910635005233fc4ce084a475845e8460405161108291906112f3565b60405180910390a250505b5f3411156110fc573460065f8282546110a691906112b1565b925050819055503373ffffffffffffffffffffffffffffffffffffffff167f939e51ac2fd009b158d6344f7e68a83d8d18d9b0cc88cf514aac6aaa9cad2a18346040516110f391906112f3565b60405180910390a25b50565b5f8054906101000a900473ffffffffffffffffffffffffffffffffffffffff1673ffffffffffffffffffffffffffffffffffffffff163373ffffffffffffffffffffffffffffffffffffffff161461118c576040517f08c379a000000000000000000000000000000000000000000000000000000000815260040161118390611506565b60405180910390fd5b806003819055507fd7a3703f78487664fd138129246eed2d18e2fbbe550ea6839eb8717034543a52816040516111c291906112f3565b60405180910390a150565b6004602052805f5260405f205f915090505481565b5f600654905090565b60025481565b5f60055f60015f9054906101000a900473ffffffffffffffffffffffffffffffffffffffff1673ffffffffffffffffffffffffffffffffffffffff1673ffffffffffffffffffffffffffffffffffffffff1681526020019081526020015f2054905090565b60015f9054906101000a900473ffffffffffffffffffffffffffffffffffffffff1681565b5f819050919050565b7f4e487b71000000000000000000000000000000000000000000000000000000005f52601160045260245ffd5b5f6112bb8261127b565b91506112c68361127b565b92508282019050808211156112de576112dd611284565b5b92915050565b6112ed8161127b565b82525050565b5f6020820190506113065f8301846112e4565b92915050565b5f80fd5b6113198161127b565b8114611323575f80fd5b50565b5f8135905061133481611310565b92915050565b5f6020828403121561134f5761134e61130c565b5b5f61135c84828501611326565b91505092915050565b5f73ffffffffffffffffffffffffffffffffffffffff82169050919050565b5f61138e82611365565b9050919050565b61139e81611384565b81146113a8575f80fd5b50565b5f813590506113b981611395565b92915050565b5f602082840312156113d4576113d361130c565b5b5f6113e1848285016113ab565b91505092915050565b6113f381611384565b82525050565b5f60208201905061140c5f8301846113ea565b92915050565b5f819050919050565b5f61143561143061142b84611365565b611412565b611365565b9050919050565b5f6114468261141b565b9050919050565b5f6114578261143c565b9050919050565b6114678161144d565b82525050565b5f6020820190506114805f83018461145e565b92915050565b5f82825260208201905092915050565b7f4f6e6c79206f776e65722063616e206578656375746520746869732066756e635f8201527f74696f6e00000000000000000000000000000000000000000000000000000000602082015250565b5f6114f0602483611486565b91506114fb82611496565b604082019050919050565b5f6020820190508181035f83015261151d816114e4565b9050919050565b5f6040820190506115375f8301856113ea565b61154460208301846113ea565b9392505050565b5f8151905061155981611310565b92915050565b5f602082840312156115745761157361130c565b5b5f6115818482850161154b565b91505092915050565b7f4e6f7420656e6f75676820746f6b656e7320696e2066617563657400000000005f82015250565b5f6115be601b83611486565b91506115c98261158a565b602082019050919050565b5f6020820190508181035f8301526115eb816115b2565b9050919050565b5f6040820190506116055f8301856113ea565b61161260208301846112e4565b9392505050565b5f8115159050919050565b61162d81611619565b8114611637575f80fd5b50565b5f8151905061164881611624565b92915050565b5f602082840312156116635761166261130c565b5b5f6116708482850161163a565b91505092915050565b7f546f6b656e207472616e73666572206661696c656400000000000000000000005f82015250565b5f6116ad601583611486565b91506116b882611679565b602082019050919050565b5f6020820190508181035f8301526116da816116a1565b9050919050565b5f6116eb8261127b565b91506116f68361127b565b925082820390508181111561170e5761170d611284565b5b92915050565b7f506c656173652077616974206265666f72652072657175657374696e6720746f5f8201527f6b656e7320616761696e00000000000000000000000000000000000000000000602082015250565b5f61176e602a83611486565b915061177982611714565b604082019050919050565b5f6020820190508181035f83015261179b81611762565b9050919050565b7f46617563657420697320656d7074792c206465706f736974206d6f726520746f5f8201527f6b656e7300000000000000000000000000000000000000000000000000000000602082015250565b5f6117fc602483611486565b9150611807826117a2565b604082019050919050565b5f6020820190508181035f830152611829816117f0565b9050919050565b7f4e6f7420656e6f75676820457468657220696e206661756365740000000000005f82015250565b5f611864601a83611486565b915061186f82611830565b602082019050919050565b5f6020820190508181035f83015261189181611858565b9050919050565b7f4d757374206465706f7369742065697468657220746f6b656e73206f722045545f8201527f4800000000000000000000000000000000000000000000000000000000000000602082015250565b5f6118f2602183611486565b91506118fd82611898565b604082019050919050565b5f6020820190508181035f83015261191f816118e6565b9050919050565b7f416c6c6f77616e63652065786365656465642e2043616c6c20746f6b656e2e615f8201527f7070726f766528666175636574416464726573732c20616d6f756e742920666960208201527f7273742100000000000000000000000000000000000000000000000000000000604082015250565b5f6119a6604483611486565b91506119b182611926565b606082019050919050565b5f6020820190508181035f8301526119d38161199a565b9050919050565b5f6060820190506119ed5f8301866113ea565b6119fa60208301856113ea565b611a0760408301846112e4565b94935050505056fea26469706673582212200ecef1196643fee06db49a2fb16222ffcb8182e66d98251fcb91fa1f0c86d4e664736f6c634300081a0033",
			"opcodes": "PUSH1 0x80 PUSH1 0x40 MSTORE CALLVALUE DUP1 ISZERO PUSH2 0xF JUMPI PUSH0 DUP1 REVERT JUMPDEST POP PUSH1 0x40 MLOAD PUSH2 0x1C0A CODESIZE SUB DUP1 PUSH2 0x1C0A DUP4 CODECOPY DUP2 DUP2 ADD PUSH1 0x40 MSTORE DUP2 ADD SWAP1 PUSH2 0x31 SWAP2 SWAP1 PUSH2 0x168 JUMP JUMPDEST DUP3 PUSH1 0x1 PUSH0 PUSH2 0x100 EXP DUP2 SLOAD DUP2 PUSH20 0xFFFFFFFFFFFFFFFFFFFFFFFFFFFFFFFFFFFFFFFF MUL NOT AND SWAP1 DUP4 PUSH20 0xFFFFFFFFFFFFFFFFFFFFFFFFFFFFFFFFFFFFFFFF AND MUL OR SWAP1 SSTORE POP CALLER PUSH0 DUP1 PUSH2 0x100 EXP DUP2 SLOAD DUP2 PUSH20 0xFFFFFFFFFFFFFFFFFFFFFFFFFFFFFFFFFFFFFFFF MUL NOT AND SWAP1 DUP4 PUSH20 0xFFFFFFFFFFFFFFFFFFFFFFFFFFFFFFFFFFFFFFFF AND MUL OR SWAP1 SSTORE POP DUP2 PUSH1 0x2 DUP2 SWAP1 SSTORE POP DUP1 PUSH1 0x3 DUP2 SWAP1 SSTORE POP POP POP POP PUSH2 0x1B8 JUMP JUMPDEST PUSH0 DUP1 REVERT JUMPDEST PUSH0 PUSH20 0xFFFFFFFFFFFFFFFFFFFFFFFFFFFFFFFFFFFFFFFF DUP3 AND SWAP1 POP SWAP2 SWAP1 POP JUMP JUMPDEST PUSH0 PUSH2 0xF3 DUP3 PUSH2 0xCA JUMP JUMPDEST SWAP1 POP SWAP2 SWAP1 POP JUMP JUMPDEST PUSH0 PUSH2 0x104 DUP3 PUSH2 0xE9 JUMP JUMPDEST SWAP1 POP SWAP2 SWAP1 POP JUMP JUMPDEST PUSH2 0x114 DUP2 PUSH2 0xFA JUMP JUMPDEST DUP2 EQ PUSH2 0x11E JUMPI PUSH0 DUP1 REVERT JUMPDEST POP JUMP JUMPDEST PUSH0 DUP2 MLOAD SWAP1 POP PUSH2 0x12F DUP2 PUSH2 0x10B JUMP JUMPDEST SWAP3 SWAP2 POP POP JUMP JUMPDEST PUSH0 DUP2 SWAP1 POP SWAP2 SWAP1 POP JUMP JUMPDEST PUSH2 0x147 DUP2 PUSH2 0x135 JUMP JUMPDEST DUP2 EQ PUSH2 0x151 JUMPI PUSH0 DUP1 REVERT JUMPDEST POP JUMP JUMPDEST PUSH0 DUP2 MLOAD SWAP1 POP PUSH2 0x162 DUP2 PUSH2 0x13E JUMP JUMPDEST SWAP3 SWAP2 POP POP JUMP JUMPDEST PUSH0 DUP1 PUSH0 PUSH1 0x60 DUP5 DUP7 SUB SLT ISZERO PUSH2 0x17F JUMPI PUSH2 0x17E PUSH2 0xC6 JUMP JUMPDEST JUMPDEST PUSH0 PUSH2 0x18C DUP7 DUP3 DUP8 ADD PUSH2 0x121 JUMP JUMPDEST SWAP4 POP POP PUSH1 0x20 PUSH2 0x19D DUP7 DUP3 DUP8 ADD PUSH2 0x154 JUMP JUMPDEST SWAP3 POP POP PUSH1 0x40 PUSH2 0x1AE DUP7 DUP3 DUP8 ADD PUSH2 0x154 JUMP JUMPDEST SWAP2 POP POP SWAP3 POP SWAP3 POP SWAP3 JUMP JUMPDEST PUSH2 0x1A45 DUP1 PUSH2 0x1C5 PUSH0 CODECOPY PUSH0 RETURN INVALID PUSH1 0x80 PUSH1 0x40 MSTORE PUSH1 0x4 CALLDATASIZE LT PUSH2 0xF6 JUMPI PUSH0 CALLDATALOAD PUSH1 0xE0 SHR DUP1 PUSH4 0xCCCA123B GT PUSH2 0x89 JUMPI DUP1 PUSH4 0xEA46193E GT PUSH2 0x58 JUMPI DUP1 PUSH4 0xEA46193E EQ PUSH2 0x36B JUMPI DUP1 PUSH4 0xEEC7FAA1 EQ PUSH2 0x395 JUMPI DUP1 PUSH4 0xF1F959A6 EQ PUSH2 0x3BF JUMPI DUP1 PUSH4 0xFC0C546A EQ PUSH2 0x3E9 JUMPI PUSH2 0x163 JUMP JUMPDEST DUP1 PUSH4 0xCCCA123B EQ PUSH2 0x2C1 JUMPI DUP1 PUSH4 0xDD49756E EQ PUSH2 0x2EB JUMPI DUP1 PUSH4 0xDF351AAF EQ PUSH2 0x307 JUMPI DUP1 PUSH4 0xE9439B13 EQ PUSH2 0x32F JUMPI PUSH2 0x163 JUMP JUMPDEST DUP1 PUSH4 0x3BED33CE GT PUSH2 0xC5 JUMPI DUP1 PUSH4 0x3BED33CE EQ PUSH2 0x209 JUMPI DUP1 PUSH4 0x4E6630B0 EQ PUSH2 0x231 JUMPI DUP1 PUSH4 0x523FBA7F EQ PUSH2 0x25B JUMPI DUP1 PUSH4 0x8DA5CB5B EQ PUSH2 0x297 JUMPI PUSH2 0x163 JUMP JUMPDEST DUP1 PUSH4 0x749469F EQ PUSH2 0x167 JUMPI DUP1 PUSH4 0x1A197A26 EQ PUSH2 0x18F JUMPI DUP1 PUSH4 0x315A095D EQ PUSH2 0x1CB JUMPI DUP1 PUSH4 0x359CF2B7 EQ PUSH2 0x1F3 JUMPI PUSH2 0x163 JUMP JUMPDEST CALLDATASIZE PUSH2 0x163 JUMPI CALLVALUE PUSH1 0x6 PUSH0 DUP3 DUP3 SLOAD PUSH2 0x10C SWAP2 SWAP1 PUSH2 0x12B1 JUMP JUMPDEST SWAP3 POP POP DUP2 SWAP1 SSTORE POP CALLER PUSH20 0xFFFFFFFFFFFFFFFFFFFFFFFFFFFFFFFFFFFFFFFF AND PUSH32 0x939E51AC2FD009B158D6344F7E68A83D8D18D9B0CC88CF514AAC6AAA9CAD2A18 CALLVALUE PUSH1 0x40 MLOAD PUSH2 0x159 SWAP2 SWAP1 PUSH2 0x12F3 JUMP JUMPDEST PUSH1 0x40 MLOAD DUP1 SWAP2 SUB SWAP1 LOG2 STOP JUMPDEST PUSH0 DUP1 REVERT JUMPDEST CALLVALUE DUP1 ISZERO PUSH2 0x172 JUMPI PUSH0 DUP1 REVERT JUMPDEST POP PUSH2 0x18D PUSH1 0x4 DUP1 CALLDATASIZE SUB DUP2 ADD SWAP1 PUSH2 0x188 SWAP2 SWAP1 PUSH2 0x133A JUMP JUMPDEST PUSH2 0x413 JUMP JUMPDEST STOP JUMPDEST CALLVALUE DUP1 ISZERO PUSH2 0x19A JUMPI PUSH0 DUP1 REVERT JUMPDEST POP PUSH2 0x1B5 PUSH1 0x4 DUP1 CALLDATASIZE SUB DUP2 ADD SWAP1 PUSH2 0x1B0 SWAP2 SWAP1 PUSH2 0x13BF JUMP JUMPDEST PUSH2 0x4E1 JUMP JUMPDEST PUSH1 0x40 MLOAD PUSH2 0x1C2 SWAP2 SWAP1 PUSH2 0x12F3 JUMP JUMPDEST PUSH1 0x40 MLOAD DUP1 SWAP2 SUB SWAP1 RETURN JUMPDEST CALLVALUE DUP1 ISZERO PUSH2 0x1D6 JUMPI PUSH0 DUP1 REVERT JUMPDEST POP PUSH2 0x1F1 PUSH1 0x4 DUP1 CALLDATASIZE SUB DUP2 ADD SWAP1 PUSH2 0x1EC SWAP2 SWAP1 PUSH2 0x133A JUMP JUMPDEST PUSH2 0x584 JUMP JUMPDEST STOP JUMPDEST CALLVALUE DUP1 ISZERO PUSH2 0x1FE JUMPI PUSH0 DUP1 REVERT JUMPDEST POP PUSH2 0x207 PUSH2 0x895 JUMP JUMPDEST STOP JUMPDEST CALLVALUE DUP1 ISZERO PUSH2 0x214 JUMPI PUSH0 DUP1 REVERT JUMPDEST POP PUSH2 0x22F PUSH1 0x4 DUP1 CALLDATASIZE SUB DUP2 ADD SWAP1 PUSH2 0x22A SWAP2 SWAP1 PUSH2 0x133A JUMP JUMPDEST PUSH2 0xBB1 JUMP JUMPDEST STOP JUMPDEST CALLVALUE DUP1 ISZERO PUSH2 0x23C JUMPI PUSH0 DUP1 REVERT JUMPDEST POP PUSH2 0x245 PUSH2 0xD6E JUMP JUMPDEST PUSH1 0x40 MLOAD PUSH2 0x252 SWAP2 SWAP1 PUSH2 0x12F3 JUMP JUMPDEST PUSH1 0x40 MLOAD DUP1 SWAP2 SUB SWAP1 RETURN JUMPDEST CALLVALUE DUP1 ISZERO PUSH2 0x266 JUMPI PUSH0 DUP1 REVERT JUMPDEST POP PUSH2 0x281 PUSH1 0x4 DUP1 CALLDATASIZE SUB DUP2 ADD SWAP1 PUSH2 0x27C SWAP2 SWAP1 PUSH2 0x13BF JUMP JUMPDEST PUSH2 0xD74 JUMP JUMPDEST PUSH1 0x40 MLOAD PUSH2 0x28E SWAP2 SWAP1 PUSH2 0x12F3 JUMP JUMPDEST PUSH1 0x40 MLOAD DUP1 SWAP2 SUB SWAP1 RETURN JUMPDEST CALLVALUE DUP1 ISZERO PUSH2 0x2A2 JUMPI PUSH0 DUP1 REVERT JUMPDEST POP PUSH2 0x2AB PUSH2 0xD89 JUMP JUMPDEST PUSH1 0x40 MLOAD PUSH2 0x2B8 SWAP2 SWAP1 PUSH2 0x13F9 JUMP JUMPDEST PUSH1 0x40 MLOAD DUP1 SWAP2 SUB SWAP1 RETURN JUMPDEST CALLVALUE DUP1 ISZERO PUSH2 0x2CC JUMPI PUSH0 DUP1 REVERT JUMPDEST POP PUSH2 0x2D5 PUSH2 0xDAC JUMP JUMPDEST PUSH1 0x40 MLOAD PUSH2 0x2E2 SWAP2 SWAP1 PUSH2 0x12F3 JUMP JUMPDEST PUSH1 0x40 MLOAD DUP1 SWAP2 SUB SWAP1 RETURN JUMPDEST PUSH2 0x305 PUSH1 0x4 DUP1 CALLDATASIZE SUB DUP2 ADD SWAP1 PUSH2 0x300 SWAP2 SWAP1 PUSH2 0x133A JUMP JUMPDEST PUSH2 0xDB2 JUMP JUMPDEST STOP JUMPDEST CALLVALUE DUP1 ISZERO PUSH2 0x312 JUMPI PUSH0 DUP1 REVERT JUMPDEST POP PUSH2 0x32D PUSH1 0x4 DUP1 CALLDATASIZE SUB DUP2 ADD SWAP1 PUSH2 0x328 SWAP2 SWAP1 PUSH2 0x133A JUMP JUMPDEST PUSH2 0x10FF JUMP JUMPDEST STOP JUMPDEST CALLVALUE DUP1 ISZERO PUSH2 0x33A JUMPI PUSH0 DUP1 REVERT JUMPDEST POP PUSH2 0x355 PUSH1 0x4 DUP1 CALLDATASIZE SUB DUP2 ADD SWAP1 PUSH2 0x350 SWAP2 SWAP1 PUSH2 0x13BF JUMP JUMPDEST PUSH2 0x11CD JUMP JUMPDEST PUSH1 0x40 MLOAD PUSH2 0x362 SWAP2 SWAP1 PUSH2 0x12F3 JUMP JUMPDEST PUSH1 0x40 MLOAD DUP1 SWAP2 SUB SWAP1 RETURN JUMPDEST CALLVALUE DUP1 ISZERO PUSH2 0x376 JUMPI PUSH0 DUP1 REVERT JUMPDEST POP PUSH2 0x37F PUSH2 0x11E2 JUMP JUMPDEST PUSH1 0x40 MLOAD PUSH2 0x38C SWAP2 SWAP1 PUSH2 0x12F3 JUMP JUMPDEST PUSH1 0x40 MLOAD DUP1 SWAP2 SUB SWAP1 RETURN JUMPDEST CALLVALUE DUP1 ISZERO PUSH2 0x3A0 JUMPI PUSH0 DUP1 REVERT JUMPDEST POP PUSH2 0x3A9 PUSH2 0x11EB JUMP JUMPDEST PUSH1 0x40 MLOAD PUSH2 0x3B6 SWAP2 SWAP1 PUSH2 0x12F3 JUMP JUMPDEST PUSH1 0x40 MLOAD DUP1 SWAP2 SUB SWAP1 RETURN JUMPDEST CALLVALUE DUP1 ISZERO PUSH2 0x3CA JUMPI PUSH0 DUP1 REVERT JUMPDEST POP PUSH2 0x3D3 PUSH2 0x11F1 JUMP JUMPDEST PUSH1 0x40 MLOAD PUSH2 0x3E0 SWAP2 SWAP1 PUSH2 0x12F3 JUMP JUMPDEST PUSH1 0x40 MLOAD DUP1 SWAP2 SUB SWAP1 RETURN JUMPDEST CALLVALUE DUP1 ISZERO PUSH2 0x3F4 JUMPI PUSH0 DUP1 REVERT JUMPDEST POP PUSH2 0x3FD PUSH2 0x1256 JUMP JUMPDEST PUSH1 0x40 MLOAD PUSH2 0x40A SWAP2 SWAP1 PUSH2 0x146D JUMP JUMPDEST PUSH1 0x40 MLOAD DUP1 SWAP2 SUB SWAP1 RETURN JUMPDEST PUSH0 DUP1 SLOAD SWAP1 PUSH2 0x100 EXP SWAP1 DIV PUSH20 0xFFFFFFFFFFFFFFFFFFFFFFFFFFFFFFFFFFFFFFFF AND PUSH20 0xFFFFFFFFFFFFFFFFFFFFFFFFFFFFFFFFFFFFFFFF AND CALLER PUSH20 0xFFFFFFFFFFFFFFFFFFFFFFFFFFFFFFFFFFFFFFFF AND EQ PUSH2 0x4A0 JUMPI PUSH1 0x40 MLOAD PUSH32 0x8C379A000000000000000000000000000000000000000000000000000000000 DUP2 MSTORE PUSH1 0x4 ADD PUSH2 0x497 SWAP1 PUSH2 0x1506 JUMP JUMPDEST PUSH1 0x40 MLOAD DUP1 SWAP2 SUB SWAP1 REVERT JUMPDEST DUP1 PUSH1 0x2 DUP2 SWAP1 SSTORE POP PUSH32 0xB9FE32E4D5621B49C8E6F7B8158AF4D0EE904FA6B74843C5DB6F4F9D963CC35A DUP2 PUSH1 0x40 MLOAD PUSH2 0x4D6 SWAP2 SWAP1 PUSH2 0x12F3 JUMP JUMPDEST PUSH1 0x40 MLOAD DUP1 SWAP2 SUB SWAP1 LOG1 POP JUMP JUMPDEST PUSH0 PUSH1 0x1 PUSH0 SWAP1 SLOAD SWAP1 PUSH2 0x100 EXP SWAP1 DIV PUSH20 0xFFFFFFFFFFFFFFFFFFFFFFFFFFFFFFFFFFFFFFFF AND PUSH20 0xFFFFFFFFFFFFFFFFFFFFFFFFFFFFFFFFFFFFFFFF AND PUSH4 0xDD62ED3E DUP4 ADDRESS PUSH1 0x40 MLOAD DUP4 PUSH4 0xFFFFFFFF AND PUSH1 0xE0 SHL DUP2 MSTORE PUSH1 0x4 ADD PUSH2 0x53E SWAP3 SWAP2 SWAP1 PUSH2 0x1524 JUMP JUMPDEST PUSH1 0x20 PUSH1 0x40 MLOAD DUP1 DUP4 SUB DUP2 DUP7 GAS STATICCALL ISZERO DUP1 ISZERO PUSH2 0x559 JUMPI RETURNDATASIZE PUSH0 DUP1 RETURNDATACOPY RETURNDATASIZE PUSH0 REVERT JUMPDEST POP POP POP POP PUSH1 0x40 MLOAD RETURNDATASIZE PUSH1 0x1F NOT PUSH1 0x1F DUP3 ADD AND DUP3 ADD DUP1 PUSH1 0x40 MSTORE POP DUP2 ADD SWAP1 PUSH2 0x57D SWAP2 SWAP1 PUSH2 0x155F JUMP JUMPDEST SWAP1 POP SWAP2 SWAP1 POP JUMP JUMPDEST PUSH0 DUP1 SLOAD SWAP1 PUSH2 0x100 EXP SWAP1 DIV PUSH20 0xFFFFFFFFFFFFFFFFFFFFFFFFFFFFFFFFFFFFFFFF AND PUSH20 0xFFFFFFFFFFFFFFFFFFFFFFFFFFFFFFFFFFFFFFFF AND CALLER PUSH20 0xFFFFFFFFFFFFFFFFFFFFFFFFFFFFFFFFFFFFFFFF AND EQ PUSH2 0x611 JUMPI PUSH1 0x40 MLOAD PUSH32 0x8C379A000000000000000000000000000000000000000000000000000000000 DUP2 MSTORE PUSH1 0x4 ADD PUSH2 0x608 SWAP1 PUSH2 0x1506 JUMP JUMPDEST PUSH1 0x40 MLOAD DUP1 SWAP2 SUB SWAP1 REVERT JUMPDEST DUP1 PUSH1 0x5 PUSH0 PUSH1 0x1 PUSH0 SWAP1 SLOAD SWAP1 PUSH2 0x100 EXP SWAP1 DIV PUSH20 0xFFFFFFFFFFFFFFFFFFFFFFFFFFFFFFFFFFFFFFFF AND PUSH20 0xFFFFFFFFFFFFFFFFFFFFFFFFFFFFFFFFFFFFFFFF AND PUSH20 0xFFFFFFFFFFFFFFFFFFFFFFFFFFFFFFFFFFFFFFFF AND DUP2 MSTORE PUSH1 0x20 ADD SWAP1 DUP2 MSTORE PUSH1 0x20 ADD PUSH0 KECCAK256 SLOAD LT ISZERO PUSH2 0x6B2 JUMPI PUSH1 0x40 MLOAD PUSH32 0x8C379A000000000000000000000000000000000000000000000000000000000 DUP2 MSTORE PUSH1 0x4 ADD PUSH2 0x6A9 SWAP1 PUSH2 0x15D4 JUMP JUMPDEST PUSH1 0x40 MLOAD DUP1 SWAP2 SUB SWAP1 REVERT JUMPDEST PUSH0 PUSH1 0x1 PUSH0 SWAP1 SLOAD SWAP1 PUSH2 0x100 EXP SWAP1 DIV PUSH20 0xFFFFFFFFFFFFFFFFFFFFFFFFFFFFFFFFFFFFFFFF AND PUSH20 0xFFFFFFFFFFFFFFFFFFFFFFFFFFFFFFFFFFFFFFFF AND PUSH4 0xA9059CBB PUSH0 DUP1 SLOAD SWAP1 PUSH2 0x100 EXP SWAP1 DIV PUSH20 0xFFFFFFFFFFFFFFFFFFFFFFFFFFFFFFFFFFFFFFFF AND DUP5 PUSH1 0x40 MLOAD DUP4 PUSH4 0xFFFFFFFF AND PUSH1 0xE0 SHL DUP2 MSTORE PUSH1 0x4 ADD PUSH2 0x72E SWAP3 SWAP2 SWAP1 PUSH2 0x15F2 JUMP JUMPDEST PUSH1 0x20 PUSH1 0x40 MLOAD DUP1 DUP4 SUB DUP2 PUSH0 DUP8 GAS CALL ISZERO DUP1 ISZERO PUSH2 0x74A JUMPI RETURNDATASIZE PUSH0 DUP1 RETURNDATACOPY RETURNDATASIZE PUSH0 REVERT JUMPDEST POP POP POP POP PUSH1 0x40 MLOAD RETURNDATASIZE PUSH1 0x1F NOT PUSH1 0x1F DUP3 ADD AND DUP3 ADD DUP1 PUSH1 0x40 MSTORE POP DUP2 ADD SWAP1 PUSH2 0x76E SWAP2 SWAP1 PUSH2 0x164E JUMP JUMPDEST SWAP1 POP DUP1 PUSH2 0x7B0 JUMPI PUSH1 0x40 MLOAD PUSH32 0x8C379A000000000000000000000000000000000000000000000000000000000 DUP2 MSTORE PUSH1 0x4 ADD PUSH2 0x7A7 SWAP1 PUSH2 0x16C3 JUMP JUMPDEST PUSH1 0x40 MLOAD DUP1 SWAP2 SUB SWAP1 REVERT JUMPDEST DUP2 PUSH1 0x5 PUSH0 PUSH1 0x1 PUSH0 SWAP1 SLOAD SWAP1 PUSH2 0x100 EXP SWAP1 DIV PUSH20 0xFFFFFFFFFFFFFFFFFFFFFFFFFFFFFFFFFFFFFFFF AND PUSH20 0xFFFFFFFFFFFFFFFFFFFFFFFFFFFFFFFFFFFFFFFF AND PUSH20 0xFFFFFFFFFFFFFFFFFFFFFFFFFFFFFFFFFFFFFFFF AND DUP2 MSTORE PUSH1 0x20 ADD SWAP1 DUP2 MSTORE PUSH1 0x20 ADD PUSH0 KECCAK256 PUSH0 DUP3 DUP3 SLOAD PUSH2 0x81D SWAP2 SWAP1 PUSH2 0x16E1 JUMP JUMPDEST SWAP3 POP POP DUP2 SWAP1 SSTORE POP PUSH0 DUP1 SLOAD SWAP1 PUSH2 0x100 EXP SWAP1 DIV PUSH20 0xFFFFFFFFFFFFFFFFFFFFFFFFFFFFFFFFFFFFFFFF AND PUSH20 0xFFFFFFFFFFFFFFFFFFFFFFFFFFFFFFFFFFFFFFFF AND PUSH32 0x6352C5382C4A4578E712449CA65E83CDB392D045DFCF1CAD9615189DB2DA244B DUP4 PUSH1 0x40 MLOAD PUSH2 0x889 SWAP2 SWAP1 PUSH2 0x12F3 JUMP JUMPDEST PUSH1 0x40 MLOAD DUP1 SWAP2 SUB SWAP1 LOG2 POP POP JUMP JUMPDEST PUSH1 0x4 PUSH0 CALLER PUSH20 0xFFFFFFFFFFFFFFFFFFFFFFFFFFFFFFFFFFFFFFFF AND PUSH20 0xFFFFFFFFFFFFFFFFFFFFFFFFFFFFFFFFFFFFFFFF AND DUP2 MSTORE PUSH1 0x20 ADD SWAP1 DUP2 MSTORE PUSH1 0x20 ADD PUSH0 KECCAK256 SLOAD TIMESTAMP LT ISZERO PUSH2 0x915 JUMPI PUSH1 0x40 MLOAD PUSH32 0x8C379A000000000000000000000000000000000000000000000000000000000 DUP2 MSTORE PUSH1 0x4 ADD PUSH2 0x90C SWAP1 PUSH2 0x1784 JUMP JUMPDEST PUSH1 0x40 MLOAD DUP1 SWAP2 SUB SWAP1 REVERT JUMPDEST PUSH1 0x2 SLOAD PUSH1 0x5 PUSH0 PUSH1 0x1 PUSH0 SWAP1 SLOAD SWAP1 PUSH2 0x100 EXP SWAP1 DIV PUSH20 0xFFFFFFFFFFFFFFFFFFFFFFFFFFFFFFFFFFFFFFFF AND PUSH20 0xFFFFFFFFFFFFFFFFFFFFFFFFFFFFFFFFFFFFFFFF AND PUSH20 0xFFFFFFFFFFFFFFFFFFFFFFFFFFFFFFFFFFFFFFFF AND DUP2 MSTORE PUSH1 0x20 ADD SWAP1 DUP2 MSTORE PUSH1 0x20 ADD PUSH0 KECCAK256 SLOAD LT ISZERO PUSH2 0x9B8 JUMPI PUSH1 0x40 MLOAD PUSH32 0x8C379A000000000000000000000000000000000000000000000000000000000 DUP2 MSTORE PUSH1 0x4 ADD PUSH2 0x9AF SWAP1 PUSH2 0x1812 JUMP JUMPDEST PUSH1 0x40 MLOAD DUP1 SWAP2 SUB SWAP1 REVERT JUMPDEST PUSH0 PUSH1 0x1 PUSH0 SWAP1 SLOAD SWAP1 PUSH2 0x100 EXP SWAP1 DIV PUSH20 0xFFFFFFFFFFFFFFFFFFFFFFFFFFFFFFFFFFFFFFFF AND PUSH20 0xFFFFFFFFFFFFFFFFFFFFFFFFFFFFFFFFFFFFFFFF AND PUSH4 0xA9059CBB CALLER PUSH1 0x2 SLOAD PUSH1 0x40 MLOAD DUP4 PUSH4 0xFFFFFFFF AND PUSH1 0xE0 SHL DUP2 MSTORE PUSH1 0x4 ADD PUSH2 0xA17 SWAP3 SWAP2 SWAP1 PUSH2 0x15F2 JUMP JUMPDEST PUSH1 0x20 PUSH1 0x40 MLOAD DUP1 DUP4 SUB DUP2 PUSH0 DUP8 GAS CALL ISZERO DUP1 ISZERO PUSH2 0xA33 JUMPI RETURNDATASIZE PUSH0 DUP1 RETURNDATACOPY RETURNDATASIZE PUSH0 REVERT JUMPDEST POP POP POP POP PUSH1 0x40 MLOAD RETURNDATASIZE PUSH1 0x1F NOT PUSH1 0x1F DUP3 ADD AND DUP3 ADD DUP1 PUSH1 0x40 MSTORE POP DUP2 ADD SWAP1 PUSH2 0xA57 SWAP2 SWAP1 PUSH2 0x164E JUMP JUMPDEST SWAP1 POP DUP1 PUSH2 0xA99 JUMPI PUSH1 0x40 MLOAD PUSH32 0x8C379A000000000000000000000000000000000000000000000000000000000 DUP2 MSTORE PUSH1 0x4 ADD PUSH2 0xA90 SWAP1 PUSH2 0x16C3 JUMP JUMPDEST PUSH1 0x40 MLOAD DUP1 SWAP2 SUB SWAP1 REVERT JUMPDEST PUSH1 0x2 SLOAD PUSH1 0x5 PUSH0 PUSH1 0x1 PUSH0 SWAP1 SLOAD SWAP1 PUSH2 0x100 EXP SWAP1 DIV PUSH20 0xFFFFFFFFFFFFFFFFFFFFFFFFFFFFFFFFFFFFFFFF AND PUSH20 0xFFFFFFFFFFFFFFFFFFFFFFFFFFFFFFFFFFFFFFFF AND PUSH20 0xFFFFFFFFFFFFFFFFFFFFFFFFFFFFFFFFFFFFFFFF AND DUP2 MSTORE PUSH1 0x20 ADD SWAP1 DUP2 MSTORE PUSH1 0x20 ADD PUSH0 KECCAK256 PUSH0 DUP3 DUP3 SLOAD PUSH2 0xB08 SWAP2 SWAP1 PUSH2 0x16E1 JUMP JUMPDEST SWAP3 POP POP DUP2 SWAP1 SSTORE POP PUSH1 0x3 SLOAD TIMESTAMP PUSH2 0xB1D SWAP2 SWAP1 PUSH2 0x12B1 JUMP JUMPDEST PUSH1 0x4 PUSH0 CALLER PUSH20 0xFFFFFFFFFFFFFFFFFFFFFFFFFFFFFFFFFFFFFFFF AND PUSH20 0xFFFFFFFFFFFFFFFFFFFFFFFFFFFFFFFFFFFFFFFF AND DUP2 MSTORE PUSH1 0x20 ADD SWAP1 DUP2 MSTORE PUSH1 0x20 ADD PUSH0 KECCAK256 DUP2 SWAP1 SSTORE POP CALLER PUSH20 0xFFFFFFFFFFFFFFFFFFFFFFFFFFFFFFFFFFFFFFFF AND PUSH32 0xC3FB6C98272D7A0D5DC26727B61C00ECE2E5BF3DBDC0284659E28D441C1CE06C PUSH1 0x2 SLOAD PUSH1 0x40 MLOAD PUSH2 0xBA6 SWAP2 SWAP1 PUSH2 0x12F3 JUMP JUMPDEST PUSH1 0x40 MLOAD DUP1 SWAP2 SUB SWAP1 LOG2 POP JUMP JUMPDEST PUSH0 DUP1 SLOAD SWAP1 PUSH2 0x100 EXP SWAP1 DIV PUSH20 0xFFFFFFFFFFFFFFFFFFFFFFFFFFFFFFFFFFFFFFFF AND PUSH20 0xFFFFFFFFFFFFFFFFFFFFFFFFFFFFFFFFFFFFFFFF AND CALLER PUSH20 0xFFFFFFFFFFFFFFFFFFFFFFFFFFFFFFFFFFFFFFFF AND EQ PUSH2 0xC3E JUMPI PUSH1 0x40 MLOAD PUSH32 0x8C379A000000000000000000000000000000000000000000000000000000000 DUP2 MSTORE PUSH1 0x4 ADD PUSH2 0xC35 SWAP1 PUSH2 0x1506 JUMP JUMPDEST PUSH1 0x40 MLOAD DUP1 SWAP2 SUB SWAP1 REVERT JUMPDEST DUP1 PUSH1 0x6 SLOAD LT ISZERO PUSH2 0xC83 JUMPI PUSH1 0x40 MLOAD PUSH32 0x8C379A000000000000000000000000000000000000000000000000000000000 DUP2 MSTORE PUSH1 0x4 ADD PUSH2 0xC7A SWAP1 PUSH2 0x187A JUMP JUMPDEST PUSH1 0x40 MLOAD DUP1 SWAP2 SUB SWAP1 REVERT JUMPDEST PUSH0 DUP1 SLOAD SWAP1 PUSH2 0x100 EXP SWAP1 DIV PUSH20 0xFFFFFFFFFFFFFFFFFFFFFFFFFFFFFFFFFFFFFFFF AND PUSH20 0xFFFFFFFFFFFFFFFFFFFFFFFFFFFFFFFFFFFFFFFF AND PUSH2 0x8FC DUP3 SWAP1 DUP2 ISZERO MUL SWAP1 PUSH1 0x40 MLOAD PUSH0 PUSH1 0x40 MLOAD DUP1 DUP4 SUB DUP2 DUP6 DUP9 DUP9 CALL SWAP4 POP POP POP POP ISZERO DUP1 ISZERO PUSH2 0xCE5 JUMPI RETURNDATASIZE PUSH0 DUP1 RETURNDATACOPY RETURNDATASIZE PUSH0 REVERT JUMPDEST POP DUP1 PUSH1 0x6 PUSH0 DUP3 DUP3 SLOAD PUSH2 0xCF7 SWAP2 SWAP1 PUSH2 0x16E1 JUMP JUMPDEST SWAP3 POP POP DUP2 SWAP1 SSTORE POP PUSH0 DUP1 SLOAD SWAP1 PUSH2 0x100 EXP SWAP1 DIV PUSH20 0xFFFFFFFFFFFFFFFFFFFFFFFFFFFFFFFFFFFFFFFF AND PUSH20 0xFFFFFFFFFFFFFFFFFFFFFFFFFFFFFFFFFFFFFFFF AND PUSH32 0x6097061AEDA806B5E9CB4133D9899F332FF0913956567FC0F7EA15E3D19947C DUP3 PUSH1 0x40 MLOAD PUSH2 0xD63 SWAP2 SWAP1 PUSH2 0x12F3 JUMP JUMPDEST PUSH1 0x40 MLOAD DUP1 SWAP2 SUB SWAP1 LOG2 POP JUMP JUMPDEST PUSH1 0x6 SLOAD DUP2 JUMP JUMPDEST PUSH1 0x5 PUSH1 0x20 MSTORE DUP1 PUSH0 MSTORE PUSH1 0x40 PUSH0 KECCAK256 PUSH0 SWAP2 POP SWAP1 POP SLOAD DUP2 JUMP JUMPDEST PUSH0 DUP1 SLOAD SWAP1 PUSH2 0x100 EXP SWAP1 DIV PUSH20 0xFFFFFFFFFFFFFFFFFFFFFFFFFFFFFFFFFFFFFFFF AND DUP2 JUMP JUMPDEST PUSH1 0x3 SLOAD DUP2 JUMP JUMPDEST PUSH0 DUP2 GT DUP1 PUSH2 0xDBF JUMPI POP PUSH0 CALLVALUE GT JUMPDEST PUSH2 0xDFE JUMPI PUSH1 0x40 MLOAD PUSH32 0x8C379A000000000000000000000000000000000000000000000000000000000 DUP2 MSTORE PUSH1 0x4 ADD PUSH2 0xDF5 SWAP1 PUSH2 0x1908 JUMP JUMPDEST PUSH1 0x40 MLOAD DUP1 SWAP2 SUB SWAP1 REVERT JUMPDEST PUSH0 DUP2 GT ISZERO PUSH2 0x108D JUMPI PUSH0 PUSH1 0x1 PUSH0 SWAP1 SLOAD SWAP1 PUSH2 0x100 EXP SWAP1 DIV PUSH20 0xFFFFFFFFFFFFFFFFFFFFFFFFFFFFFFFFFFFFFFFF AND PUSH20 0xFFFFFFFFFFFFFFFFFFFFFFFFFFFFFFFFFFFFFFFF AND PUSH4 0xDD62ED3E CALLER ADDRESS PUSH1 0x40 MLOAD DUP4 PUSH4 0xFFFFFFFF AND PUSH1 0xE0 SHL DUP2 MSTORE PUSH1 0x4 ADD PUSH2 0xE63 SWAP3 SWAP2 SWAP1 PUSH2 0x1524 JUMP JUMPDEST PUSH1 0x20 PUSH1 0x40 MLOAD DUP1 DUP4 SUB DUP2 DUP7 GAS STATICCALL ISZERO DUP1 ISZERO PUSH2 0xE7E JUMPI RETURNDATASIZE PUSH0 DUP1 RETURNDATACOPY RETURNDATASIZE PUSH0 REVERT JUMPDEST POP POP POP POP PUSH1 0x40 MLOAD RETURNDATASIZE PUSH1 0x1F NOT PUSH1 0x1F DUP3 ADD AND DUP3 ADD DUP1 PUSH1 0x40 MSTORE POP DUP2 ADD SWAP1 PUSH2 0xEA2 SWAP2 SWAP1 PUSH2 0x155F JUMP JUMPDEST SWAP1 POP DUP2 DUP2 LT ISZERO PUSH2 0xEE7 JUMPI PUSH1 0x40 MLOAD PUSH32 0x8C379A000000000000000000000000000000000000000000000000000000000 DUP2 MSTORE PUSH1 0x4 ADD PUSH2 0xEDE SWAP1 PUSH2 0x19BC JUMP JUMPDEST PUSH1 0x40 MLOAD DUP1 SWAP2 SUB SWAP1 REVERT JUMPDEST PUSH0 PUSH1 0x1 PUSH0 SWAP1 SLOAD SWAP1 PUSH2 0x100 EXP SWAP1 DIV PUSH20 0xFFFFFFFFFFFFFFFFFFFFFFFFFFFFFFFFFFFFFFFF AND PUSH20 0xFFFFFFFFFFFFFFFFFFFFFFFFFFFFFFFFFFFFFFFF AND PUSH4 0x23B872DD CALLER ADDRESS DUP7 PUSH1 0x40 MLOAD DUP5 PUSH4 0xFFFFFFFF AND PUSH1 0xE0 SHL DUP2 MSTORE PUSH1 0x4 ADD PUSH2 0xF46 SWAP4 SWAP3 SWAP2 SWAP1 PUSH2 0x19DA JUMP JUMPDEST PUSH1 0x20 PUSH1 0x40 MLOAD DUP1 DUP4 SUB DUP2 PUSH0 DUP8 GAS CALL ISZERO DUP1 ISZERO PUSH2 0xF62 JUMPI RETURNDATASIZE PUSH0 DUP1 RETURNDATACOPY RETURNDATASIZE PUSH0 REVERT JUMPDEST POP POP POP POP PUSH1 0x40 MLOAD RETURNDATASIZE PUSH1 0x1F NOT PUSH1 0x1F DUP3 ADD AND DUP3 ADD DUP1 PUSH1 0x40 MSTORE POP DUP2 ADD SWAP1 PUSH2 0xF86 SWAP2 SWAP1 PUSH2 0x164E JUMP JUMPDEST SWAP1 POP DUP1 PUSH2 0xFC8 JUMPI PUSH1 0x40 MLOAD PUSH32 0x8C379A000000000000000000000000000000000000000000000000000000000 DUP2 MSTORE PUSH1 0x4 ADD PUSH2 0xFBF SWAP1 PUSH2 0x16C3 JUMP JUMPDEST PUSH1 0x40 MLOAD DUP1 SWAP2 SUB SWAP1 REVERT JUMPDEST DUP3 PUSH1 0x5 PUSH0 PUSH1 0x1 PUSH0 SWAP1 SLOAD SWAP1 PUSH2 0x100 EXP SWAP1 DIV PUSH20 0xFFFFFFFFFFFFFFFFFFFFFFFFFFFFFFFFFFFFFFFF AND PUSH20 0xFFFFFFFFFFFFFFFFFFFFFFFFFFFFFFFFFFFFFFFF AND PUSH20 0xFFFFFFFFFFFFFFFFFFFFFFFFFFFFFFFFFFFFFFFF AND DUP2 MSTORE PUSH1 0x20 ADD SWAP1 DUP2 MSTORE PUSH1 0x20 ADD PUSH0 KECCAK256 PUSH0 DUP3 DUP3 SLOAD PUSH2 0x1035 SWAP2 SWAP1 PUSH2 0x12B1 JUMP JUMPDEST SWAP3 POP POP DUP2 SWAP1 SSTORE POP CALLER PUSH20 0xFFFFFFFFFFFFFFFFFFFFFFFFFFFFFFFFFFFFFFFF AND PUSH32 0x59062170A285EB80E8C6B8CED60428442A51910635005233FC4CE084A475845E DUP5 PUSH1 0x40 MLOAD PUSH2 0x1082 SWAP2 SWAP1 PUSH2 0x12F3 JUMP JUMPDEST PUSH1 0x40 MLOAD DUP1 SWAP2 SUB SWAP1 LOG2 POP POP JUMPDEST PUSH0 CALLVALUE GT ISZERO PUSH2 0x10FC JUMPI CALLVALUE PUSH1 0x6 PUSH0 DUP3 DUP3 SLOAD PUSH2 0x10A6 SWAP2 SWAP1 PUSH2 0x12B1 JUMP JUMPDEST SWAP3 POP POP DUP2 SWAP1 SSTORE POP CALLER PUSH20 0xFFFFFFFFFFFFFFFFFFFFFFFFFFFFFFFFFFFFFFFF AND PUSH32 0x939E51AC2FD009B158D6344F7E68A83D8D18D9B0CC88CF514AAC6AAA9CAD2A18 CALLVALUE PUSH1 0x40 MLOAD PUSH2 0x10F3 SWAP2 SWAP1 PUSH2 0x12F3 JUMP JUMPDEST PUSH1 0x40 MLOAD DUP1 SWAP2 SUB SWAP1 LOG2 JUMPDEST POP JUMP JUMPDEST PUSH0 DUP1 SLOAD SWAP1 PUSH2 0x100 EXP SWAP1 DIV PUSH20 0xFFFFFFFFFFFFFFFFFFFFFFFFFFFFFFFFFFFFFFFF AND PUSH20 0xFFFFFFFFFFFFFFFFFFFFFFFFFFFFFFFFFFFFFFFF AND CALLER PUSH20 0xFFFFFFFFFFFFFFFFFFFFFFFFFFFFFFFFFFFFFFFF AND EQ PUSH2 0x118C JUMPI PUSH1 0x40 MLOAD PUSH32 0x8C379A000000000000000000000000000000000000000000000000000000000 DUP2 MSTORE PUSH1 0x4 ADD PUSH2 0x1183 SWAP1 PUSH2 0x1506 JUMP JUMPDEST PUSH1 0x40 MLOAD DUP1 SWAP2 SUB SWAP1 REVERT JUMPDEST DUP1 PUSH1 0x3 DUP2 SWAP1 SSTORE POP PUSH32 0xD7A3703F78487664FD138129246EED2D18E2FBBE550EA6839EB8717034543A52 DUP2 PUSH1 0x40 MLOAD PUSH2 0x11C2 SWAP2 SWAP1 PUSH2 0x12F3 JUMP JUMPDEST PUSH1 0x40 MLOAD DUP1 SWAP2 SUB SWAP1 LOG1 POP JUMP JUMPDEST PUSH1 0x4 PUSH1 0x20 MSTORE DUP1 PUSH0 MSTORE PUSH1 0x40 PUSH0 KECCAK256 PUSH0 SWAP2 POP SWAP1 POP SLOAD DUP2 JUMP JUMPDEST PUSH0 PUSH1 0x6 SLOAD SWAP1 POP SWAP1 JUMP JUMPDEST PUSH1 0x2 SLOAD DUP2 JUMP JUMPDEST PUSH0 PUSH1 0x5 PUSH0 PUSH1 0x1 PUSH0 SWAP1 SLOAD SWAP1 PUSH2 0x100 EXP SWAP1 DIV PUSH20 0xFFFFFFFFFFFFFFFFFFFFFFFFFFFFFFFFFFFFFFFF AND PUSH20 0xFFFFFFFFFFFFFFFFFFFFFFFFFFFFFFFFFFFFFFFF AND PUSH20 0xFFFFFFFFFFFFFFFFFFFFFFFFFFFFFFFFFFFFFFFF AND DUP2 MSTORE PUSH1 0x20 ADD SWAP1 DUP2 MSTORE PUSH1 0x20 ADD PUSH0 KECCAK256 SLOAD SWAP1 POP SWAP1 JUMP JUMPDEST PUSH1 0x1 PUSH0 SWAP1 SLOAD SWAP1 PUSH2 0x100 EXP SWAP1 DIV PUSH20 0xFFFFFFFFFFFFFFFFFFFFFFFFFFFFFFFFFFFFFFFF AND DUP2 JUMP JUMPDEST PUSH0 DUP2 SWAP1 POP SWAP2 SWAP1 POP JUMP JUMPDEST PUSH32 0x4E487B7100000000000000000000000000000000000000000000000000000000 PUSH0 MSTORE PUSH1 0x11 PUSH1 0x4 MSTORE PUSH1 0x24 PUSH0 REVERT JUMPDEST PUSH0 PUSH2 0x12BB DUP3 PUSH2 0x127B JUMP JUMPDEST SWAP2 POP PUSH2 0x12C6 DUP4 PUSH2 0x127B JUMP JUMPDEST SWAP3 POP DUP3 DUP3 ADD SWAP1 POP DUP1 DUP3 GT ISZERO PUSH2 0x12DE JUMPI PUSH2 0x12DD PUSH2 0x1284 JUMP JUMPDEST JUMPDEST SWAP3 SWAP2 POP POP JUMP JUMPDEST PUSH2 0x12ED DUP2 PUSH2 0x127B JUMP JUMPDEST DUP3 MSTORE POP POP JUMP JUMPDEST PUSH0 PUSH1 0x20 DUP3 ADD SWAP1 POP PUSH2 0x1306 PUSH0 DUP4 ADD DUP5 PUSH2 0x12E4 JUMP JUMPDEST SWAP3 SWAP2 POP POP JUMP JUMPDEST PUSH0 DUP1 REVERT JUMPDEST PUSH2 0x1319 DUP2 PUSH2 0x127B JUMP JUMPDEST DUP2 EQ PUSH2 0x1323 JUMPI PUSH0 DUP1 REVERT JUMPDEST POP JUMP JUMPDEST PUSH0 DUP2 CALLDATALOAD SWAP1 POP PUSH2 0x1334 DUP2 PUSH2 0x1310 JUMP JUMPDEST SWAP3 SWAP2 POP POP JUMP JUMPDEST PUSH0 PUSH1 0x20 DUP3 DUP5 SUB SLT ISZERO PUSH2 0x134F JUMPI PUSH2 0x134E PUSH2 0x130C JUMP JUMPDEST JUMPDEST PUSH0 PUSH2 0x135C DUP5 DUP3 DUP6 ADD PUSH2 0x1326 JUMP JUMPDEST SWAP2 POP POP SWAP3 SWAP2 POP POP JUMP JUMPDEST PUSH0 PUSH20 0xFFFFFFFFFFFFFFFFFFFFFFFFFFFFFFFFFFFFFFFF DUP3 AND SWAP1 POP SWAP2 SWAP1 POP JUMP JUMPDEST PUSH0 PUSH2 0x138E DUP3 PUSH2 0x1365 JUMP JUMPDEST SWAP1 POP SWAP2 SWAP1 POP JUMP JUMPDEST PUSH2 0x139E DUP2 PUSH2 0x1384 JUMP JUMPDEST DUP2 EQ PUSH2 0x13A8 JUMPI PUSH0 DUP1 REVERT JUMPDEST POP JUMP JUMPDEST PUSH0 DUP2 CALLDATALOAD SWAP1 POP PUSH2 0x13B9 DUP2 PUSH2 0x1395 JUMP JUMPDEST SWAP3 SWAP2 POP POP JUMP JUMPDEST PUSH0 PUSH1 0x20 DUP3 DUP5 SUB SLT ISZERO PUSH2 0x13D4 JUMPI PUSH2 0x13D3 PUSH2 0x130C JUMP JUMPDEST JUMPDEST PUSH0 PUSH2 0x13E1 DUP5 DUP3 DUP6 ADD PUSH2 0x13AB JUMP JUMPDEST SWAP2 POP POP SWAP3 SWAP2 POP POP JUMP JUMPDEST PUSH2 0x13F3 DUP2 PUSH2 0x1384 JUMP JUMPDEST DUP3 MSTORE POP POP JUMP JUMPDEST PUSH0 PUSH1 0x20 DUP3 ADD SWAP1 POP PUSH2 0x140C PUSH0 DUP4 ADD DUP5 PUSH2 0x13EA JUMP JUMPDEST SWAP3 SWAP2 POP POP JUMP JUMPDEST PUSH0 DUP2 SWAP1 POP SWAP2 SWAP1 POP JUMP JUMPDEST PUSH0 PUSH2 0x1435 PUSH2 0x1430 PUSH2 0x142B DUP5 PUSH2 0x1365 JUMP JUMPDEST PUSH2 0x1412 JUMP JUMPDEST PUSH2 0x1365 JUMP JUMPDEST SWAP1 POP SWAP2 SWAP1 POP JUMP JUMPDEST PUSH0 PUSH2 0x1446 DUP3 PUSH2 0x141B JUMP JUMPDEST SWAP1 POP SWAP2 SWAP1 POP JUMP JUMPDEST PUSH0 PUSH2 0x1457 DUP3 PUSH2 0x143C JUMP JUMPDEST SWAP1 POP SWAP2 SWAP1 POP JUMP JUMPDEST PUSH2 0x1467 DUP2 PUSH2 0x144D JUMP JUMPDEST DUP3 MSTORE POP POP JUMP JUMPDEST PUSH0 PUSH1 0x20 DUP3 ADD SWAP1 POP PUSH2 0x1480 PUSH0 DUP4 ADD DUP5 PUSH2 0x145E JUMP JUMPDEST SWAP3 SWAP2 POP POP JUMP JUMPDEST PUSH0 DUP3 DUP3 MSTORE PUSH1 0x20 DUP3 ADD SWAP1 POP SWAP3 SWAP2 POP POP JUMP JUMPDEST PUSH32 0x4F6E6C79206F776E65722063616E206578656375746520746869732066756E63 PUSH0 DUP3 ADD MSTORE PUSH32 0x74696F6E00000000000000000000000000000000000000000000000000000000 PUSH1 0x20 DUP3 ADD MSTORE POP JUMP JUMPDEST PUSH0 PUSH2 0x14F0 PUSH1 0x24 DUP4 PUSH2 0x1486 JUMP JUMPDEST SWAP2 POP PUSH2 0x14FB DUP3 PUSH2 0x1496 JUMP JUMPDEST PUSH1 0x40 DUP3 ADD SWAP1 POP SWAP2 SWAP1 POP JUMP JUMPDEST PUSH0 PUSH1 0x20 DUP3 ADD SWAP1 POP DUP2 DUP2 SUB PUSH0 DUP4 ADD MSTORE PUSH2 0x151D DUP2 PUSH2 0x14E4 JUMP JUMPDEST SWAP1 POP SWAP2 SWAP1 POP JUMP JUMPDEST PUSH0 PUSH1 0x40 DUP3 ADD SWAP1 POP PUSH2 0x1537 PUSH0 DUP4 ADD DUP6 PUSH2 0x13EA JUMP JUMPDEST PUSH2 0x1544 PUSH1 0x20 DUP4 ADD DUP5 PUSH2 0x13EA JUMP JUMPDEST SWAP4 SWAP3 POP POP POP JUMP JUMPDEST PUSH0 DUP2 MLOAD SWAP1 POP PUSH2 0x1559 DUP2 PUSH2 0x1310 JUMP JUMPDEST SWAP3 SWAP2 POP POP JUMP JUMPDEST PUSH0 PUSH1 0x20 DUP3 DUP5 SUB SLT ISZERO PUSH2 0x1574 JUMPI PUSH2 0x1573 PUSH2 0x130C JUMP JUMPDEST JUMPDEST PUSH0 PUSH2 0x1581 DUP5 DUP3 DUP6 ADD PUSH2 0x154B JUMP JUMPDEST SWAP2 POP POP SWAP3 SWAP2 POP POP JUMP JUMPDEST PUSH32 0x4E6F7420656E6F75676820746F6B656E7320696E206661756365740000000000 PUSH0 DUP3 ADD MSTORE POP JUMP JUMPDEST PUSH0 PUSH2 0x15BE PUSH1 0x1B DUP4 PUSH2 0x1486 JUMP JUMPDEST SWAP2 POP PUSH2 0x15C9 DUP3 PUSH2 0x158A JUMP JUMPDEST PUSH1 0x20 DUP3 ADD SWAP1 POP SWAP2 SWAP1 POP JUMP JUMPDEST PUSH0 PUSH1 0x20 DUP3 ADD SWAP1 POP DUP2 DUP2 SUB PUSH0 DUP4 ADD MSTORE PUSH2 0x15EB DUP2 PUSH2 0x15B2 JUMP JUMPDEST SWAP1 POP SWAP2 SWAP1 POP JUMP JUMPDEST PUSH0 PUSH1 0x40 DUP3 ADD SWAP1 POP PUSH2 0x1605 PUSH0 DUP4 ADD DUP6 PUSH2 0x13EA JUMP JUMPDEST PUSH2 0x1612 PUSH1 0x20 DUP4 ADD DUP5 PUSH2 0x12E4 JUMP JUMPDEST SWAP4 SWAP3 POP POP POP JUMP JUMPDEST PUSH0 DUP2 ISZERO ISZERO SWAP1 POP SWAP2 SWAP1 POP JUMP JUMPDEST PUSH2 0x162D DUP2 PUSH2 0x1619 JUMP JUMPDEST DUP2 EQ PUSH2 0x1637 JUMPI PUSH0 DUP1 REVERT JUMPDEST POP JUMP JUMPDEST PUSH0 DUP2 MLOAD SWAP1 POP PUSH2 0x1648 DUP2 PUSH2 0x1624 JUMP JUMPDEST SWAP3 SWAP2 POP POP JUMP JUMPDEST PUSH0 PUSH1 0x20 DUP3 DUP5 SUB SLT ISZERO PUSH2 0x1663 JUMPI PUSH2 0x1662 PUSH2 0x130C JUMP JUMPDEST JUMPDEST PUSH0 PUSH2 0x1670 DUP5 DUP3 DUP6 ADD PUSH2 0x163A JUMP JUMPDEST SWAP2 POP POP SWAP3 SWAP2 POP POP JUMP JUMPDEST PUSH32 0x546F6B656E207472616E73666572206661696C65640000000000000000000000 PUSH0 DUP3 ADD MSTORE POP JUMP JUMPDEST PUSH0 PUSH2 0x16AD PUSH1 0x15 DUP4 PUSH2 0x1486 JUMP JUMPDEST SWAP2 POP PUSH2 0x16B8 DUP3 PUSH2 0x1679 JUMP JUMPDEST PUSH1 0x20 DUP3 ADD SWAP1 POP SWAP2 SWAP1 POP JUMP JUMPDEST PUSH0 PUSH1 0x20 DUP3 ADD SWAP1 POP DUP2 DUP2 SUB PUSH0 DUP4 ADD MSTORE PUSH2 0x16DA DUP2 PUSH2 0x16A1 JUMP JUMPDEST SWAP1 POP SWAP2 SWAP1 POP JUMP JUMPDEST PUSH0 PUSH2 0x16EB DUP3 PUSH2 0x127B JUMP JUMPDEST SWAP2 POP PUSH2 0x16F6 DUP4 PUSH2 0x127B JUMP JUMPDEST SWAP3 POP DUP3 DUP3 SUB SWAP1 POP DUP2 DUP2 GT ISZERO PUSH2 0x170E JUMPI PUSH2 0x170D PUSH2 0x1284 JUMP JUMPDEST JUMPDEST SWAP3 SWAP2 POP POP JUMP JUMPDEST PUSH32 0x506C656173652077616974206265666F72652072657175657374696E6720746F PUSH0 DUP3 ADD MSTORE PUSH32 0x6B656E7320616761696E00000000000000000000000000000000000000000000 PUSH1 0x20 DUP3 ADD MSTORE POP JUMP JUMPDEST PUSH0 PUSH2 0x176E PUSH1 0x2A DUP4 PUSH2 0x1486 JUMP JUMPDEST SWAP2 POP PUSH2 0x1779 DUP3 PUSH2 0x1714 JUMP JUMPDEST PUSH1 0x40 DUP3 ADD SWAP1 POP SWAP2 SWAP1 POP JUMP JUMPDEST PUSH0 PUSH1 0x20 DUP3 ADD SWAP1 POP DUP2 DUP2 SUB PUSH0 DUP4 ADD MSTORE PUSH2 0x179B DUP2 PUSH2 0x1762 JUMP JUMPDEST SWAP1 POP SWAP2 SWAP1 POP JUMP JUMPDEST PUSH32 0x46617563657420697320656D7074792C206465706F736974206D6F726520746F PUSH0 DUP3 ADD MSTORE PUSH32 0x6B656E7300000000000000000000000000000000000000000000000000000000 PUSH1 0x20 DUP3 ADD MSTORE POP JUMP JUMPDEST PUSH0 PUSH2 0x17FC PUSH1 0x24 DUP4 PUSH2 0x1486 JUMP JUMPDEST SWAP2 POP PUSH2 0x1807 DUP3 PUSH2 0x17A2 JUMP JUMPDEST PUSH1 0x40 DUP3 ADD SWAP1 POP SWAP2 SWAP1 POP JUMP JUMPDEST PUSH0 PUSH1 0x20 DUP3 ADD SWAP1 POP DUP2 DUP2 SUB PUSH0 DUP4 ADD MSTORE PUSH2 0x1829 DUP2 PUSH2 0x17F0 JUMP JUMPDEST SWAP1 POP SWAP2 SWAP1 POP JUMP JUMPDEST PUSH32 0x4E6F7420656E6F75676820457468657220696E20666175636574000000000000 PUSH0 DUP3 ADD MSTORE POP JUMP JUMPDEST PUSH0 PUSH2 0x1864 PUSH1 0x1A DUP4 PUSH2 0x1486 JUMP JUMPDEST SWAP2 POP PUSH2 0x186F DUP3 PUSH2 0x1830 JUMP JUMPDEST PUSH1 0x20 DUP3 ADD SWAP1 POP SWAP2 SWAP1 POP JUMP JUMPDEST PUSH0 PUSH1 0x20 DUP3 ADD SWAP1 POP DUP2 DUP2 SUB PUSH0 DUP4 ADD MSTORE PUSH2 0x1891 DUP2 PUSH2 0x1858 JUMP JUMPDEST SWAP1 POP SWAP2 SWAP1 POP JUMP JUMPDEST PUSH32 0x4D757374206465706F7369742065697468657220746F6B656E73206F72204554 PUSH0 DUP3 ADD MSTORE PUSH32 0x4800000000000000000000000000000000000000000000000000000000000000 PUSH1 0x20 DUP3 ADD MSTORE POP JUMP JUMPDEST PUSH0 PUSH2 0x18F2 PUSH1 0x21 DUP4 PUSH2 0x1486 JUMP JUMPDEST SWAP2 POP PUSH2 0x18FD DUP3 PUSH2 0x1898 JUMP JUMPDEST PUSH1 0x40 DUP3 ADD SWAP1 POP SWAP2 SWAP1 POP JUMP JUMPDEST PUSH0 PUSH1 0x20 DUP3 ADD SWAP1 POP DUP2 DUP2 SUB PUSH0 DUP4 ADD MSTORE PUSH2 0x191F DUP2 PUSH2 0x18E6 JUMP JUMPDEST SWAP1 POP SWAP2 SWAP1 POP JUMP JUMPDEST PUSH32 0x416C6C6F77616E63652065786365656465642E2043616C6C20746F6B656E2E61 PUSH0 DUP3 ADD MSTORE PUSH32 0x7070726F766528666175636574416464726573732C20616D6F756E7429206669 PUSH1 0x20 DUP3 ADD MSTORE PUSH32 0x7273742100000000000000000000000000000000000000000000000000000000 PUSH1 0x40 DUP3 ADD MSTORE POP JUMP JUMPDEST PUSH0 PUSH2 0x19A6 PUSH1 0x44 DUP4 PUSH2 0x1486 JUMP JUMPDEST SWAP2 POP PUSH2 0x19B1 DUP3 PUSH2 0x1926 JUMP JUMPDEST PUSH1 0x60 DUP3 ADD SWAP1 POP SWAP2 SWAP1 POP JUMP JUMPDEST PUSH0 PUSH1 0x20 DUP3 ADD SWAP1 POP DUP2 DUP2 SUB PUSH0 DUP4 ADD MSTORE PUSH2 0x19D3 DUP2 PUSH2 0x199A JUMP JUMPDEST SWAP1 POP SWAP2 SWAP1 POP JUMP JUMPDEST PUSH0 PUSH1 0x60 DUP3 ADD SWAP1 POP PUSH2 0x19ED PUSH0 DUP4 ADD DUP7 PUSH2 0x13EA JUMP JUMPDEST PUSH2 0x19FA PUSH1 0x20 DUP4 ADD DUP6 PUSH2 0x13EA JUMP JUMPDEST PUSH2 0x1A07 PUSH1 0x40 DUP4 ADD DUP5 PUSH2 0x12E4 JUMP JUMPDEST SWAP5 SWAP4 POP POP POP POP JUMP INVALID LOG2 PUSH5 0x6970667358 0x22 SLT KECCAK256 0xE 0xCE CALL NOT PUSH7 0x43FEE06DB49A2F 0xB1 PUSH3 0x22FFCB DUP2 DUP3 0xE6 PUSH14 0x98251FCB91FA1F0C86D4E664736F PUSH13 0x634300081A0033000000000000 "
		},
		"gasEstimates": {
			"creation": {
				"codeDepositCost": "1345000",
				"executionCost": "infinite",
				"totalCost": "infinite"
			},
			"external": {
				"checkAllowance(address)": "infinite",
				"depositTokens(uint256)": "infinite",
				"ethBalance()": "2470",
				"getEtherBalance()": "2454",
				"getFaucetBalance()": "4721",
				"nextRequestAt(address)": "2891",
				"owner()": "2594",
				"requestTokens()": "infinite",
				"setTokenAmount(uint256)": "infinite",
				"setWaitTime(uint256)": "infinite",
				"token()": "infinite",
				"tokenAmount()": "2469",
				"tokenBalances(address)": "2869",
				"waitTime()": "2448",
				"withdrawEther(uint256)": "infinite",
				"withdrawTokens(uint256)": "infinite"
			}
		},
		"methodIdentifiers": {
			"checkAllowance(address)": "1a197a26",
			"depositTokens(uint256)": "dd49756e",
			"ethBalance()": "4e6630b0",
			"getEtherBalance()": "ea46193e",
			"getFaucetBalance()": "f1f959a6",
			"nextRequestAt(address)": "e9439b13",
			"owner()": "8da5cb5b",
			"requestTokens()": "359cf2b7",
			"setTokenAmount(uint256)": "0749469f",
			"setWaitTime(uint256)": "df351aaf",
			"token()": "fc0c546a",
			"tokenAmount()": "eec7faa1",
			"tokenBalances(address)": "523fba7f",
			"waitTime()": "ccca123b",
			"withdrawEther(uint256)": "3bed33ce",
			"withdrawTokens(uint256)": "315a095d"
		}
	},
	"abi": [
		{
			"inputs": [
				{
					"internalType": "contract IERC20",
					"name": "_token",
					"type": "address"
				},
				{
					"internalType": "uint256",
					"name": "_tokenAmount",
					"type": "uint256"
				},
				{
					"internalType": "uint256",
					"name": "_waitTime",
					"type": "uint256"
				}
			],
			"stateMutability": "nonpayable",
			"type": "constructor"
		},
		{
			"anonymous": false,
			"inputs": [
				{
					"indexed": true,
					"internalType": "address",
					"name": "user",
					"type": "address"
				},
				{
					"indexed": false,
					"internalType": "uint256",
					"name": "amount",
					"type": "uint256"
				}
			],
			"name": "EtherDeposited",
			"type": "event"
		},
		{
			"anonymous": false,
			"inputs": [
				{
					"indexed": true,
					"internalType": "address",
					"name": "owner",
					"type": "address"
				},
				{
					"indexed": false,
					"internalType": "uint256",
					"name": "amount",
					"type": "uint256"
				}
			],
			"name": "EtherWithdrawn",
			"type": "event"
		},
		{
			"anonymous": false,
			"inputs": [
				{
					"indexed": false,
					"internalType": "uint256",
					"name": "newAmount",
					"type": "uint256"
				}
			],
			"name": "TokenAmountUpdated",
			"type": "event"
		},
		{
			"anonymous": false,
			"inputs": [
				{
					"indexed": true,
					"internalType": "address",
					"name": "user",
					"type": "address"
				},
				{
					"indexed": false,
					"internalType": "uint256",
					"name": "amount",
					"type": "uint256"
				}
			],
			"name": "TokensDeposited",
			"type": "event"
		},
		{
			"anonymous": false,
			"inputs": [
				{
					"indexed": true,
					"internalType": "address",
					"name": "requester",
					"type": "address"
				},
				{
					"indexed": false,
					"internalType": "uint256",
					"name": "amount",
					"type": "uint256"
				}
			],
			"name": "TokensRequested",
			"type": "event"
		},
		{
			"anonymous": false,
			"inputs": [
				{
					"indexed": true,
					"internalType": "address",
					"name": "owner",
					"type": "address"
				},
				{
					"indexed": false,
					"internalType": "uint256",
					"name": "amount",
					"type": "uint256"
				}
			],
			"name": "TokensWithdrawn",
			"type": "event"
		},
		{
			"anonymous": false,
			"inputs": [
				{
					"indexed": false,
					"internalType": "uint256",
					"name": "newWaitTime",
					"type": "uint256"
				}
			],
			"name": "WaitTimeUpdated",
			"type": "event"
		},
		{
			"inputs": [
				{
					"internalType": "address",
					"name": "_user",
					"type": "address"
				}
			],
			"name": "checkAllowance",
			"outputs": [
				{
					"internalType": "uint256",
					"name": "",
					"type": "uint256"
				}
			],
			"stateMutability": "view",
			"type": "function"
		},
		{
			"inputs": [
				{
					"internalType": "uint256",
					"name": "_amount",
					"type": "uint256"
				}
			],
			"name": "depositTokens",
			"outputs": [],
			"stateMutability": "payable",
			"type": "function"
		},
		{
			"inputs": [],
			"name": "ethBalance",
			"outputs": [
				{
					"internalType": "uint256",
					"name": "",
					"type": "uint256"
				}
			],
			"stateMutability": "view",
			"type": "function"
		},
		{
			"inputs": [],
			"name": "getEtherBalance",
			"outputs": [
				{
					"internalType": "uint256",
					"name": "",
					"type": "uint256"
				}
			],
			"stateMutability": "view",
			"type": "function"
		},
		{
			"inputs": [],
			"name": "getFaucetBalance",
			"outputs": [
				{
					"internalType": "uint256",
					"name": "",
					"type": "uint256"
				}
			],
			"stateMutability": "view",
			"type": "function"
		},
		{
			"inputs": [
				{
					"internalType": "address",
					"name": "",
					"type": "address"
				}
			],
			"name": "nextRequestAt",
			"outputs": [
				{
					"internalType": "uint256",
					"name": "",
					"type": "uint256"
				}
			],
			"stateMutability": "view",
			"type": "function"
		},
		{
			"inputs": [],
			"name": "owner",
			"outputs": [
				{
					"internalType": "address",
					"name": "",
					"type": "address"
				}
			],
			"stateMutability": "view",
			"type": "function"
		},
		{
			"inputs": [],
			"name": "requestTokens",
			"outputs": [],
			"stateMutability": "nonpayable",
			"type": "function"
		},
		{
			"inputs": [
				{
					"internalType": "uint256",
					"name": "_tokenAmount",
					"type": "uint256"
				}
			],
			"name": "setTokenAmount",
			"outputs": [],
			"stateMutability": "nonpayable",
			"type": "function"
		},
		{
			"inputs": [
				{
					"internalType": "uint256",
					"name": "_waitTime",
					"type": "uint256"
				}
			],
			"name": "setWaitTime",
			"outputs": [],
			"stateMutability": "nonpayable",
			"type": "function"
		},
		{
			"inputs": [],
			"name": "token",
			"outputs": [
				{
					"internalType": "contract IERC20",
					"name": "",
					"type": "address"
				}
			],
			"stateMutability": "view",
			"type": "function"
		},
		{
			"inputs": [],
			"name": "tokenAmount",
			"outputs": [
				{
					"internalType": "uint256",
					"name": "",
					"type": "uint256"
				}
			],
			"stateMutability": "view",
			"type": "function"
		},
		{
			"inputs": [
				{
					"internalType": "address",
					"name": "",
					"type": "address"
				}
			],
			"name": "tokenBalances",
			"outputs": [
				{
					"internalType": "uint256",
					"name": "",
					"type": "uint256"
				}
			],
			"stateMutability": "view",
			"type": "function"
		},
		{
			"inputs": [],
			"name": "waitTime",
			"outputs": [
				{
					"internalType": "uint256",
					"name": "",
					"type": "uint256"
				}
			],
			"stateMutability": "view",
			"type": "function"
		},
		{
			"inputs": [
				{
					"internalType": "uint256",
					"name": "_amount",
					"type": "uint256"
				}
			],
			"name": "withdrawEther",
			"outputs": [],
			"stateMutability": "nonpayable",
			"type": "function"
		},
		{
			"inputs": [
				{
					"internalType": "uint256",
					"name": "_amount",
					"type": "uint256"
				}
			],
			"name": "withdrawTokens",
			"outputs": [],
			"stateMutability": "nonpayable",
			"type": "function"
		},
		{
			"stateMutability": "payable",
			"type": "receive"
		}
	]
}